:1000000000000420816B0000CD6500007B6B0000C8
:100010007D6B00007D6B00007D6B00000000000028
:100020000000000000000000000000007D6B0000E8
:100030007D6B0000000000007D6B00007937000040
:100040007D6B000069510000735100007D5100007C
:100050007D6B00007D6B00007D6B00007D6B000000
:100060007D6B00007D6B00007D6B00007D6B0000F0
:100070007D6B00007D6B00007D6B0000DD4B0000A0
:10008000E74B0000F14B0000FB4B0000054C00006B
:100090000F4C0000194C0000234C00002D4C0000B8
:1000A000374C00007D6B00007D6B00007D6B000015
:1000B0007D6B00007D6B00007D6B00007D6B0000A0
:1000C0007D6B00007D6B00007D6B00007D6B000090
:1000D000D9570000E1570000E9570000F157000030
:1000E000F957000001580000095800007D6B00001E
:1000F0007D6B00007D6B00007D6B00007D6B000060
:100100007D6B00007D6B00007D6B00007D6B00004F
:100110007D6B00007D6B00007D6B00007D6B00003F
:100120007D6B00007D6B00007D6B00007D6B00002F
:10013000DD640000E7640000F16400007F4500001A
:1001400089450000934500009D450000A74500003B
:10015000B14500007D6B00007D6B00007D6B0000F1
:100160007D6B00007D6B00005D6B0000676B000025
:10017000716B00007D6B00007D6B00007D6B0000EB
:100180007D6B00007D6B00007D6B00007D6B0000CF
:100190007D6B00007D6B00007D6B00007D6B0000BF
:1001A0007D6B00007D6B00007D6B00007D6B0000AF
:1001B0007D6B00007D6B00007D6B00007D6B00009F
:1001C0007D6B00007D6B00007D6B00007D6B00008F
:1001D000FB6400007D6B00007D6B00007D6B000008
:1001E0007D6B00007D6B00007D6B00007D6B00006F
:1001F000BB450000C5450000CF450000D9450000C3
:10020000E3450000ED450000F74500007D6B000070
:100210007D6B00007D6B00007D6B00007D6B00003E
:100220007D6B00007D6B00007D6B00007D6B00002E
:100230007D6B0000000000000000000000000000D6
:1002400000000000000000000000000000000000AE
:10025000000000000000000000000000000000009E
:10026000000000000000000000000000000000008E
:10027000000000000000000000000000000000007E
:10028000000000000000000000000000000000006E
:10029000000000000000000000000000000000005E
:1002A000000000000000000000000000000000004E
:1002B000000000000000000000000000000000003E
:1002C000000000000000000000000000000000002E
:1002D000000000000000000000000000000000001E
:1002E000000000000000000000000000000000000E
:1002F00000000000000000000000000000000000FE
:1003000000000000000000000000000000000000ED
:1003100000000000000000000000000000000000DD
:1003200000000000000000000000000000000000CD
:1003300000000000000000000000000000000000BD
:1003400000000000000000000000000000000000AD
:10035000000000000000000000000000000000009D
:10036000000000000000000000000000000000008D
:10037000000000000000000000000000000000007D
:10038000000000000000000000000000000000006D
:10039000000000000000000000000000000000005D
:1003A000000000000000000000000000000000004D
:1003B000000000000000000000000000000000003D
:1003C0000348044B834202D0034B03B118477047E4
:1003D000EC010020EC010020000000000548064B65
:1003E0001B1AD90F01EBA301491002D0034B03B133
:1003F00018477047EC010020EC01002000000000CD
:1004000010B5064C237843B9FFF7DAFF044B13B15C
:100410000448AFF300800123237010BDEC010020DD
:1004200000000000108F000008B5054B1BB1054906
:100430000548AFF30080BDE80840FFF7CFBF00BF1D
:1004400000000000F0010020108F0000A3F5803AAA
:10045000704700BF174B002B08BF134B9D46FFF79B
:10046000F5FF00218B460F461348144A121A06F076
:100470000FFE0E4B002B00D098470D4B002B00D0E9
:1004800098470020002104000D000D48002802D0EC
:100490000C48AFF3008006F039FE2000290003F07D
:1004A00011F906F055FD00BF000008000000000033
:1004B0000000000000000420EC010020982600202D
:1004C000000000000000000008B5064802F096FF9A
:1004D00002E00A2003F088F900F020FB0028F8D0A1
:1004E00008BD00BFD47A000010B5044600F002F940
:1004F00010B90024204610BD144802F07FFF0021EF
:10050000204601F0D5FAA8B9114802F077FF11484A
:1005100002F074FF104800F0A5F9FFF7D5FF00F0D6
:10052000FFF8044660B90D4802F068FF0C4800F07F
:1005300099F9DFE70B4802F061FF4FF0FF34D9E78C
:10054000094802F05BFF4FF0FF34D3E7147B000053
:10055000607B0000807B0000987B0000BC7B00007B
:10056000D47B0000447B0000A07B000090F90030A9
:100570002D2B01D00020704701207047024600203B
:1005800000E00130884202D21356002BF9D17047A7
:1005900090F90030B3F1FF3F01D0012070470020F7
:1005A000704700002DE9F0472C4B1C7824B353E032
:1005B0002B4EA50004EB840306EB8303DA680021CD
:1005C000986806F065FD254406EB85060023336137
:1005D00010E0234E4FEA840804EB840306EB830308
:1005E0003A460021986806F053FDA04406EB8806C1
:1005F000002333610134E4B2022C2AD804EB8402D4
:10060000174B03EB82035E683046FFF7AFFF00280D
:10061000CED004EB8402124B03EB8203DF68791E19
:100620003046FFF7ABFF81460028D2D00C4F04EBD9
:10063000840807EB880802463146D8F8080006F01F
:100640008BFDD8F80830002203F80920C8F8109074
:10065000D0E7024B01221A70BDE8F08708020020A3
:100660008C00002008B5FFF79DFF044B1B6913B1F8
:10067000024B986808BD0248FCE700BF8C000020D0
:100680005883000008B5FFF78DFF044B5B6A13B178
:10069000024BD86908BD0248FCE700BF8C0000206F
:1006A0005883000008B5FFF77DFF044B9B6B13B127
:1006B000024B186B08BD0248FCE700BF8C0000200D
:1006C0005883000008B5FFF76DFF014B186908BD9E
:1006D0008C00002008B5FFF765FF014B586A08BD84
:1006E0008C00002008B5FFF75DFF014B986B08BD3B
:1006F0008C00002008B5FFF755FF084B1B693BB184
:10070000064B5B6A33B1054B9B6B2BB9002000E0B5
:10071000002008BD0020FCE70120FAE78C00002043
:100720002DE9F0411A4C1B4F002512E01A4E4FEAFA
:10073000850805EB850306EB8303DA6800219868DA
:1007400006F0A6FCA84406EB8806002333610135B9
:10075000EDB2022DEAD93A462146104802F058FE81
:1007600001E004F50074BC420BD220460C4B9847C4
:100770000028F6D021460B4802F04AFE4FF0FF3029
:1007800003E0094802F03AFE0020BDE8F08100BF16
:100790000090000000A000008C000020DC7B000026
:1007A00001000020047C0000287C0000F0B593B01C
:1007B00000242DE002F148036B4403F8401C013291
:1007C000B24206D23E2A04D8A9560D2901D00A29E0
:1007D000F0D102F148036B44002103F8401C2AB910
:1007E0003F238DF8083000238DF8093007EB870789
:1007F00095F90030DBB202AA0192009333462A46F3
:10080000164951F82710164802F002FE0134E4B2EE
:10081000022C20D8274604EB8402104B03EB820302
:100820005D682846FFF7B4FE0028EFD004EB840291
:100830000A4B03EB8203D96801392846FFF79EFE75
:1008400006462846FFF792FE18B900238DF80830B7
:10085000C6E70022B4E713B0F0BD00BF8C00002053
:10086000587C00002DE9F04794B00746002446E08C
:10087000334B03EB8203986890F900E05FFA8EFE39
:10088000002306E003F150060DEB060C0CF8402C9B
:1008900001338B4240D23E2B3ED8C2560D2A3BD06C
:1008A0000A2AEFD138E0DFF898904FEA850A05EB85
:1008B000850209EB820604AB0293CDF804E00091B7
:1008C000B36859F8222039461E4802F0A1FD766827
:1008D00096F900805FFA88F8AA4459F82A50304601
:1008E000FFF744FE30B3184B0193CDF80080334638
:1008F0002A463946154802F08BFD0134E4B2022C39
:100900001AD8254604EB84020D4B03EB82031969C8
:100910000029ADD18E460B4603F150026A440020F7
:1009200002F8400C002BBED12D238DF810308DF82D
:100930001100B8E7064BD7E714B0BDE8F08700BF59
:100940008C0000209C7C00008C7C0000D07C00008F
:10095000947C000000B583B001238DF807300DF1C1
:1009600007020921022004F033FE20B99DF8073068
:100970002BB9012000E0002003B05DF804FB00204B
:10098000FAE7000038B50546002408E00B4B03EBFE
:100990004402517813F8140002F035FF0134092C99
:1009A0000AD8002DF2D0054B03EB4402517813F81E
:1009B000140002F023FFF1E738BD00BF5C8E000099
:1009C00008B5FFF7C7FF044B1B78834203D0024BE7
:1009D0001870FFF7D7FF08BDC800002038B5FFF733
:1009E000B9FF044602F0A4F80546FFF7E9FF9CB9F9
:1009F0000E4B1B787BB10E4B1B784BB90D4B186817
:100A0000281A40F6B733984202D80B4B01221A70CD
:100A1000064B00221A7038BD044B01221A70044B99
:100A200000221A70034B1D60F5E700BF131400206D
:100A3000121400200C1400201114002010F4402F78
:100A400000D1704708B5FFF7C9FF08BD08B50B4BCB
:100A50001B7813B10A4B1B7803B108BD02F068F88C
:100A6000084B1B68C01A40F6B7339842F5D90123EA
:100A7000034A1370044A1370EFE700BF13140020F9
:100A8000121400200C1400201014002030B589B07E
:100A900002258DF808500A238DF8093002A928464E
:100AA00004F016FE01220921284604F0DFFD00248F
:100AB000009403231A460921284604F0C0FD8DF84E
:100AC0000C5001238DF80D300D4B04930594032336
:100AD00006938DF81C4003A804F00AFE094BFF2280
:100AE0001A70094B1C70094B1C70094B1C70094B88
:100AF0001C70094B1C60FFF763FF09B030BD00BFDD
:100B0000350B0000C8000020131400201214002030
:100B100011140020101400200C140020044B1B782A
:100B200003F0FF001BB1024B00221A700120704736
:100B30001014002008B5FFF781FF08BD2DE9F04132
:100B40000C46002940D000229046154610E030F8AF
:100B50001230A3F50043DE1703FB06F6A3FB0331B7
:100B600001EB460113EB0803984641EB0505013202
:100B7000A242ECD3224600234046294606F070F8F4
:100B80000A4606460F46A04575F100051FD3451CD1
:100B900041F100086D0845EAC8754FEA58088542DA
:100BA00078EB020211D22A4643463046394606F017
:100BB00057F8281848EB010143082846424643EA03
:100BC000C1754FEA5108EAE70846BDE8F081002008
:100BD000FBE708B5012204F012FD08BD08B50022AC
:100BE00004F00DFD08BD0000014B01221A70704792
:100BF0001714002030B587B001AC1C4D0FCD0FC4C9
:100C00002B6823601A4802F0F9FB1A4802F0F6FB41
:100C1000194802F0F3FB00240CE006AB03EB44039D
:100C200013F8131C13F8140CFFF7D3FFC82002F0BD
:100C3000DBFD0134092CF0D94FF4FA7002F0D4FD39
:100C400000240CE006AB03EB440313F8131C13F869
:100C5000140CFFF7C3FF642002F0C6FD0134092C19
:100C6000F0D9064802F0CAFB07B030BD708E000014
:100C7000307D00005C7D0000787D0000A47D0000D8
:100C800030B585B0394802F0B9FB394802F0B6FBFF
:100C9000384802F0B3FB384802F0B0FB00F062FACB
:100CA000002845D10446354802F0A8FB0125344808
:100CB00002F0A4FB02F0D4FB00283FD1314802F03F
:100CC0009DFB0135EDB2304802F098FB02F062F86E
:100CD000002839D12D4802F091FB0135EDB22C48A6
:100CE00002F08CFB4FF47A53009350230193294B6D
:100CF00002934FF480630393684601F03BFF48BBC7
:100D0000254802F07BFB0135EDB2244802F076FB6A
:100D10002B1922462946224802F07AFB04BB2148BF
:100D200002F06CFB134802F069FB204605B030BDB1
:100D30001D4802F063FB01240025B8E71B4802F0C0
:100D40005DFB0134E4B2BEE7194802F057FB013401
:100D5000E4B2C4E7174802F051FB0134E4B2D4E72F
:100D60002146154802F054FBDCE700BF307D00004F
:100D7000C07D0000787D0000E47D00000C7E000056
:100D8000387E0000547E0000847E0000A87E0000B3
:100D9000D87E000018140020F87E0000287F000094
:100DA000547F0000787F00001C7E0000687E0000F9
:100DB000BC7E00000C7F0000947F000010B582B064
:100DC00024220021254806F063F900F0DFF940B93C
:100DD000224B01221A72224A12681A60214A1268B2
:100DE0005A600023ADF80230019301A90DF1020011
:100DF00002F098FB20B9194B01221A74019ADA60AB
:100E000002F072F858B9154B01221A76164A128868
:100E10005A82164A12889A82154A1288DA8201F09A
:100E2000F7FE10B10D4802B010BD4FF47A7002F019
:100E3000DBFC01F009FF01F01BFF01460028F1D0A7
:100E4000064C012384F82030B0F5806F28BF4FF4A2
:100E500080610848FFF772FEE061E3E7181C00209C
:100E6000441C0020401C00203220002030200020A4
:100E70002E200020181400202DE9F0478AB0844667
:100E800008461546DCF80040294A82FB0432E31785
:100E9000C3EBA213002C3EDB4FF47A7101FB13422B
:100EA000DCF80440224E86FB0471E717C7EBA1175C
:100EB0004FF47A7808FB174EDCF80C10A6FB0146BD
:100EC000B60908FB1611BCF91240BCF91490BCF924
:100ED00016A0DCF81CC0CDF820C0CDF81CA0CDF8C1
:100EE00018900594049103961249A1FB0E64E4083E
:100EF00002940197A1FB0214E40800940E4A2946CB
:100F000006F038F8002801DB854200DC681E80B25C
:100F10000AB0BDE8F0876442054981FB0421E2176D
:100F2000C2EBA1124FF47A7101FB1242B8E700BF85
:100F3000D34D6210CDCCCCCCB47F000000286ED055
:100F4000034600296DD0002A6DD010B4007A68B134
:100F50001C6847F23050844235DD34480078002860
:100F60003BD10120314C207000240C701C7EACB1B0
:100F7000B3F91640B4F52F7F31DC2D4C24786CB9D1
:100F80002B4C4FF0010C84F800C0904206D200EBCD
:100F90000C044FF0020C01F800C0E0B293F82040BE
:100FA0007CB1DB69B3F5FA6F2BD9224B1B7843B9BF
:100FB000204B01241C70904203D2031904220A54CE
:100FC000D8B210BC7047194800780028CED0174816
:100FD0000024047001200870C8E70020C6E7144C04
:100FE0002478002CDAD0124C4FF0000C84F800C0AA
:100FF0009042D3D2441C4FF0030C01F800C0E0B281
:10100000CCE70C4B1B78002BDBD00A4B00241C7068
:101010009042D6D2431C05220A54D8B2D1E7002010
:101020007047002070471046704700BF161400201C
:101030001514002014140020002975D010B582B0BA
:10104000844610461C46002A70D0002C70D0BCF19B
:10105000050F70D8DFE80CF0032B4E555C620A6870
:10106000384981FB0231D317C3EBA113002A12DBED
:101070004FF47A7C0CFB13223349A1FB0212D208F5
:101080000092324A214605F075FF002855DB844264
:1010900055DD80B24DE052422A4981FB021CD11736
:1010A000C1EBAC114FF47A7C0CFB1122E4E70A6827
:1010B000244981FB0231D317C3EBA113002A0DDBB6
:1010C0004FF47A7C0CFB13221F49A1FB0212D208B9
:1010D00000921F4A214605F04DFFD6E752421949BA
:1010E00081FB021CD117C1EBAC114FF47A7C0CFBD5
:1010F0001122E9E7B1F91630164A214605F03AFF08
:10110000C3E7B1F91630144A214605F033FFBCE7B6
:10111000CB69124A214605F02DFFB6E7CB69104A8C
:10112000214605F027FFB0E700207047002000E0CF
:10113000204602B010BD0020FBE70020F9E70020A8
:10114000F7E700BFD34D6210CDCCCCCC10800000AF
:1011500078800000E080000040810000988100005D
:10116000F881000008B5074800F000F943B223B940
:10117000054B01221A70C0B208BD034B00221A7041
:10118000F9E700BF481C00203C1C002008B5054BB7
:101190001B780BB9012008BD0349044800F0CEF8C4
:1011A000C0B2F8E73C1C0020401C0020441C00207A
:1011B0000278407840EA02207047027843781B04A6
:1011C00043EA0263827843EA0223C07818437047F7
:1011D00000B58646FF204FF0000C10E04000C0B282
:1011E000013BDBB23BB142B2002AF7DA520082F097
:1011F0003102D0B2F4E70CF1010C1FFA8CFC8C45E3
:1012000004D21EF80C3058400823EBE75DF804FBCD
:1012100010B51446FFF7DCFFA04201D1002010BD3D
:101220000120FCE708B500F03DF808BD2DE9F041CC
:10123000570807EB470712F001041CD10D46BFB257
:101240003A4600F01FF88046B8B92646BC4214D290
:10125000A31CEA5C02212819FFF7DAFF80B9731C8E
:101260009BB22A5DAA550236B6B22A195278EA54C0
:101270000334A4B2EAE74FF004084046BDE8F08129
:101280008046FAE700B583B01346012200920A4671
:101290000146022004F0DEFE003818BF012003B032
:1012A0005DF804FB00B583B01346012200920A46A4
:1012B0000146022004F0FAFD003818BF012003B0F7
:1012C0005DF804FB08B502F08FFA08BD45F27353D0
:1012D00003FB00F04013A0F52F40C838704743F6D9
:1012E000095303FB00F04013A0F5BB5010387047C2
:1012F00070B582B005460C46FD238DF80030012202
:1013000069464420FFF78EFF064610B1304602B012
:1013100070BD6420FFF7D6FF042269464420FFF722
:1013200085FF06460028F1D16846FFF741FF288077
:101330000DF10200FFF73CFF2080E7E770B582B0B7
:1013400005460C4601A90DF10600FFF7D1FF064640
:1013500048B9BDF80600FFF7B9FF2860BDF80400E2
:10136000FFF7BDFF2060304602B070BD30B583B0DE
:10137000044689238DF80030012269464420FFF796
:1013800051FF054610B1284603B030BD4FF47A70C6
:10139000FFF798FF042269464420FFF747FF054600
:1013A0000028F0D16846FFF708FF2060EBE7000057
:1013B00070B594B0002401E00134E4B2022C27D8C7
:1013C000174800F029FE05460028F5D1012000F05D
:1013D0000BFE134E7369134A402104A805F0CAFDA1
:1013E000114C4FF416720021204605F051FE04A85E
:1013F00005F0C0FE002302930193009304AB82B278
:1014000006F16E01204600F0D5FC00F0D9FD03E0A6
:10141000002000F0E9FD0125284614B070BD00BF92
:10142000CC000020588200009C1D002030B585B003
:101430000E4C4FF480722146FFF71EFD0C4D4FF409
:1014400016720021284605F023FE00F0B9FD204663
:1014500005F090FE0023029301930093234682B28D
:101460000449284600F0A6FC05B030BD4C1C002005
:101470009C1D00203A010020D0B130B585B0044653
:101480000C4D4FF416720021284605F001FE00F0C5
:1014900097FD204605F06EFE002302930193009312
:1014A000234682B20449284600F084FC05B030BDD2
:1014B000704700BF9C1D00206C820000032803D8E9
:1014C000DFE800F003030303052070470438C0B2CF
:1014D000012801D900207047012070470338C0B2AD
:1014E000022801D801207047002070472DE9F843F9
:1014F00080460C461646164B1B68DB699847054626
:1015000022460021404605F0C3FD0027104B1B6812
:10151000DB699847401BB04215D2A742F6D20C4B6C
:101520001B685B683222012108EB0700984781465F
:101530000028EBD10137BFB23E21404605F0B0FD97
:101540000028E3D001E04FF003094846BDE8F883E6
:10155000F41F0020014B1860704700BFF41F0020EB
:1015600038B5094B1B6853B104461D684DB105F0F1
:1015700001FE4FF4967281B22046A84738BD012083
:10158000FCE70120FAE700BFF41F002038B504464D
:10159000054B1B681D6805F0EDFD4FF4FA7281B232
:1015A0002046A84738BD00BFF41F0020F8B5074605
:1015B0000D4616461C460A46002105F069FD1CB181
:1015C000012C09D0012006E0074B1B685B683246FE
:1015D000294638469847F8BD034B1B689B68012194
:1015E00038469847F7E700BFF41F002010B50446BF
:1015F00005F076FD08B1002010BD104B196820469B
:1016000005F06EFD08B10120F6E70D4B1968204684
:1016100005F066FD08B10220EEE72B21204605F01B
:101620003FFD08B10320E7E7064B1968204605F0A7
:1016300057FD08B10420DFE70520DDE77401002035
:10164000780100206C01002070B59AB004461D4658
:10165000BDF87860019600920B46204A602102A8EE
:1016600005F088FC02A8FFF77BFF70BB41F28832CF
:1016700078212046FFF73AFF50BB194B1B681B68C7
:1016800042F2107231462846984718BB002342F2B6
:10169000107278212046FFF789FF054628B10328FC
:1016A00003D02846FFF70AFF10E00E4B19682046CA
:1016B000FFF79CFF50B1831EDBB2012B0CD905282C
:1016C000EFD1032DEDD1284600E004201AB070BD03
:1016D0000320FBE70420F9E70120F7E7CC820000B4
:1016E000F41F00207C01002070B504460D46194807
:1016F000FFF736FF58BB06462B464FF47A625A2155
:101700002046FFF753FF08B103281CD11249204699
:1017100005F0E6FCE0B91149204605F0E1FCB8B956
:101720002B464FF47A625A212046FFF73FFF0A49C1
:10173000204605F0D5FC58B90849204605F0D0FCF4
:1017400030B9032604E0FFF7B9FE064600E00426A0
:10175000304670BDEC820000087F0000F882000077
:1017600070B584B005461646002400940194029496
:10177000ADF80C400A461849684605F02FFC68464B
:10178000FFF7EEFEF8B90446334641F288325A219B
:101790002846FFF70BFF064608B103280FD10F4B71
:1017A00019682846FFF722FF88B1831EDBB2012BA0
:1017B0000FD9052808D1032E06D1344604E0FFF7DF
:1017C0007DFE044600E00424204604B070BD0446BB
:1017D000FAE70124F8E700BF008300007C01002045
:1017E00070B504460D461548FFF7BAFEF8B906462F
:1017F0002B4641F288325A212046FFF7D7FE054694
:1018000008B103280FD10E4B19682046FFF7EEFEF2
:1018100080B1831EDBB2012B0ED9052808D1032D20
:1018200006D12E4604E0FFF749FE064600E00426F6
:10183000304670BD0646FBE70126F9E7108300003D
:101840007C01002070B504460D461548FFF788FE60
:10185000F8B906462B4641F288325A212046FFF756
:10186000A5FE054608B103280FD10E4B1968204686
:10187000FFF7BCFE80B1831EDBB2012B0ED9052819
:1018800008D1032D06D12E4604E0FFF717FE0646C9
:1018900000E00426304670BD0646FBE70126F9E766
:1018A000248300007C01002070B504460D461548D5
:1018B000FFF756FEF8B906462B4641F288327821EA
:1018C0002046FFF773FE054608B103280FD10E4BE3
:1018D00019682046FFF78AFE80B1831EDBB2012B18
:1018E0000ED9052808D1032D06D12E4604E0FFF7B6
:1018F000E5FD064600E00426304670BD0646FBE7DF
:101900000126F9E7388300007C010020F0B58FB094
:1019100004460D4616461F463222002101A805F056
:10192000B7FB33462A46184901A805F057FB01A822
:10193000FFF716FE10BB05463B4643F6982296215C
:101940002046FFF733FE08B1032813D10F49204684
:1019500005F0C6FB98B90E4B19682046FFF746FE06
:10196000054660B10B4B19682046FFF73FFE48B9AA
:10197000012504E0FFF7A2FD054600E00425284606
:101980000FB0F0BD0325FAE7448300005C8300003C
:101990007C0100207801002070B58EB004460D4611
:1019A00016463222002101A805F072FB2A4618498A
:1019B00001A805F013FB01A8FFF7D2FDF8B9054611
:1019C000334641F288325A212046FFF7EFFD0646A2
:1019D00008B103280FD10F4B19682046FFF706FE08
:1019E00088B1831EDBB2012B0FD9052808D1032E45
:1019F00006D1354604E0FFF761FD054600E0042509
:101A000028460EB070BD0546FAE70125F8E700BF8D
:101A1000688300007C010020F0B59DB004460D46AF
:101A200016461F466022002104A805F031FB9DF8F0
:101A3000903003939DF88C300293229B0193009782
:101A400033462A46184904A805F0C8FA04A8FFF747
:101A500087FD00BB05469DF8943041F2883278211D
:101A60002046FFF7A3FD064608B103280FD10F4B10
:101A700019682046FFF7BAFD88B1831EDBB2012B3F
:101A80000FD9052808D1032E06D1354604E0FFF70B
:101A900015FD054600E0042528461DB0F0BD0546AD
:101AA000FAE70125F8E700BF8C8300007C010020E5
:101AB00070B582B004460D46304B1B681BB1DB6A23
:101AC0000BB12F489847FEF7CDFD0646FEF7FAFD0D
:101AD0002C49019580B2009033460A462046FFF714
:101AE000B3FD0646002835D1244B1B681BB1DB6AC9
:101AF0000BB125489847FEF7C5FD0646FEF7EAFDFF
:101B00002249019580B2009033460A462046FFF7ED
:101B10009BFD064640BB194B1B681BB1DB6A0BB132
:101B20001B489847FEF7BEFD0646FEF7DBFD194948
:101B3000019580B2009033460A462046FFF784FDA7
:101B4000064670B10D4B1B685BB1DB6A4BB11248A6
:101B5000984706E0094B1B681BB1DB6A0BB10F48C5
:101B60009847304602B070BD044B1B68002BF8D07C
:101B7000DB6A002BF5D00A489847F2E7F41F0020F3
:101B8000BC830000DC830000048400002884000083
:101B9000588400007C84000088840000E4830000F6
:101BA0003484000070B598B004460D461646602295
:101BB0000021684605F06CFA2A461849684605F087
:101BC0000DFA6846FFF7CCFCF8B90546334641F2FA
:101BD000883278212046FFF7E9FC064608B1032841
:101BE0000FD10F4B19682046FFF700FD88B1831E07
:101BF000DBB2012B0FD9052808D1032E06D13546BB
:101C000004E0FFF75BFC054600E00425284618B019
:101C100070BD0546FAE70125F8E700BFAC84000077
:101C20007C010020F0B595B004460D4616461F46CF
:101C30004622002102A805F02BFA9DF86830019396
:101C4000009733462A46184902A805F0C7F902A8AA
:101C5000FFF786FC00BB05469DF86C3041F28832E8
:101C60005A212046FFF7A2FC064608B103280FD1EF
:101C70000E4B19682046FFF7B9FC88B1831EDBB212
:101C8000012B0FD9052808D1032E06D1354604E0D3
:101C9000FFF714FC054600E00425284615B0F0BD0A
:101CA0000546FAE70125F8E7C08400007C01002022
:101CB000F0B59DB004460D4616461F46642200212D
:101CC00003A805F0E5F9009642F2B3232A46184925
:101CD00003A805F083F903A8FFF742FCF8B905460D
:101CE0003B4641F28832C8212046FFF75FFC06469A
:101CF00008B103280FD10F4B19682046FFF776FC77
:101D000088B1831EDBB2012B0FD9052808D1032E21
:101D100006D1354604E0FFF7D1FB054600E0042577
:101D200028461DB0F0BD0546FAE70125F8E700BFDB
:101D3000F08400007C010020F8B504460D461A48E6
:101D4000FFF70EFC40BB06462B4641F28832C72106
:101D50002046FFF72BFC074608B1032818D1134B88
:101D600019682046FFF742FC0546114B19682046CA
:101D7000FFF73CFC284310F0FF0010D0831EDBB2BD
:101D8000012B0ED9052808D1032F06D13E4604E0C9
:101D9000FFF794FB064600E004263046F8BD0646F1
:101DA000FBE70126F9E700BF0C850000981D002025
:101DB0007C0100202DE9F04FBBB006468946039216
:101DC00004939DF810B19DF814A19DF81881002589
:101DD000084605F0CFF9C7B22437FFB2C82229461A
:101DE00008A805F055F95A4B1B68DB68984705951C
:101DF000069507952C460EE0CDF804A0CDF800B06E
:101E0000039B4A46534908A805F0E8F808A8FFF7DD
:101E1000BDFB05460124042C00F08E80032CFAD86B
:101E200001A353F824F000BFF91D0000391E000083
:101E3000A11E0000BD1E0000002D7FD143464FF4BF
:101E4000FA7239463046FFF7B1FB08B10328E2D1F8
:101E5000414B19683046FFF7C9FB0528DBD801A3C1
:101E600053F820F0291F00007D1E00002D1F0000E8
:101E7000171E00009D1E00008D1E0000069B0133F2
:101E8000DBB20693032B53D82C46C4E7079B0133E0
:101E9000DBB207930A2BBED90224BCE72C46BAE773
:101EA00043464FF47A724FF496713046FFF77EFB4B
:101EB0000498FFF76BFB05460324ACE7002D3FD1E8
:101EC00043464FF47A724FF4C8713046FFF76EFB09
:101ED00008B103289FD1214B19683046FFF786FBD4
:101EE000052898D801A353F820F000BF351F000043
:101EF000091F0000051F0000171E0000451F0000FD
:101F0000191F000001241EE0059B0133DBB205937D
:101F1000032B80D9022416E0059B0133DBB2059325
:101F2000052B7FF678AF0EE0022474E7044672E7D3
:101F3000022470E704246EE7002404E0042402E095
:101F4000042400E0052420463BB0BDE8F08F00BF2C
:101F5000F41F00201C8500007C010020700100207F
:101F60002DE9F84381460F461646134905F0B8F8A7
:101F7000441D0A21204605F093F8051B2A462146F8
:101F8000384605F09AF84FF0000807F805800B492D
:101F9000484605F0A5F800F109040A21204605F09D
:101FA0007FF8051B2A462146304605F086F806F8DC
:101FB0000580BDE8F88300BF3C8500004485000033
:101FC00010B5084C23689B6A0121022098472368BA
:101FD0009B693220984723689B6A0021022098471A
:101FE00010BD00BFF41F002008B5044B1B689B6A9E
:101FF000011E18BF01210120984708BDF41F0020D1
:1020000008B5044B1B689B6A011E18BF0121002004
:10201000984708BDF41F00202DE9F041B6B00546F1
:10202000826A904B1A60C822002104A805F030F89B
:10203000002104A8FFF780FE20B904469DF92A304C
:10204000342B0CD0884B1B681BB1DB6A0BB1874863
:1020500098470026864B1E70374600F05ABC824BCC
:102060001B681BB1DB6A0BB1824898470120824B89
:102070001870824B1870824B00221A70FFF7C0FF55
:1020800000F07EBC7E4B01221A707E4B00221A703B
:10209000754B1B681BB1DB6A0BB17B48984700216D
:1020A0002868FFF721FB8046F8B96F4B1B681BB10E
:1020B000DB6A0BB175489847754B00221A806C4B50
:1020C00001221A704746724B1B889BB2142B40F2B8
:1020D00020846F4B00221A806E4B01221A70644BD1
:1020E0000C221A70274600F014BC5F4B1B681BB112
:1020F000DB6A0BB1684898470137FFB2042FE2D979
:10210000644B01221A705A4B0C221A702746DAE7E8
:10211000554B1B681BB1DB6A0BB160489847002226
:1021200001212868FFF71CFB042811D8DFE800F024
:102130000327102E20004C4B1B681BB1DB6A0BB130
:1021400057489847524B00221A80494B02221A7076
:102150004F4B1B889BB2142B40F2DB834C4B00226D
:102160001A804C4B02221A70414B0C221A70D0E399
:10217000484B0D221A703E4B01221A70E8E7454B7E
:102180000E221A703A4B01221A70E1E7414B0F22DE
:102190001A70374B01221A70DAE76B79012B12D0D3
:1021A000334B03221A703A4B1B889BB2412B40F2EF
:1021B000B083374B00221A80364B03221A702C4B07
:1021C0000C221A70A5E3284B1B681BB1DB6A0BB10C
:1021D00034489847244B1B681B6A9847002128689D
:1021E000FFF7FEFA0428DED801A353F820F000BF61
:1021F0000522000083230000A72100009123000096
:1022000075230000224B00221A8007E0204B002299
:102210001A80254A25492868FFF7A2FE1C4B1B8817
:102220009BB2F92B00F29980114B1B78052B00F023
:102230009480002341F28832C8212868FFF7B6F95C
:102240002C681B492046FFF7D1F9002834D1064BF2
:102250001B68002BDAD0DB6A002BD7D015489847D3
:10226000D4E700BF981D0020F41F00207C850000EB
:102270004C1D002050850000541D0020551D0020DD
:10228000511D0020561D002094850000AC850000E3
:10229000521D0020501D0020C8850000F085000060
:1022A0000C86000024860000581D0020781D0020A8
:1022B000488600005C86000089492046FFF796F9B1
:1022C0000028ABD1874B1B681BB1DB6A0BB186487A
:1022D0009847864B00221A80824B1B689B694FF4FB
:1022E0007A709847824B1B78022B97D1002128687F
:1022F000FFF7A8FA0428F5D801A353F820F000BF8F
:10230000152300003F230000E52200004D230000BC
:1023100031230000734B1B681BB1DB6A0BB175489E
:102320009847724B00221A80714B05221A7075E78C
:10233000714B0D221A706E4B02221A70D2E76E4B4F
:102340000E221A706A4B02221A70CBE76A4B0F22D8
:102350001A70674B02221A70C4E7624B1B685B6AF3
:102360009847634B1B78052B3FF41DAF604B0C2245
:102370001A7018E7604B0D221A705D4B02221A701A
:1023800011E75D4B0E221A70594B02221A700AE7B0
:10239000594B0F221A70564B02221A7003E7514B09
:1023A0001B681BB1DB6A0BB15448984700212868B1
:1023B000FFF77AFA042811D8DFE800F00327102E7F
:1023C0002000484B1B681BB1DB6A0BB14C48984797
:1023D000464B00221A80464B04221A70434B1B883E
:1023E0009BB2142B40F29582404B00221A80424B44
:1023F00004221A703E4B0C221A708AE23E4B0D22C8
:102400001A703B4B03221A70E8E73B4B0E221A70FE
:10241000374B03221A70E1E7374B0F221A70344B07
:1024200003221A70DAE72F4B1B681BB1DB6A0BB172
:10243000344898470023EA68A9682868FFF766FAD5
:10244000052814D8DFE800F0032A13312331254B87
:102450001B681BB1DB6A0BB12B489847234B00224A
:102460001A800120FFF7CCFD214B05221A701F4B6B
:102470001B889BB23C2B40F24C821C4B00221A80E2
:102480001D4B05221A701A4B0C221A7041E21A4B8E
:102490000D221A70164B04221A70E8E7164B0E2212
:1024A0001A70134B04221A70E1E7134B0F221A70B3
:1024B0000F4B04221A70DAE70A4B1B681BB1DB6A68
:1024C0000BB1124898470022297C2868FFF764FA6C
:1024D000042843D8DFE800F01C5242593C0000BFFA
:1024E00080860000F41F00209C860000521D002002
:1024F0004C1D0020C0860000501D0020DC8600001E
:10250000FC860000208700003C8700005C870000FC
:102510008C4B1B681BB1DB6A0BB18B4898478B4C0B
:102520004FF00008A4F80080864B1B689B6940F6BA
:10253000B8309847A4F80080687CFEF7C7FF18B150
:10254000834B07221A70E4E1814B07221A70E0E105
:10255000804B0D221A707E4B05221A707B4B1B8814
:102560009BB2142B40F2D581784B00221A80794B14
:1025700006221A70764B0C221A70CAE1754B0E2295
:102580001A70734B05221A70E8E7724B0F221A700B
:102590006F4B05221A70E1E76A4B1B681BB1DB6ABF
:1025A0000BB16D48984700212868FFF781FA04288D
:1025B00011D8DFE800F00327102E2000614B1B68C4
:1025C0001BB1DB6A0BB165489847604B00221A804B
:1025D0005F4B07221A705D4B1B889BB2782B40F231
:1025E00098815A4B00221A805A4B07221A70584B76
:1025F0000C221A708DE1574B0D221A70544B062293
:102600001A70E8E7534B0E221A70514B06221A70CB
:10261000E1E7504B0F221A704D4B06221A70DAE791
:10262000484B1B681BB1DB6A0BB14D489847002330
:10263000039302930193EB690093AB696A69697C28
:102640002868FFF7E9F9042823D8DFE800F003320F
:1026500022391C003B4B1B681BB1DB6A0BB14148A4
:1026600098473A4B00221A803F4B01221A70687C2F
:10267000FEF734FF18B1364B08221A7009E0344BCC
:102680000A221A7005E0334B0D221A70304B0722D4
:102690001A702E4B1B889BB2142B40F23A812B4BA5
:1026A00000221A802B4B09221A70294B0C221A7017
:1026B0002FE1284B0E221A70254B07221A70E8E7EB
:1026C000234B07221A70E4E71E4B1B681BB1DB6A21
:1026D0000BB1264898470022A96A2868FFF762FADA
:1026E000042811D8DFE800F0032710462000154B1E
:1026F0001B681BB1DB6A0BB11D489847134B0022C6
:102700001A80134B0A221A70104B1B889BB2142B91
:1027100040F2FF800D4B00221A800E4B08221A70E7
:102720000B4B0C221A70F4E00A4B0D221A70084B66
:1027300008221A70E8E7074B0E221A70044B082291
:102740001A70E1E7F41F00207C870000521D002072
:102750004C1D0020501D002098870000B487000009
:10276000D4870000F4870000551D00201488000065
:1027700030880000844B0F221A70844B08221A7094
:10278000C2E7834B1B681BB1DB6A0BB181489847DA
:102790000023019395F82430009395F8233095F8A1
:1027A0002220298C2868FFF73DFA042811D8DFE899
:1027B00000F00327102E2000754B1B681BB1DB6A4D
:1027C0000BB175489847754B00221A806F4B0A224F
:1027D0001A70724B1B889BB2142B40F29A806F4B7D
:1027E00000221A80684B0A221A70684B0C221A7059
:1027F0008FE0654B0D221A70644B09221A70E8E7CE
:10280000614B0E221A70614B09221A70E1E75E4B90
:102810000F221A705D4B09221A70DAE75C4B1B68B5
:102820001BB1DB6A0BB15E489847002395F82C205A
:10283000A96A2868FFF73CFA04283DD8DFE800F0D1
:10284000084B3C523600554B1B889BB2C82B26D8F0
:102850004E4B1B780A2B2FD100212868FFF76CFA0A
:1028600004460028EFD12B6893F91A30342BEAD1B3
:10287000474B1B681BB1DB6A0BB14A4898470023E2
:10288000464A1380484A13700123484A1370484A45
:1028900013700B233D4A1370464A137070E03F4B90
:1028A00000221A80394B0C221A70D1E7364B0D22C8
:1028B0001A70364B0A221A70384B1B889BB2642B55
:1028C00027D9364B00221A802F4B0B221A702F4B20
:1028D0000C221A701DE02C4B0E221A702B4B0A2270
:1028E0001A70E9E7284B0F221A70284B0A221A7037
:1028F000E2E7274B1B681BB1DB6A0BB12E489847F8
:10290000022E04D80136F6B2204B00221A70032E94
:1029100022D01E4B1C780B2C2FD00C2CF9D801A3E5
:1029200053F824F085200000112100009B210000B5
:102930009F23000027240000B924000099250000EF
:1029400021260000C9260000832700001D28000062
:1029500013290000F32800000D4B1B681BB1DB6A34
:102960000BB11648984700260F4B1E70144B0122DE
:102970001A70064B0B221A70CBE7114B1C78E4B28D
:10298000204636B0BDE8F081501D00204C1D0020CF
:10299000F41F00205088000070880000521D0020A5
:1029A00090880000B0880000511D0020541D0020B8
:1029B000551D002080010020DC88000000890000F7
:1029C000561D0020014B1868704700BFF81F0020FB
:1029D00010B5044604F0CEFB024601232146002038
:1029E00001F0A6FC10BD08B50A46012301460220ED
:1029F00001F09EFC10F1030F05D030B110F1040F6F
:102A000005D1032002E0022000E0002008BD0120E3
:102A1000FCE70000032800D9704708B5064B03EB1C
:102A2000400C012914BF002201229CF8011013F868
:102A3000100002F0E4FD08BDB48E000008B50020CF
:102A400002F09CF8003818BF012008BD08B500202E
:102A500002F086F8003818BF012008BD08B504F060
:102A6000E3F808BD00B583B000238DF807300DF101
:102A70000701022001F074FD9DF8070000F001003D
:102A800003B05DF804FB00B583B000238DF8073078
:102A90000DF10701022001F04FFD9DF8070080F0C5
:102AA000010003B05DF804FB08B5022001F028FD29
:102AB000003818BF012008BD08B50A4600230146AA
:102AC000022001F097FC10F1030F02D010B1012099
:102AD00000E0022008BD00002DE9F04107460D4648
:102AE00016460E4BD3F800800024AC4210D20B4B9C
:102AF0001B68A3EB0803B3420AD201231A46391913
:102B0000022001F077FC0028EFD10134A4B2ECE7F9
:102B100014B10020BDE8F0810320FBE7F81F00207E
:102B2000024A136801331360704700BFF81F00208A
:102B3000014B1868704700BFF81F002008B5024815
:102B4000FEF708FD08BD00BF848E000008B5012215
:102B50000021084602F0ECFC30B9072200210846AB
:102B600002F096FC18B908BD4FF0FF30FBE74FF0BC
:102B7000FF30F8E7002833D038B504460368002B4F
:102B800031D04268642A31D88268002A31D0C268C4
:102B9000002A31D01D4A12788ABB013B4BF67F32A6
:102BA00093422FD8194D2C220021284604F070FAA8
:102BB00023686B606368AB60A368EB60E3682B61BC
:102BC000FFF7C4FF38B9114B00225A619A61DA61EC
:102BD00001221A7038BD04222A704FF0FF30F9E745
:102BE0006FF0010070476FF00100F3E76FF0010034
:102BF000F0E76FF00100EDE76FF00100EAE76FF03A
:102C00000300E7E76FF00100E4E700BF00200020C9
:102C10000B4B1B78012B01D0032B0ED1012B04D0C1
:102C2000074B02221A7000207047054B00221A62DF
:102C30005A62044B01221A70F2E74FF0FF307047DE
:102C400000200020FC1F002008B5084B1B78023B29
:102C5000DBB2012B07D8002003F004FF034B012255
:102C60001A70002008BD4FF0FF30FBE70020002065
:102C7000014B586A704700BF0020002010B4A0F23A
:102C8000A960154B9B6800FB03F3144A82FB030207
:102C9000DB17C3EB62130B60DB000B604A681A445E
:102CA0008868121AC2EB4212D2001446002A0DDBC9
:102CB00024124C608B600A4B9A420ADB47F6F8708C
:102CC000A042A8BF204600B210BC704702F1FF042A
:102CD000EEE70448F7E700BF002000201F85EB5116
:102CE000010780FF0880FFFF10B50F4C2146FFF75A
:102CF000C5FF54F8083CE268A0F5004023F8120034
:102D0000E3680133E36054F8041C8B4204D2074AA1
:102D1000536A0133536210BDA4F1140300221A62F6
:102D2000D868FDF761FFF2E71420002000200020A2
:102D30000E4B1B78022B00D0704710B582B00020DC
:102D400003F05CFE80B964242346013C63B100209B
:102D50008DF800006A46014603F0B4FE0028F3D166
:102D6000BDF80200FFF7C0FF02B010BD0020002038
:102D700078B182B008E0019B01330193019BB3F568
:102D8000FA5FF8D3013810B100230193F6E702B0DF
:102D90007047704730B585B000258DF80F50012081
:102DA00000F00FFA3220FFF7E3FF2C4604E00A2080
:102DB000FFF7DEFF0134E4B2042C0AD80DF10F0056
:102DC00000F052F905460028F1D19DF80F30332B61
:102DD000EDD115BB9DF80F103C4B1970332921D153
:102DE000002000F0A0F9002867D10520FFF7C0FF00
:102DF000002000F0CFF9002861D100F0B4F90028DC
:102E00005FD1032000F078F900285CD15F238DF8B2
:102E1000073000248DF808401FE02D4800F0EEFA3E
:102E2000012003E02B4800F0F3FA022005B030BD8A
:102E30002146294800F0ECFA0A20FFF799FF0AE042
:102E400023469DF808209DF80710244800F0E0FA7A
:102E50000A20FFF78DFF0134E4B2042C19D80122B7
:102E60000DF10701202000F037F90028E0D1022001
:102E7000FFF77EFF012202A9202000F0E5F80028DC
:102E8000DED19DF808209DF807309A42D8D1012361
:102E900000E0002363B11420FFF76AFF062202A9B5
:102EA000292000F0D1F80E4B01221A700020BDE756
:102EB0000C4800F0A3FA0720B8E70320B6E7042087
:102EC000B4E70520B2E70620B0E700BF34200020B9
:102ED000488A0000748A0000A08A0000CC8A0000A2
:102EE0002C200020108B00002DE9F04184B000233D
:102EF0000293ADF80C308DF80730414B1B78002B56
:102F000076D000252E462F46A846032D40D8C8244B
:102F100001220DF10701272000F096F8002869D161
:102F20009DF8073013F0080F06D10120FFF720FFAE
:102F3000013CA4B2002CEBD19DF8071011F0080F52
:102F400021D0062202A9292000F07EF8002855D1C0
:102F50009DF808209DF8093043EA022308FA83F817
:102F60009DF80A209DF80B3043EA022307FA83F705
:102F70009DF80C209DF80D3043EA022306FA83F6F3
:102F80000135EDB2C1E71F4800F042FA062032E0F9
:102F9000C8EB481308EB83084346B8F1000F1BDB6E
:102FA00043F34F33184A1380C7EB471307EB8307EC
:102FB0003B46002F14DB43F34F33144A1380C6EB18
:102FC000461306EB83063346002E0DDB43F34F33E7
:102FD0000F4A138000200EE008F5FF531F33DFE790
:102FE00007F5FF531F33E6E706F5FF531F33EDE701
:102FF000012000E0052004B0BDE8F0810220FAE7DE
:103000002C200020308B00003220002030200020B7
:103010002E20002000B585B08DF80F20BDF81820B7
:103020000192009301230DF10F02D9400548007869
:1030300003F036F910B905B05DF804FB4FF0FF302E
:10304000F9E700BF8101002000B583B00B46012ADB
:1030500001D940F080000092024633210120FFF7A1
:10306000D9FF03B05DF804FB08B5014601220F202B
:10307000FFF7EAFF08BD000010B594B09E46BDF80A
:10308000584000238DF80F30631C402B1BD8490893
:103090008DF81020002207E0501C1EF802C05132AB
:1030A0006A4402F840CC82B2A242F5D301220192D6
:1030B0000DF10F02009204AA0648007803F0F0F820
:1030C00020B914B010BD4FF0FF30FAE74FF0FF30D9
:1030D000F7E700BF8101002000B583B00B46012A4D
:1030E00001D940F080000092024633210120FFF711
:1030F000C3FF03B05DF804FB10B582B004460122A3
:1031000001A91F20FFF7A0FF08B102B010BD9DF874
:10311000043064F387138DF80430012201A91F20C5
:10312000FFF7DAFFF1E710B582B00446012201A9EA
:103130002020FFF789FF0090009B13B1009802B098
:1031400010BD9DF8043043F008038DF80430DBB265
:1031500064F307138DF80430012201A92020FFF742
:10316000BBFF0090EAE710B582B00446012201A936
:103170002320FFF769FF08B102B010BD9DF80430AD
:1031800064F305138DF80430012201A92320FFF711
:10319000A3FFF1E710B582B00446012201A9232064
:1031A000FFF752FF08B102B010BD9DF8043064F380
:1031B000C7138DF80430012201A92320FFF78CFFEB
:1031C000F1E710B582B00446012201A92420FFF7DF
:1031D0003BFF08B102B010BD9DF8043064F3C71383
:1031E0008DF80430012201A92420FFF775FFF1E7D3
:1031F00010B504460A46002103F04AFF01230422C9
:103200000949022001F094F80123142221460220EA
:1032100001F0F0F80549204603F062FF08B10020F4
:1032200010BD4FF0FF30FBE7588B0000087F000017
:1032300008B500220C21104602F0E1F908BD08B5DE
:1032400001220C21002002F0DAF908BD08B5084877
:1032500000F0D4F8FFF7F3FF4FF4FA7000F0C4FA6F
:10326000FFF7E6FF40F6B83000F0BEFA08BD00BF39
:10327000608B000008B502220C21002002F058F9F2
:1032800000220C21104602F003F9FFF7D1FF40F6AF
:10329000B83000F0A9FA08BD30B591B00024092C6F
:1032A00014D80134E4B240216846FFF7A1FF054677
:1032B00028B10A222146094800F0AAF8EFE7012CBC
:1032C00009D92146064800F0A3F804E0054800F0BB
:1032D00095F84FF0FF35284611B030BDA48B0000A3
:1032E000808B0000D08B000010B5FFF7C3FF0024D7
:1032F000FFF7D2FF034668B1012C09D80134E4B2CC
:1033000002222146044800F083F8FFF79FFFEFE711
:103310004FF0FF33184610BDF08B000000B583B0AE
:103320008DF80700064B1B7813B903B05DF804FB5A
:1033300001231A460DF10701002000F0F9FFF4E720
:103340003520002010B586B0214B1C7814B12046E2
:1033500006B010BD03220F21022002F099F80028C8
:10336000F5D103220E21022002F092F80028EED1BE
:1033700000F0C8FE0028EAD101238DF80C300322AA
:103380008DF80D208DF80E3003A900F0E7FE00281F
:10339000DDD14FF4E133049303238DF8143004237B
:1033A0008DF815308DF816008DF8170004A900F07F
:1033B000E1FE0028CBD1009003460246014600F012
:1033C0002DFF0028C3D10124014B1C70BFE700BFB3
:1033D0003520002070B110B50446074B1B7823B987
:1033E00007E0C0B2FFF79AFF013494F9000000280B
:1033F000F7D110BD704700BF3520002008B5FFF79A
:10340000E9FF0248FFF7E6FF08BD00BFF8860000AD
:103410000FB430B5ABB02E9A12B1104B1B7823B954
:103420002BB0BDE8304004B070472FAB0193A02112
:1034300002A803F01FFE051EF2DD9F2D00DD9F2573
:10344000002408E004F1A8036B4413F9A00CC0B2F7
:10345000FFF764FF0134A542F4DCE1E735200020EA
:1034600082B00023019302E0019B01330193019A92
:10347000044B9A42F8D9044B01221A70002002B082
:10348000704700BF1FA107003E200020244B1B787F
:10349000002B3CD010B586B00C46002939D0022252
:1034A0008DF8042000238DF805308DF806308DF856
:1034B00009308DF808000A238DF80A3001A910465A
:1034C00003F024FB40BB022003F098FA30BB00233A
:1034D000009302E0009B01330093009A42F20F73C5
:1034E0009A42F7D900218DF8101004AA022003F0A7
:1034F000E9FA38B9BDF812302380022003F0B2FA9D
:10350000002007E0022003F0ADFA042002E00120D1
:103510007047012006B010BD0220FBE70320F9E749
:103520003E20002030B583B00023ADF80630134BA9
:103530001B78DBB105460C46D8B1E1B10DF10601AF
:103540001720FFF7A3FF90B9BDF806302B804BB1D1
:103550004FF47A12B2FBF3F2226009490B80094B57
:103560001A6004E000232360052000E0012003B07E
:1035700030BD0120FBE70120F9E700BF3E2000201D
:103580003C2000203820002010B44FF080439A6A7D
:1035900042F4FE429A621A6B42F4FE421A63D3F876
:1035A0009C2042F08062C3F89C20D3F8A02042F017
:1035B000042242F00A02C3F8A020364A1523C2F8BA
:1035C000F03F5123C2F8F03F002313614021116303
:1035D0009163D36353613049116030495160304980
:1035E0009160D3602F490B610B634FF630608863A5
:1035F000CB634B612C4808602C4848602C4888609D
:10360000CB6001F580714FF4007008610B638B6330
:10361000CB634B6127480860274848606FF44070CF
:1036200088602648C8602648036103638363C363D8
:1036300043614FF0FF31016041608160C36000F57C
:103640008070036103638363C3634361016041600E
:103650008160C36000F5807003610363802484632C
:10366000C36343616FF0E044046041606FF4404421
:103670008460C36000F58070036103638363C36388
:103680004361016041608160C360C2F8F03F10BCDB
:10369000704700BF00000141FFFF88889999F8FF3B
:1036A000FF0FFFFC00010141FFFF88998F88888888
:1036B000FFF00300BBBBF8FF8FBBFFFF8A02A8002F
:1036C0000003014108B5FFF75FFF00F00DF800F0BF
:1036D0009DFA00F043FB00F067FA00F0DDFA00F01D
:1036E00001F9002008BD000030B585B002258DF835
:1036F0000C5000248DF80D408DF80E401D4A6B468D
:1037000007CA03C31A700121284601F063FC012196
:10371000084601F05FFC0121204601F05BFC01211D
:10372000032001F057FC03A801F0F4FB69460120D7
:1037300001F082FC04238DF80C308DF80D408DF8DB
:103740000E4003A801F0E6FB204601F0F5FC2246FE
:103750000F21284601F0E2FC2146284601F03AFC00
:103760002146204601F036FC2146032001F032FCC0
:1037700005B030BDBC8E000008B5164B1B681BB1F0
:10378000144A1368013B1360FFF7CAF9FDF75EF9AD
:10379000114B1B7883B1114A138801339BB21380FC
:1037A000B3F57A7F08D3134600221A800C4A138897
:1037B0009BB201339BB213800A4A13680133136032
:1037C0000F2B00D808BD134600221A60FFF7B0FA8D
:1037D000F8E700BF48200020511D002044200020B1
:1037E000521D002040200020034B1860024B1B6834
:1037F000002BFBD1704700BF4820002008B50122F4
:1038000001F0FDFE08BD08B5002201F0F8FE08BD7C
:10381000F8B506460D46174600240EE02946304608
:10382000FFF7ECFF6420FFF7DFFF29463046FFF784
:10383000EAFF6420FFF7D8FF0134BC42EED3F8BDA5
:1038400008B500220421012001F022FE00220921F6
:10385000012001F01DFE00220721052001F018FEC5
:1038600000220521012001F013FE00220A2101207F
:1038700001F00EFE00220B21012001F009FE0022C2
:103880000C21012001F004FE00220D21012001F095
:10389000FFFD00220E21012001F0FAFD00220F2180
:1038A000012001F0F5FD00220921022001F0F0FDC8
:1038B00001220621104601F0EBFD012207211046EE
:1038C00001F0E6FD01220821002001F0E1FD0122C6
:1038D0000921002001F0DCFD00220C21104601F03E
:1038E000D7FD08BD2DE9F041AAB0694B1B68694AB4
:1038F000A2FB03239B09013BB3F1807F0AD24FF067
:10390000E0225361644BF02183F82310002393617C
:1039100007231361FFF794FFFDF7B8F8FFF712FDD7
:10392000002844D004210120FFF768FF5B48FFF71F
:1039300065FD5B48FFF762FD5A4C2046FFF75EFDD0
:103940005948FFF75BFD5948FFF758FD2046FFF740
:1039500055FD5748FFF752FDFDF74CF9FDF790F97B
:10396000014650BB4FF47A70FFF73EFF5148FFF716
:1039700045FD5148FFF742FD5048FFF73FFD5048D5
:10398000FFF73CFDFFF7B0FCD8B94E48FFF736FD16
:10399000FFF7D4F8FCF7AEFEB8B14FF416714A4801
:1039A000FCF7A2FDB0B14948FFF728FD12E005225F
:1039B00004210120FFF72CFFB8E74548FFF728FD59
:1039C000D0E74448FFF71AFDE2E74348FFF716FD4A
:1039D000FCF7ECFE4148FFF711FDFDF7E9FC00287C
:1039E0000CBF0127002705D13D48FFF707FD4FF029
:1039F000010831E03B48FFF701FDF8E70B2101200A
:103A0000FFF701FF0C210120FFF7FDFEFDF7D0FCC1
:103A100000280CBF0127002735D13046FDF706FDF1
:103A200031E00134E4B2AC4212D2A02302AA314602
:103A300004F1A8000DEB000C1CF8A40CFDF7FCFA37
:103A40000028EED0002FECD002A8FDF715FDE8E726
:103A50004FF4FA60FFF7C8FEFDF7B0F906460322FF
:103A600001A9FDF76BFA0546002FC7D01E48FFF7E6
:103A7000C5FC3046FDF7DAFC08F1010441461B485D
:103A8000FFF7C6FCA046002DE2D00024CBE700BF24
:103A900090010020D34D621000ED00E00C8C00007E
:103AA000148C0000388C00005C8C0000808C0000BE
:103AB000A48C0000307D0000F08C0000787D0000B8
:103AC000208D0000408D00009C1D00206C8D0000AA
:103AD000CC8C0000508D0000A08D0000C08D000037
:103AE000E48D00000C8E00002C8E0000448E00003F
:103AF00000B589B0002006908DF81C0002238DF8D7
:103B00001B30039004908DF8140001238DF81430BD
:103B100002F06EFE10B109B05DF804FB06A902F0D8
:103B200083FE0028F7D103A902F096FE0028F2D107
:103B3000032300930023034A1946184602F0D0FEDF
:103B4000E9E700BFB53B000000B589B0002306934C
:103B50008DF81C3002208DF81B00039304938DF820
:103B6000143001238DF80C308DF8143002F040FE33
:103B700010B109B05DF804FB06A9022002F054FE62
:103B80000028F6D103A9022002F066FE0028F0D139
:103B9000032300930023034A1946022002F0A0FEEB
:103BA000E7E700BFB73B000008B5FFF7A1FFFFF74D
:103BB000CBFF08BD7047704700B587B00023029364
:103BC0000393049305930F4B049301238DF8143052
:103BD0003223ADF81630022002F07AF810B107B0A7
:103BE0005DF804FB02A9022002F08AF80028F6D151
:103BF000032300930023044A1946022002F0CCF864
:103C0000EDE700BFA0860100153C000008B5FFF7F6
:103C1000D3FF08BD7047000000B589B01C4B93E886
:103C200003000690ADF81C10002003900490ADF83E
:103C3000140001238DF80F308DF81030ADF81230DC
:103C40004FF47A73ADF8143000F04AFE10B109B0A9
:103C50005DF804FB06A900F063FE0028F7D103A974
:103C600000F090FE0028F2D100900346094A01219D
:103C700000F0FEFE0028EAD10021084600F08CFF8B
:103C80000028E4D10021084600F097FFDFE700BFDD
:103C9000C88E0000A13C000008B5FFF7BDFF08BDBD
:103CA0007047000000B587B0134B53F8042BADF8F4
:103CB0001420120C8DF8162003AA93E8030082E862
:103CC0000300022000F01EFA10B107B05DF804FBFB
:103CD00005A9022000F042FA0028F6D103A902202B
:103CE00000F048FA0028F0D100230093034A012194
:103CF000022000F093FAE8E7D08E00006B3D000050
:103D000000B587B0134B53F8042BADF81420120CF8
:103D10008DF8162003AA93E8030082E8030001202F
:103D200000F0F0F910B107B05DF804FB05A901201F
:103D300000F014FA0028F6D103A9012000F01AFAC5
:103D40000028F0D100230093034A0121084600F027
:103D500065FAE8E7D08E0000693D000008B5FFF77E
:103D6000A1FFFFF7CDFF08BD70477047002807DBB4
:103D700000F01F02400901239340024A42F820301C
:103D8000704700BF00E100E000280CDB00F01F02DC
:103D90004009012393402030034A42F82030BFF30A
:103DA0004F8FBFF36F8F704700E100E0002808DB02
:103DB0000901C9B200F1604000F5614080F80013CC
:103DC000704700F00F000901C9B2014B1954704748
:103DD00014ED00E00C284CD800B5072828D94FF086
:103DE000804EDEF8282100F0070308334FF0010C65
:103DF0000CFA03FC22EA0C0201FA03F31343CEF897
:103E00002831072826D94FF0804CDCF8303100F0FB
:103E1000070008300122824023EA020301FA00F081
:103E20000343CCF8303139BB0020154B186024E037
:103E30004FF0804EDEF82C3000F108024FF0010CFC
:103E40000CFA02FC23EA0C0301FA02F21343CEF847
:103E50002C30D6E74FF0804CDCF8343008300122AB
:103E6000824023EA020301FA00F00343CCF8343025
:103E7000D9E76FF00100704700205DF804FB00BF38
:103E8000882200200C2808D8DFE800F0220A0C0E57
:103E900010121416181A1C1E20006FF01000704724
:103EA00040207047412070474220704743207047B0
:103EB000442070476C2070476D2070476E2070471B
:103EC0006F207047702070477120704772207047D4
:103ED0003F2070470C284FD8052947D8DFE801F06C
:103EE00003202830373E264B93FBF2F3254803602E
:103EF00000204FF08043D3F8A83023F0E06300297E
:103F000037D109060B434FF08041C1F8A830D1F8F2
:103F1000A83023F47F0343EA0242C1F8A820704787
:103F20004FF4004393FBF2F3164803600020E0E7F0
:103F3000154B1B68B3FBF2F3124803600020D8E76F
:103F4000124B93FBF2F30F4803600020D1E7104BB4
:103F500093FBF2F30B4803600020CAE70A4B1B688F
:103F6000B3FBF2F3074803600020C2E76FF00500DF
:103F7000BFE702310906C5E76FF00100704700BFD7
:103F800020A1070088220020900100200024F400D6
:103F900000093D0000F5800080300002704708B540
:103FA000FFF718FF08BD000070B582B00023009332
:103FB0000C2861D80446FFF7EDFF83680193019B4D
:103FC00003F00603062B21D0019B13F0040F55D1FB
:103FD000019B13F0020F03D1019B13F0100F3CD093
:103FE0003C4B2C2202FB043399691A6A914262D03D
:103FF000036823F0FF0337492C2505FB04110D69E5
:10400000561C0E62AA5C1343036026E0009B43F03B
:1040100004030093436913F0100F03D0009B43F097
:1040200008030093436913F0080F03D0009B43F08B
:1040300010030093436913F0040F03D0009B43F077
:1040400020030093436913F0020F03D0009B43F059
:10405000400300930368002343601E4B2C2202FBA5
:1040600004335B6843B1009A32B10098194A2C219D
:1040700001FB04229168984702B070BD0568154B9A
:104080002C2202FB043359695A6A561C5E628D5415
:10409000DA695B6A9A42E0D1436823F00103436026
:1040A0000C4B2C2202FB043300225A73009B43F07A
:1040B00002030093D1E7074B2C2202FB04330022BA
:1040C0001A73436823F002034360009B43F001032B
:1040D0000093C2E74C20002010B5002400E001341A
:1040E0000C2C0BDC064B2C2202FB043393F82830FB
:1040F000002BF4D0E0B2FFF757FFF0E710BD00BF90
:104100004C20002038B50C2822D804460121FFF7A6
:1041100046FF0546D0B92046FFF73CFF03462C2258
:104120000D4802FB040000E01A685A6912F0010F02
:10413000FAD15A6912F0200FFBD000215960D960E2
:1041400019615A699B682C2202F0A2FF284638BDEB
:104150006FF00105FAE700BF4C2000200C2805D8BD
:1041600008B58A784978FFF7B5FE08BD6FF0010001
:10417000704700000C2843D810B50C46FFF70AFF23
:104180002279032A3FD8C36823F003031343C36093
:104190006379042B3AD80AD0C36843F00803C3609C
:1041A000C36823F01003627943EA0213C360A27963
:1041B000012A2ED8C36823F0040343EA8203C360B4
:1041C000E279436823F0040343EA82034360124B1D
:1041D0001B6822681201B3FBF2F102FB11331B02D0
:1041E000B3FBF2F3026A6FF30F0289B20A43026271
:1041F000426A22F0FF02DBB213434362002010BD8B
:104200006FF0010070476FF00500F8E76FF00500F0
:10421000F5E76FF00500F2E7882200200C287ED831
:104220002DE9F04104460E4690461F46FFF72AFE50
:104230000546012E1BD073B2002B4DD0F31EDBB20E
:10424000012B49D801233A46364902F093F930B997
:10425000354B2C2202FB0433C3F804809F60324BA1
:104260002C2202FB0433012283F8282020E02E4B6D
:104270002C2202FB043393F8283003BB2A4B2C2258
:1042800002FB0433C3F804809F60002D08DB05F0B7
:104290001F016B0901228A406033244941F8232021
:1042A00006992846FFF782FD2846FFF75FFD0020AC
:1042B0002C2303FB04F41C4B1E55BDE8F0810023A6
:1042C0001A46194602F056F9174B2C2202FB04330A
:1042D000002283F82820D1E700231A4619462846F1
:1042E00002F048F9104B2C2202FB0433002283F821
:1042F0002820954208DB05F01F016B0901228A4046
:1043000060330A4941F823202846FFF73DFD064B5C
:104310002C2202FB0433002058609860C8E76FF03D
:1043200001007047D94000004C20002000E100E06F
:104330000C2856D82DE9F84304460F469046994676
:10434000FFF728FE2A4B2C2202FB04331B7B012B98
:104350004AD0274B154604FB05F55E19012232733E
:104360003761C6F81880002232625B5D4BB3B9F149
:10437000000F26D1436913F0200F0BD0036823F000
:10438000FF031B4A2C2101FB0422012111623A7810
:1043900013430360436843F00203436000201EE0C0
:1043A000036823F0FF03124A2C2505FB042215693C
:1043B0004E1C16626A5C13430360436913F0200FBE
:1043C000FBD00B4B2C2202FB04339A69196A8A42F8
:1043D000E6D8074B2C2202FB043300201873BDE8FB
:1043E000F8836FF0010070476FF00200F7E700BF3D
:1043F0004C2000202DE9F8430C2879D80546884642
:1044000017469946FFF7C6FD04463C4B2C2202FB9B
:1044100005335B7B022B6ED0384B104605FB00F05A
:104420001E1802227273C6F81480F76100227262AD
:104430001F5C17B1B9F1000F53D02846FFF722FDDA
:104440000646002F33D0FFF79FFC30E0013B626946
:1044500012F0010F15D1002BF8D1284B2C2202FBB2
:10446000053300225A736FF00304244B2C2202FB05
:1044700005F55A19002151735B5D73BB2046BDE8F9
:10448000F883002BE9D0606963699B08626943EA9D
:10449000D00343EA520313F0010F13D12068174BE6
:1044A0002C2202FB05335A694F1C5F625054134B98
:1044B0002C2202FB0533DA69596A8A420BD942F28F
:1044C0001073C4E70D4B2C2202FB053300225A73F4
:1044D0006FF00804C9E70024C7E73046FFF746FC41
:1044E000CCE72368636843F0010363600024C5E7F9
:1044F0006FF00104C2E76FF00204BFE74C20002018
:104500000C2813D810B50446FFF744FDC36843F0E8
:104510004003C360C36823F04003C360054B2C22F3
:1045200002FB043300201873587310BD6FF00100B4
:10453000704700BF4C2000200C280ED810B50C4648
:10454000FFF728FD436913F4807F02D0002020701C
:1045500010BD012323700020FAE76FF001007047BF
:104560000C2809D810B50C46FFF714FD436903F079
:104570007F032370002010BD6FF00100704708B565
:104580000020FFF711FD08BD08B50120FFF70CFD65
:1045900008BD08B50220FFF707FD08BD08B50320D8
:1045A000FFF702FD08BD08B50420FFF7FDFC08BDBC
:1045B00008B50520FFF7F8FC08BD08B50620FFF791
:1045C000F3FC08BD08B50720FFF7EEFC08BD08B5F1
:1045D0000820FFF7E9FC08BD08B50920FFF7E4FC57
:1045E00008BD08B50A20FFF7DFFC08BD08B50B20A1
:1045F000FFF7DAFC08BD08B50C20FFF7D5FC08BDB5
:10460000002807DB00F01F02400901239340024A03
:1046100042F82030704700BF00E100E000280CDBCA
:1046200000F01F024009012393402030034A42F862
:104630002030BFF34F8FBFF36F8F704700E100E072
:10464000002808DB0901C9B200F1604000F56140B3
:1046500080F80013704700F00F000901C9B2014B48
:104660001954704714ED00E0092813D84FF0804228
:10467000936A10304FF0010C0CFA00FC23EA0C0393
:1046800081400B439362136B23EA0C0319431163BC
:10469000002070476FF001007047092806D8DFE856
:1046A00000F01A080A0C0E10121416186FF0100001
:1046B0007047102070471120704712207047132058
:1046C0007047142070471520704716207047172038
:1046D0007047182070470F207047032809D8DFE87B
:1046E00000F00206040A00207047022070470320F1
:1046F000704704207047012070470246806910F01F
:10470000040000D00220936913F0020F01D040F0A2
:104710000400936913F0010F01D040F008007047C6
:1047200010B40C6824F0700444F040040C60052AB6
:104730003AD8DFE802F00A0A07050309062204E076
:10474000052202E0042200E007224FF08041D1F868
:10475000981004281ED96FF0E064214004281CD969
:104760001824A2400A434FF08041C1F89820D1F8A4
:104770009820042813D96FF47F010A40042811D926
:1047800010218B4013434FF08042C2F89830002034
:1047900010BC70476FF4E064DFE70824E1E76FF0D6
:1047A000FF01EAE70021ECE76FF00500F0E7032ADC
:1047B00003D8DFE802F00606060600226FF00500C7
:1047C00000E000200B6823F0700343EA02130B6043
:1047D000704700F18070C0308001704708B5FFF766
:1047E00043FF08BD38B50546FFF7F3FF0446FFF762
:1047F00084FF034610F0030017D02E4A02EB051287
:10480000127B032A03D8DFE802F00F0D0F0400200B
:104810000BE0284A02EB0512527B12F0020F11D175
:10482000002002E0082000E0012013F0040F1BD05C
:10483000204A02EB0512127B032A15D8DFE802F0AA
:10484000041104070220F0E740F001000DE0194ACE
:1048500002EB0512527B12F0020F05D040F004006B
:1048600003E040F0100000E078B1A26942F00402D9
:10487000A261A26942F00202A261A26942F00402AE
:10488000A261A26942F00202A26113F0080F05D0F2
:1048900040F02000A36943F00103A361054B03EB43
:1048A00005135B682BB120B1024A02EB0512916837
:1048B000984738BD8C22002010B5002400E0013458
:1048C000092C09DC054B03EB04139B7B002BF6D072
:1048D000E0B2FFF787FFF2E710BD00BF8C22002097
:1048E00038B5092816D804460121FFF777FF054699
:1048F00008B1284638BD2046FFF76BFF2101074A63
:1049000002EB0414002353506360A360E360036070
:104910004360EEE76FF00105EBE700BF8C2200205B
:10492000092829D870B505460C468B88B3F5806FE9
:1049300025D2FFF74EFF06462378012B0CD0022B21
:1049400010D0B3B9A378627801462846FFF7E8FE95
:104950000020A388B36070BD036843F07003036058
:104960000020F6E7627801462846FFF720FF002086
:10497000EFE76FF00500ECE76FF0010070476FF0B4
:104980000500E8E7092868D8F8B506460D460F780F
:10499000032F65D8FFF71DFF04463846FFF79DFE3D
:1049A000236823F00303C0B2184320606A782368A9
:1049B00023F0800343EAC2132360EB7873B12B78B2
:1049C000032B50D8DFE803F0022F0222E36943F003
:1049D0000403E361E36943F00203E3612A78234BB4
:1049E00003EB06131A732B791BB1E36943F0010340
:1049F000E3612B78032B26D0EB88E3602B892361BE
:104A0000636843F0020363600020F8BDE36943F08C
:104A10000403E361E36943F00203E361236843F4C1
:104A200000632360DAE7E36943F00403E361E369C9
:104A300043F00203E361236823F00C03AA7843EAFE
:104A400082032360CAE7EB88E3602B892361074B6D
:104A500003EB061306225A73D2E76FF0010070478A
:104A60006FF00500D1E76FF00500CEE78C22002043
:104A700009286BD82DE9F04104460E4690461F46A2
:104A8000FFF70BFE0546012E20D0022E4CD000234E
:104A90001A46194601F06EFD2E4B03EB041300225B
:104AA0009A73954208DB05F01F016B0901228A40C9
:104AB0006033294941F823202846FFF7AFFD254BF5
:104AC00003EB04130020986058601DE0214B03EBBA
:104AD00004139B7BEBB91F4B03EB0413C3F8048057
:104AE0009F60002D08DB05F01F016B0901228A4041
:104AF0006033194941F8232006992846FFF7A0FDA5
:104B00002846FFF77DFD00202401124B1E55BDE80D
:104B1000F08100231A46194601F02CFD0D4B03EBE2
:104B2000041300229A73D6E701233A460B4901F099
:104B300021FD28B9074B03EB0413C3F804809F60E1
:104B4000044B03EB041301229A73DDE76FF00100BD
:104B5000704700BF8C22002000E100E0B94800004F
:104B6000092808D808B5FFF734FE436843F001036D
:104B70004360002008BD6FF001007047092808D885
:104B800008B5FFF726FE436823F0010343600020C9
:104B900008BD6FF00100704709280BD810B50C460E
:104BA000FFF717FE036823F4006343EAC42303609E
:104BB000002010BD6FF00100704709280BD810B518
:104BC0000C46FFF706FE036823F4805343EA0433E0
:104BD0000360002010BD6FF00100704708B5002091
:104BE000FFF700FE08BD08B50120FFF7FBFD08BD7B
:104BF00008B50220FFF7F6FD08BD08B50320FFF752
:104C0000F1FD08BD08B50420FFF7ECFD08BD08B5AF
:104C10000520FFF7E7FD08BD08B50620FFF7E2FD18
:104C200008BD08B50720FFF7DDFD08BD08B5082061
:104C3000FFF7D8FD08BD08B50920FFF7D3FD08BD73
:104C4000104B98420DD9104B984213D90F4B9842F4
:104C500012D90F4B984211D90E4B984210D804210B
:104C600000E000214FF08242136823F00F030B4352
:104C7000136070470121F5E70221F3E70321F1E713
:104C80000521EFE7408AF7018014EF0300E1F50505
:104C9000406BED0780F5E40904285FD8DFE800F0F9
:104CA0002533414F03004FF0070C00204FF08043A5
:104CB000596C21F0706141EA02625A64596CC1F387
:104CC0000241294A1268CA4028490A604FF08241CD
:104CD0000A6822F00F0242F005020A605A6C22F0C4
:104CE000070242EA0C025A6470474FF080410B6C95
:104CF00043F002030B641E4B13411B490B604FF042
:104D0000060C0020D2E74FF080410B6C43F0080303
:104D10000B64184B134114490B604FF0020C002038
:104D2000C4E74FF080410B6C43F020030B64124B3F
:104D300013410D490B604FF0000C6046B6E74FF091
:104D400080410B6C43F080030B644FF4004313412C
:104D500005490B604FF0010C0020A7E74FF0000C55
:104D60006FF00500A2E700BF900100208C01002039
:104D700000093D000024F40020A107000F292ED8CF
:104D80004FF08042136D23F00F0301F00F010B432E
:104D9000136507281CD8DFE800F015121F07181B41
:104DA0001B040421002001E0012100204FF080427B
:104DB000136D23F0E00343EA4113136570470521A7
:104DC0000020F3E706210020F0E707210020EDE7AF
:104DD00000216FF00500E9E700210846E6E76FF0E3
:104DE000050070474FF0804CDCF8443023F44073EA
:104DF00043EA0123CCF84430032925D8DFE801F049
:104E000002141216012398B1012820D14FF08040DE
:104E1000016C41F0020101640E49B1FBF3F3136030
:104E2000002070470423EEE70223ECE70823EAE7BB
:104E30004FF08040016C41F0080101640649B1FB6C
:104E4000F3F31360002070476FF0050070476FF0B8
:104E50000500704700093D000024F40082B00C4BAF
:104E60001B680C4AA2FB0312920C0B498B4200D820
:104E7000012200FB02F20023019303E000BF019B2B
:104E800001330193019B9342F8D302B0704700BFF6
:104E90009001002083DE1B433F420F0010B5034604
:104EA00001280FD002281AD030BB4FF08042906CFE
:104EB00010F0200021D01146926C42F020028A644A
:104EC00001201AE04FF08042906C10F0020014D0E4
:104ED0001146926C42F002028A6402200DE04FF00B
:104EE0008042906C10F4007007D01146926C42F42E
:104EF00000728A64042000E0002003EB43020449AE
:104F000051F822401CB101EB82035968A04710BD43
:104F10002C23002038B50378042B43D0002B46D037
:104F200000214FF08042536C23F4805343EA013355
:104F30005364827841780078FFF7AEFE054678BB6F
:104F40001C4B1C68E30E6101091B63F100039B000D
:104F500043EA91738900091943F100034FEAC30C36
:104F6000154A0023C8004CEA517101F079FE134B39
:104F7000A3FB00308008124B1860124BA3FB0423E4
:104F8000DB0C114A1360114B9C4202D813460122DC
:104F90001A60C82001F056FE064B1868FFF750FE55
:104FA000284638BD0A4B1A68024B1A60C1E7012136
:104FB000B7E700BF9001002040420F00ABAAAAAAA9
:104FC00088010020819F5E16840100207F8D5B0098
:104FD0005023002003282BD8DFE800F0020C162015
:104FE0004FF08042136C23F0020343EA4103136441
:104FF000002070474FF08042136C23F0080343EA0F
:10500000C1031364002070474FF08042136C23F0FB
:10501000200343EA41131364002070474FF080429D
:10502000136C23F0800343EAC1131364002070471C
:105030006FF005007047000030B583B00023019386
:1050400048B94FF08042136E23F4800313660025A5
:10505000284603B030BD0C4605464FF08042136E23
:1050600043F4800313660220FFF7F8FE2378012B38
:1050700000D000254FF08042536C23F4805343EA64
:105080000533536401AA61782078FFF7ABFE05462B
:105090000028DDD1A37803F00F0343F48003E27806
:1050A00043EA02236279120402F47022134343F4A8
:1050B0000013A279920602F040621343E2791206CD
:1050C00002F0407213434FF0804213664FF4FA70BF
:1050D000FFF7C4FE0F4B1B684FF4FA7202FB03F399
:1050E0004FF08042126E002A04DB0BB1013BF7E760
:1050F0006FF00305002DABD16279A378013302FB79
:105100000332019BB3FBF2F3E27802FB0333024A62
:1051100013609DE7840100205023002010B5144641
:10512000FFF72CFE38B94FF080410B6D23F01003D0
:1051300043EA04130B6510BD04280ED84FF08042DB
:10514000536C23F4E02343EA00435364044B1B688D
:10515000C340044A1360002070476FF00500704799
:10516000900100208C01002008B50020FFF796FE7A
:1051700008BD08B50120FFF791FE08BD08B5022063
:10518000FFF78CFE08BD0000002807DB00F01F02BF
:10519000400901239340024A42F82030704700BF83
:1051A00000E100E000280CDB00F01F0240090123B1
:1051B00093402030034A42F82030BFF34F8FBFF3B3
:1051C0006F8F704700E100E0002808DB0901C9B2D9
:1051D00000F1604000F5614080F80013704700F076
:1051E0000F000901C9B2014B1954704714ED00E0DA
:1051F000062805D8DFE800F01307090B0D0F110092
:105200006FF0100070472520704726207047272038
:10521000704728207047292070472A207047242093
:10522000704703281CD8022839D2012853D84FF0E0
:105230008043D3F89C3023F0E06301292DD902315B
:1052400009060B434FF08041C1F89C30D1F89C30E7
:1052500023F47F0343EA0243C1F89C3000207047E7
:105260000438C0B2022839D84FF08043D3F8A030B8
:1052700023F0E06301292CD9023109060B434FF0DA
:105280008041C1F8A030D1F8A03023F47F0343EA75
:105290000243C1F8A030002070470906D1E74FF063
:1052A0008043D3F8A03023F4E06301290FD9023101
:1052B00009020B434FF08041C1F8A030D1F8A03073
:1052C00023F0FF031343C1F8A03000207047090208
:1052D000EFE70906D2E76FF0050070476FF00500B1
:1052E0007047000030B400F5820000F580700002C5
:1052F000154CD4F8F05F25F0FF0545F01505C4F80E
:10530000F05FD4F8F05F25F0FF0545F05105C4F8D3
:10531000F05F856A49004FF0030C0CFA01FC25EAA6
:105320000C058B401D438562036A23EA0C038A4007
:1053300013430362D4F8F03F23F0FF03C4F8F03FB7
:10534000002030BC704700BF00000141062801D892
:10535000002070476FF005007047000010B58446CC
:105360001046114BD3F8F04F24F0FF0444F015041D
:10537000C3F8F04FD3F8F04F24F0FF0444F0510489
:10538000C3F8F04F4A62D3F8F02F22F0FF02C3F8BF
:10539000F02F064B03EB0C135A6822B1034B03EBBF
:1053A0000C139968904710BD000001415423002060
:1053B00010B5002400E00134062C12DC094B03EB8D
:1053C00004131B7B002BF6D0E1B2090201F18241EC
:1053D00001F580314A6A002AEDD0E0B2FFF7BEFF46
:1053E000E9E710BD5423002008B5044B5A6A02B9FE
:1053F00008BD19460020FFF7B1FFF9E700000141A1
:1054000008B5044B5A6A02B908BD19460120FFF7D6
:10541000A5FFF9E70001014108B5044B5A6A02B93A
:1054200008BD19460220FFF799FFF9E70002014184
:1054300008B5044B5A6A02B908BD19460320FFF7A4
:105440008DFFF9E70003014108B5044B5A6A02B920
:1054500008BD19460420FFF781FFF9E70004014168
:1054600008B5044B5A6A02B908BD19460520FFF772
:1054700075FFF9E70005014108B5044B5A6A02B906
:1054800008BD19460620FFF769FFF9E7000601414C
:1054900070B504460D461646FFF758FF002841D167
:1054A000014604F5820303F580731B021F48D0F800
:1054B000F02F22F0FF0242F01502C0F8F02FD0F8D2
:1054C000F02F22F0FF0242F05102C0F8F02F072D1A
:1054D00017D81A68AD000F20A84022EA0002042E57
:1054E0000DD846F00806AE4032431A600F4AD2F893
:1054F000F03F23F0FF03C2F8F03F084670BD0F26CF
:10550000F1E75A68083DAD000F20A84022EA0002EA
:10551000042E05D846F00806AE4032435A60E5E74F
:105520000F26F9E76FF00101E7E700BF0000014136
:1055300070B504460E461546FFF708FF002842D115
:1055400004F5820303F580731B022049D1F8F02F84
:1055500022F0FF0242F01502C1F8F02FD1F8F02F2F
:1055600022F0FF0242F05102C1F8F02F012D21D0AC
:1055700010D83DB99A6876000321B14022EA0102B1
:105580000A439A60114AD2F8F03F23F0FF03C2F8B1
:10559000F03F70BDAA1ED2B2012AF3D89A687600F5
:1055A0000321B14022EA010205F00105B5402A437A
:1055B0009A60E7E79A6876000321B14022EA010287
:1055C0000A439A60DEE76FF00100E2E70000014164
:1055D00070B504460D461646FFF7B8FE60B904F5EF
:1055E000820303F580731B025B6B0122AA40134008
:1055F00023FA05F1317070BD6FF00100FBE770B563
:1056000004460E461546FFF7A1FEA8B904F582032D
:1056100003F580731B023DB99A6B0121B14022EA68
:1056200001020A439A6370BDDA6B0121B14022EA9C
:1056300001020A43DA63F6E76FF00100F3E7F0B521
:1056400083B007460C4615461E46FFF77FFE50B94D
:105650009DF82030009333462A4621463846FFF70E
:1056600041FE03B0F0BD6FF00100FAE770B50446EB
:105670000E461546FFF76AFE20BB04F5820303F5CC
:1056800080731B02114CD4F8F02F22F0FF0242F07D
:105690001502C4F8F02FD4F8F02F22F0FF0242F0E8
:1056A0005102C4F8F02F1A690121B14022EA010227
:1056B000B5402A431A61D4F8F03F23F0FF03C4F841
:1056C000F03F70BD6FF00100FBE700BF000001413B
:1056D00038B505460C46FFF739FE28B962782178BF
:1056E0002846FFF79EFD38BD6FF00100FBE7000084
:1056F00070B5044606783046FFF77AFD05466378B4
:10570000012B20D0022B4DD000231A46194600F061
:1057100031FF2E4B03EB061300221A73954208DB70
:1057200005F01F016B0901228A406033284941F8C6
:1057300023202846FFF736FD244B03EB06130020F9
:10574000986058601EE0214B03EB06131B7BF3B9F6
:1057500062681E4B03EB06135A60A2689A60002D24
:1057600008DB05F01F016B0901228A4060331849EC
:1057700041F82320E1682846FFF726FD2846FFF779
:1057800003FD002061783301104AD15470BD00231D
:105790001A46194600F0EEFE0C4B03EB06130022EE
:1057A0001A73D5E70123A2680A4900F0E3FE30B975
:1057B0006268064B03EB06135A60A2689A60034BBB
:1057C00003EB061301221A73DCE700BF5423002009
:1057D00000E100E0B153000008B5FFF705FE08BD89
:1057E00008B5FFF70DFE08BD08B5FFF715FE08BDAB
:1057F00008B5FFF71DFE08BD08B5FFF725FE08BD7B
:1058000008B5FFF72DFE08BD08B5FFF735FE08BD4A
:10581000002807DB00F01F02400901239340024AE1
:1058200042F82030704700BF00E100E000280CDBA8
:1058300000F01F024009012393402030034A42F840
:105840002030BFF34F8FBFF36F8F704700E100E050
:10585000002808DB0901C9B200F1604000F5614091
:1058600080F80013704700F00F000901C9B2014B26
:105870001954704714ED00E0032813D84FF080420C
:10588000D36A04304FF0010C0CFA00FC23EA0C033D
:1058900081400B43D362536B23EA0C0319435163DA
:1058A000002070476FF001007047032803D8DFE83D
:1058B00000F00B0507096FF0100070473D2070479E
:1058C0003E207047642070473C20704700F5800000
:1058D000A0300002704708B5FFF7CEFF08BD0000FA
:1058E000064B426912F0800F02D11BB1013BF8E771
:1058F000806870474FF0FF30704700BF80841E0003
:10590000436943F002034361064B426912F0800F82
:1059100002D10BB1013BF8E7436923F00203436175
:10592000704700BF80841E00094B1B680D2B0ED8EA
:1059300010B4090241EA0262C0B205490B685C1C5E
:105940000C600243034941F8232010BC70477047A4
:10595000C4230020C823002070B582B00023009328
:10596000032800F28F810446FFF7B0FF05468368E5
:105970000193019B472B3CD8152B38D3153B322B79
:1059800000F25D81DFE813F0DC005B0173005B0176
:105990005B015B015B015B015B015B015B01FE0085
:1059A0005B0155005B015B015B015B015B015B011E
:1059B0005B015B015B015B015B015B015B015B0107
:1059C0005B015B015B015B015B015B015B015B01F7
:1059D0005B015B015B015B015B015B015B015B01E7
:1059E0005B015B015B011C011C01A700A7000023F8
:1059F00026E1972B00F24881852B18D3853B122B8B
:105A000000F21B81DFE813F08100FC004D0019015A
:105A100019011901190119011901190119011901B6
:105A20001901190119011901AD00190167000023BD
:105A300006E19B4B2C2202FB04331A6A9B699A42B3
:105A4000C0F02481964B2C2202FB04335B7B002B9D
:105A500000F0F680009B43F001030093904A2C2352
:105A600003FB04220023136293615373E8E08C4B21
:105A70002C2202FB04331B7B002B40F0CE80884B92
:105A800002FB04331A6A9B699A42C0F0C6804369DC
:105A900043F002034361436923F008034361002399
:105AA000CEE07F4B2C2202FB04331B7B002B40F00B
:105AB000B4807B4B02FB04331A6A9B699A42C0F0A4
:105AC000AC806B6943F002036B616B6923F00803E0
:105AD0006B610023B4E0724B2C2202FB04331B7B6E
