:10000000000004208D830000D97D0000878300005C
:1000100089830000898300008983000000000000BC
:1000200000000000000000000000000089830000C4
:100030008983000000000000898300001926000069
:1000400089830000716F00007B6F0000856F0000E6
:100050008983000089830000898300008983000070
:100060008983000089830000898300008983000060
:10007000898300008983000089830000E369000010
:10008000ED690000F7690000016A00000B6A0000DA
:10009000156A00001F6A0000296A0000336A000028
:1000A0003D6A000089830000898300008983000085
:1000B0008983000089830000898300008983000010
:1000C0008983000089830000898300008983000000
:1000D000477200004F720000577200005F7200000C
:1000E000677200006F720000777200008983000061
:1000F00089830000898300008983000089830000D0
:1001000089830000898300008983000089830000BF
:1001100089830000898300008983000089830000AF
:10012000898300008983000089830000898300009F
:10013000E97C0000F37C0000FD7C00000B63000004
:10014000156300001F630000296300003363000093
:100150003D630000898300008983000089830000DB
:100160008983000089830000698300007383000095
:100170007D8300008983000089830000898300005B
:10018000898300008983000089830000898300003F
:10019000898300008983000089830000898300002F
:1001A000898300008983000089830000898300001F
:1001B000898300008983000089830000898300000F
:1001C00089830000898300008983000089830000FF
:1001D000077D000089830000898300008983000077
:1001E00089830000898300008983000089830000DF
:1001F00047630000516300005B630000656300001B
:100200006F6300007963000083630000898300004E
:1002100089830000898300008983000089830000AE
:10022000898300008983000089830000898300009E
:1002300089830000000000000000000000000000B2
:1002400000000000000000000000000000000000AE
:10025000000000000000000000000000000000009E
:10026000000000000000000000000000000000008E
:10027000000000000000000000000000000000007E
:10028000000000000000000000000000000000006E
:10029000000000000000000000000000000000005E
:1002A000000000000000000000000000000000004E
:1002B000000000000000000000000000000000003E
:1002C000000000000000000000000000000000002E
:1002D000000000000000000000000000000000001E
:1002E000000000000000000000000000000000000E
:1002F00000000000000000000000000000000000FE
:1003000000000000000000000000000000000000ED
:1003100000000000000000000000000000000000DD
:1003200000000000000000000000000000000000CD
:1003300000000000000000000000000000000000BD
:1003400000000000000000000000000000000000AD
:10035000000000000000000000000000000000009D
:10036000000000000000000000000000000000008D
:10037000000000000000000000000000000000007D
:10038000000000000000000000000000000000006D
:10039000000000000000000000000000000000005D
:1003A000000000000000000000000000000000004D
:1003B000000000000000000000000000000000003D
:1003C0000348044B834202D0034B03B118477047E4
:1003D0006801002068010020000000000548064B6D
:1003E0001B1AD90F01EBA301491002D0034B03B133
:1003F00018477047680100206801002000000000D5
:1004000010B5064C237843B9FFF7DAFF044B13B15C
:100410000448AFF300800123237010BD6801002061
:100420000000000058B6000008B5054B1BB1054997
:100430000548AFF30080BDE80840FFF7CFBF00BF1D
:10044000000000006C01002058B60000A3F5803ABF
:10045000704700BF174B002B08BF134B9D46FFF79B
:10046000F5FF00218B460F461348144A121A08F074
:1004700015FA0E4B002B00D098470D4B002B00D0E7
:1004800098470020002104000D000D48002802D0EC
:100490000C48AFF3008008F051FA2000290005F065
:1004A0008DF908F05BF900BF0000080000000000B3
:1004B0000000000000000420680100202C730020D0
:1004C000000000000000000010B501F07BFA0228D7
:1004D00004D001F03BFA20B9002010BD01F064FA0D
:1004E000F7E702F0D9F8044601E001F05DF802F008
:1004F000D3F8001BB0F57A7FF7D301F055FA01F07D
:10050000B9F9EAE770B586B004460D460021ADF8AA
:100510000A10ADF80810ADF80610242208F0BEF954
:10052000211D204600F090FE68B10123237203A82C
:1005300002F082F968B19DF8143053B1012323749D
:10054000049BE36006E0002DF1D01B4802F0E6F9C1
:10055000EDE7E5B90DF1060202A90DF10A0001F07F
:10056000DBFEC0B101232376BDF80A306382BDF8FB
:100570000830A382BDF80630E382FFF7A5FF0646E8
:1005800078B1012384F82030E66106B070BD0B48D5
:1005900002F0C4F9DEE7002DEFD0094802F0BEF901
:1005A000EBE701F015FA0028EBD1002DEDD005485E
:1005B00002F0B4F9E9E700BF0493000018930000CB
:1005C0002C9300004093000008B50A4802F0A6F9F9
:1005D000094802F0A3F9094802F0A0F901F0D4FE9D
:1005E000782001F018FF01F0FBFE054802F096F9B3
:1005F00008BD00BF5893000084930000A093000042
:10060000CC93000038B5334802F088F9324802F044
:1006100085F9324802F082F9314802F07FF900F0A2
:1006200009FE002839D02F4802F078F9002401256E
:100630002D4802F073F902F0EDF8002833D02B4872
:1006400002F06CF9691CCDB2294802F067F901F09B
:1006500059FE70B3274802F061F9691CCDB22648F3
:1006600002F05CF901F066F948B3244802F056F94B
:10067000691CCDB2224802F051F92B19DBB2224697
:100680002946204802F054F9FCB91F4802F046F907
:10069000124802F043F9204638BD1C4802F03EF9EA
:1006A00001240025C4E71A4802F038F90134E4B205
:1006B000CAE7184802F032F90134E4B2CFE716482D
:1006C00002F02CF90134E4B2D4E72146134802F0D9
:1006D0002FF9DDE758930000E8930000A093000095
:1006E0000C94000034940000609400007C9400009E
:1006F000AC940000D094000000950000209500000C
:100700005895000084950000A895000044940000CE
:1007100090940000E494000038950000C495000017
:1007200010B5034C00212046FFF7ECFE204610BD1B
:100730008801002000285AD02DE9F0438BB00D46E7
:1007400014460146002D54D0002A54D002682B488C
:1007500080FB0230D317C3EBA013002A3BDB4FF41E
:100760007A7606FB132C4A68244E86FB0270D71754
:10077000C7EBA0174FF47A7808FB172EC868A6FBC2
:100780000026B20908FB1200B1F91260B1F9148019
:10079000B1F91690C9690891CDF81C90CDF8188070
:1007A0000596049003921649A1FB0E02D20802920C
:1007B0000197A1FB0C12D2080092124A214628464A
:1007C00007F0DEFF002801DB844200DC601E80B2FF
:1007D0000BB0BDE8F0835242084E86FB0206D017EC
:1007E000C0EBA6104FF47A7606FB102CBBE7002076
:1007F00070470020ECE71046EAE700BFD34D6210D7
:10080000CDCCCCCCE495000000286ED00346002966
:100810006DD0002A6DD010B4007A68B11C6847F220
:100820003050844235DD3448007800283BD1012027
:10083000314C207000240C701C7EACB1B3F9164012
:10084000B4F52F7F31DC2D4C24786CB92B4C4FF054
:10085000010C84F800C0904206D200EB0C044FF06B
:10086000020C01F800C0E0B293F820407CB1DB69D3
:10087000B3F5FA6F2BD9224B1B7843B9204B0124D7
:100880001C70904203D2031904220A54D8B210BC3F
:100890007047194800780028CED01748002404700B
:1008A00001200870C8E70020C6E7144C2478002C0B
:1008B000DAD0124C4FF0000C84F800C09042D3D232
:1008C000441C4FF0030C01F800C0E0B2CCE70C4B25
:1008D0001B78002BDBD00A4B00241C709042D6D230
:1008E000431C05220A54D8B2D1E7002070470020EB
:1008F00070471046704700BF860100208501002028
:1009000084010020002975D010B582B084461046BD
:100910001C46002A70D0002C70D0BCF1050F70D896
:10092000DFE80CF0032B4E555C620A68384981FB06
:100930000231D317C3EBA113002A12DB4FF47A7CE8
:100940000CFB13223349A1FB0212D2080092324A57
:10095000214607F015FF002855DB844255DD80B2A3
:100960004DE052422A4981FB021CD117C1EBAC1168
:100970004FF47A7C0CFB1122E4E70A68244981FBDE
:100980000231D317C3EBA113002A0DDB4FF47A7C9D
:100990000CFB13221F49A1FB0212D20800921F4A2E
:1009A000214607F0EDFED6E75242194981FB021CB1
:1009B000D117C1EBAC114FF47A7C0CFB1122E9E7A3
:1009C000B1F91630164A214607F0DAFEC3E7B1F94D
:1009D0001630144A214607F0D3FEBCE7CB69124A11
:1009E000214607F0CDFEB6E7CB69104A214607F055
:1009F000C7FEB0E700207047002000E0204602B0AC
:100A000010BD0020FBE70020F9E70020F7E700BF5A
:100A1000D34D6210CDCCCCCC40960000A8960000FF
:100A20001097000070970000C897000028980000F9
:100A300010B50B4801F072FF0A4801F06FFF0A4C35
:100A4000204601F06BFF094801F068FF084801F0FB
:100A500065FF204601F062FF064801F05FFF10BD10
:100A60008898000090980000B4980000D898000082
:100A7000FC9800002099000008B504F061FA0A4BC8
:100A80001B7883B1094A138801339BB21380B3F5F5
:100A90007A7F08D3134600221A80054A13889BB236
:100AA00001339BB2138008BDD1440020AC0100206B
:100AB000D244002010B501F0C3FD01F065FC01F047
:100AC000F5FD01F027FE01F00DFF08B9002409E053
:100AD000002001F064FC07E064221146002001F0D0
:100AE0008AFC0134042CF7D9FFF7A2FFFFF76CFD55
:100AF000FFF788FD014620B94FF47A7001F0C2FD7E
:100B000010BD024801F014FFF6E700BF489900004D
:100B100030B585B000F022F88DF80F000123029364
:100B2000FFF7FEFD0446032201A9FFF76DFE05460F
:100B300002AA0DF10F01204600F0C2F89DF80F3017
:100B40002A4601A9204600F0FDF89DF80F4000F06C
:100B500017F90146204600F017F9E1E738B500F033
:100B600095F9404801F0DAFE3F4801F0D7FE3F48D2
:100B700001F0D4FE3E4801F0D1FE01F0F5FC10B1C9
:100B800001F028FD20BB3B4801F0C8FE04F0E0F96D
:100B900002F056F90446F8B1374801F0BFFE374875
:100BA00001F0BCFE02F0B4FD002850D1344801F041
:100BB000B5FE344801F0B2FE334801F0AFFE4FF409
:100BC000A051324800F074F9002846D1012442E0D7
:100BD0002F4801F0A3FED9E72E4801F09FFE02F056
:100BE0009CFD68B92C4801F099FE4FF4A0512748AC
:100BF00002F032FC0028D2D0284801F08FFECEE768
:100C0000274801F08BFE4FF4A051204802F0FEF976
:100C100080B9244801F082FE02F07FFD054668B9E4
:100C20004FF4A051194802F017FA58B91E4801F0C4
:100C300075FEB4E71D4801F071FE0CE01C4801F0A0
:100C40006DFE08E01B4801F069FE2C4603E01A48DF
:100C500001F064FE0024204638BD184801F05EFE15
:100C60000124F8E7589300006C990000A09300005D
:100C700094990000C4990000E0990000A49B000032
:100C8000C89B0000F09B0000109C00001C45002049
:100C9000B4990000189A00004C9A0000789A00005D
:100CA000A09A0000F49A0000709B0000D49A000003
:100CB000289B0000509B00002C9C00004C9C0000D6
:100CC000002836D0F8B50C461546074651B14AB152
:100CD0000B7843B9267866B902F01AFD00B90126EF
:100CE0002670C6B9F8BD4FF4A051124800F032F991
:100CF000F0E7114801F012FE384602F013FD2968B2
:100D00004B1C2B600D4801F013FE4FF4A051094815
:100D100000F020F9E6E74FF4A051064800F0C8F8CB
:100D200018B9384602F0FEFCDCE7054801F0F6FD94
:100D3000F7E770471C450020889C0000A09C00003D
:100D4000B89C0000D8B1F0B5A9B00E4615460746CC
:100D500099B192B18BB1002401E00134E4B2AC420C
:100D60000BD2A0236A463946305DFFF7CBFD002841
:100D7000F3D0684602F000FDEFE729B0F0BD704700
:100D800008B500F029F908BD08B518B9084601F002
:100D900079FC08BD0A464FF4A051024800F0F4F86F
:100DA000F7E700BF1C45002030B58DB004460D4666
:100DB0000C4B1B7883B10C4B0C4A3021684607F072
:100DC000DFFC6A462946204604F004FC30B9084B93
:100DD00000221A700DB030BD064BEDE74FF0FF302A
:100DE000F8E700BFB0010020E09C0000F09C00008C
:100DF000AE010020E89C000008B5074B1B782BB122
:100E000001F0E3FA054801F089FD08BD01F0E8FAB8
:100E1000034801F083FDF8E7B0010020049D0000C5
:100E2000309D000010B582B000238DF80730D0B19E
:100E300004460E4801F072FD0DF107020C492046F0
:100E400004F0C4F950B99DF807200A4B1A70FFF757
:100E5000D3FF0120084B187002B010BD074801F005
:100E60005DFD0020F8E70020F6E700BF5C9D000074
:100E70007C9D0000B0010020AE010020889D000094
:100E800008B5FFF7CFFF002008BD000008B500231C
:100E9000044A1380044A137001F0A2FA034801F0D7
:100EA0003DFD08BDB0010020AE010020BC9D00004A
:100EB00070B582B0002839D00C460546FF2938D9D4
:100EC00004F0F4FA064600BB1B4B01225A7021467F
:100ED000284604F057FB194801F020FD0023009339
:100EE000174B41F288322146284604F0C5FB154BCA
:100EF0001B7883B121462846FFF756FF70B1124890
:100F000001F00CFD4FF0FF360DE00B4B00225A7044
:100F10004FF0FF3607E00D4801F000FDFFF76CFFD2
:100F20000B4801F0FBFC304602B070BD4FF0FF36BD
:100F3000F9E74FF0FF36F6E7B0010020E89D00002A
:100F4000810E0000AE0100200C9E0000389E0000C3
:100F5000549E000038B5094B5B784BB104460D46F2
:100F600030B10023064A04F07FFB064B1B7803B91F
:100F700038BD29462046FFF717FFF9E7B0010020EA
:100F8000810E0000AE01002030B583B0C0B10C4628
:100F900005460E4B5B789BB1B2F5487F01D24FF40A
:100FA0004872002300930A4B2146284604F064FB54
:100FB000084B1B783BB121462846FFF7F5FE02E0BF
:100FC000104601F05FFB03B030BD00BFB001002050
:100FD000810E0000AE0100204FF4FA60704700005F
:100FE000004870478C9E000000487047B49E000087
:100FF0000278407840EA0220704708B5FFF7F8FF12
:1010000008BD45F2735303FB00F04013A0F52F40D9
:10101000C838704743F6095303FB00F04013A0F5AE
:10102000BB5010387047F0B583B00C4617461E46CB
:101030008DF8000001226946442000F073F805464F
:1010400010B1284603B0F0BD204600F0BDF80422E0
:101050006946442000F06AF805460028F1D1684648
:10106000FFF7CBFF38800DF10200FFF7C6FF30809D
:10107000E7E708B502460B4642F21071FD20FFF784
:10108000D2FF08BD70B582B005460C4601A90DF12E
:101090000600FFF7EEFF064648B9BDF80600FFF769
:1010A000B0FF2860BDF80400FFF7B4FF20603046B1
:1010B00002B070BD10B582B094238DF807300122C4
:1010C0000DF10701442000F02DF8044610B1204630
:1010D00002B010BD42F2107000F076F8F7E78446D7
:1010E000FF2000220EE04000C0B2013BDBB23BB16A
:1010F00010F0800FF7D04000C0B280F03100F4E76C
:10110000013292B28A4204D21CF8023058400823BD
:10111000EDE7704710B51446FFF7E1FF001B18BF5D
:10112000012010BD08B500F03EF808BD2DE9F041E2
:1011300012F001041FD10D46520802EB420297B291
:101140003A4600F020F88046B8B92646BC4214D290
:10115000A31CEA5C02212819FFF7DCFF80B9731C8D
:101160009BB22A5DAA550236B6B22A195278EA54C1
:101170000334A4B2EAE74FF004084046BDE8F0812A
:101180008046FAE7704700B583B01346012200920B
:101190000A460146022006F08DFC10B903B05DF846
:1011A00004FB0220FAE700B583B013460122009247
:1011B0000A460146022006F0B1FB10B903B05DF803
:1011C00004FB0220FAE7000008B500F2E733054807
:1011D000A0FB03208009B3F57A7F00D2012001F043
:1011E00051FA08BDD34D621010B5074B1C780CB1F5
:1011F000204610BDFFF7C6FFFFF75CFF0028F7D1C0
:101200000124014B1C70F3E7B201002008B503462E
:10121000074A107838B13BB141B11846FFF732FFA9
:10122000B0FA80F0400908BD0020FCE70020FAE792
:10123000B201002008B5FFF7D7FF10B1014B012222
:101240001A7008BDB301002008B50346064A10789D
:1012500020B123B129B11846FFF7D8FF08BD0020FF
:10126000FCE70020FAE700BFB3010020002807DBFD
:1012700000F01F02400901239340024A42F8203047
:10128000704700BF00E100E000280CDB00F01F0207
:101290004009012393402030034A42F82030BFF335
:1012A0004F8FBFF36F8F704700E100E0074B1B6863
:1012B0005B08B3FBF0F2834200D3013AB2F5803F02
:1012C00001D34FF6FF7290B2704700BF0C010020AF
:1012D000044B1A6842F080021A601A6842F0400219
:1012E0001A607047002001410020704708B540B1E6
:1012F000084B4FF48062C3F888214A20FFF7B6FFFD
:1013000008BD4A20FFF7C0FF024B4FF48062C3F8CC
:101310008821F5E700E100E0174B5A6A174B1A6085
:10132000174B1B68012B13D0134B586A10F0100099
:1013300002D010225A620120E8B90F4B5B6A13F009
:10134000040F0ED00C4B04225A6240F0020070478A
:10135000094A506A10F010000DD010215162184651
:101360007047054B5B6A13F0010F04D0024B00225B
:101370005A6240F00200704700200141C80100207D
:10138000C001002000B583B0032300930023054A69
:101390001946184606F0AAFEB0FA80F0400903B0DC
:1013A0005DF804FB3959000030B10168054A11604D
:1013B0004268054B1A6070470023024A1360024AD4
:1013C00013607047B8010020B4010020704700008E
:1013D00008B5024A1060FFF7F9FF08BDC4010020FC
:1013E00008B503460A4A107880B9591E4BF67F3279
:1013F00091420CD81846FFF759FF024600210846D3
:1014000005F09CFAB0FA80F0400900E0002008BD29
:10141000BC01002008B501220021084605F08CFE21
:1014200000B108BD07220021084605F035FEF8E7A7
:1014300070B50120FFF7CCFF2C4B1C780CB1204677
:1014400070BDEFF3108572B60020FFF74FFF02204A
:10145000FFF7BEFFFFF796FF064638B30320FFF7FE
:10146000B7FFFFF735FF0420FFF7B2FF204B022242
:101470001A601E4B01221A700720FFF7A9FF0020F7
:1014800005F071FA0820FFF7A3FF002006F0BCFE6C
:1014900098B90920FFF79CFFFFF726FFE0B90A2063
:1014A000FFF796FFFDB962B63446C8E75A20FFF74A
:1014B0008FFF05B962B63446C1E7002005F061FA36
:1014C00000230A4A13700A4A13605B20FFF780FF6B
:1014D000002DB4D162B6B2E70520FFF779FF044BC7
:1014E00001221A60DBE73446A9E700BFBC010020F7
:1014F000C001002008B5094B1B7803B908BD0020C6
:10150000FFF7F4FE002005F03CFA002006F0B0FEE4
:101510000023024A1370024A1360EFE7BC01002067
:10152000C0010020002831D000B583B018490B68F5
:1015300001330B6010F0010F05D110F0020F0ED136
:1015400003B05DF804FB134A136801331360124BB8
:101550001B68002BF4D0402110489847F0E7104B4F
:101560001B68012B14BF002301238DF800306A464D
:101570000021084606F0ACFE0028E1D1094B1B68AB
:10158000002BDDD0BDF802009847D9E7704700BFB7
:10159000D0010020CC010020B8010020D40100209F
:1015A000C0010020B401002008B5064B1B7803B928
:1015B00008BDFFF7B1FE0028FAD00021FFF7B2FF07
:1015C000F6E700BFBC01002070B1826872B1C2684A
:1015D00072B10268013A4BF67F318A420AD84368F9
:1015E000642B09D801207047002070470020704705
:1015F0000020704700207047002070470023044AF5
:101600001370044A1360044A1360044A136070475D
:1016100064020020600200205C02002058020020CA
:1016200050EA01032FD070B5844600234FF080426A
:1016300003E09B0843EA827392089C4571EB020029
:10164000F7D30020864608E0400840EACE704FEA13
:101650005E0E9B0843EA8273920853EA020414D098
:10166000C4184EEB0205A44571EB0506ECD3BCEBA8
:101670000404A44661EB0501400840EACE70C0189E
:1016800042EB5E0EE5E70020704770BDF8B138B55B
:101690000A460546E9B10020014684460FE035F8C8
:1016A0001C30A3F50043DC1703FB04F4A3FB033E4B
:1016B0000EEB440E18184EEB01010CF1010C944591
:1016C000EDD3002306F0D2FEFFF7AAFF38BD0020BD
:1016D00070470846FAE70000114B1B6883420ED2A0
:1016E000C21A5108012A08D90B440D4A13608342DB
:1016F00000D910600A4B186870470121F4E7834253
:10170000F8D9181A02090F2800D80122934203D2EF
:10171000034B00221A60EDE79B1A014A1360E9E7C8
:1017200058020020012803D0022803D1032070476B
:10173000022070470120704708B503463C4A1078E4
:1017400001280FD002282BD0B3F57A7F53D3394A22
:10175000136801331360384A00211160012B43D80C
:10176000002014E0B3F52F7F12D233490A6801320A
:101770000A60072A5AD90A4600211160B42B0BD8F7
:101780002B4B02221A702A4B1878FFF7CBFF08BDAB
:101790000020294B1860FAE7254B00221A70F2E767
:1017A000B42B0AD9B3F57A7F12D3224A13680133D6
:1017B0001360012B05D80020E9E700201D4B1860BD
:1017C000E5E7134600221A60194B01221A70DEE782
:1017D000B3F5E17F01D80020D9E70023154A136053
:1017E000134A13700120D2E7124B1960104B0122EB
:1017F0001A700220CBE7B42B12D80E4B00221A60CD
:101800000D4A136801331360072B01D80020BEE78F
:10181000134600221A60064B02221A700320B6E714
:101820000020044B1860044B1860B0E70020AEE7BE
:1018300064020020600200205C02002008B502481B
:10184000FFF7B2FD08BD00BF8CB5000010B504461F
:1018500000230370436009B108460AB9204610BD51
:101860001146FFF713FFFFF737FF6060FFF764FFD4
:101870002070F3E7014B1868704700BF5802002042
:1018800048B14FF47A52026050224260024A8260AC
:101890004FF48062C26070478C02002038B5044665
:1018A000FFF792FE002829D0184B1B78022B2AD074
:1018B000FFF7B0FDFFF7C2FF2368154D2B6062688C
:1018C000144B1A60A268144B1A60E268134B1A603A
:1018D0000024134B1C60134B1C60134B1C70134BE8
:1018E0001C605C609C60FFF789FE114B1C602868DF
:1018F000FFF776FD18B1054B01221A7038BD034B76
:1019000003221A70FAE70020F8E700BF88020020DF
:10191000040000200000002084020020800200203B
:101920007C0200207802002074020020680200205F
:101930005402002000B585B06846FFF7A1FF684655
:10194000FFF7ACFF05B05DF804FB0000104B1B78FF
:10195000012B01D00020704710B500240D4B1C60F6
:101960000D4B1C600D4B1C700D4B1C605C609C6033
:10197000FFF744FE0B4B1C60054B02221A70FFF769
:1019800057FD00B110BD024B03221A70FAE700BFE9
:10199000880200207C0200207802002074020020CF
:1019A000680200205402002008B5054B1B78022B6A
:1019B00000D008BDFFF79EFD014B01221A70F8E729
:1019C00088020020014B1878704700BF8802002071
:1019D000014B1868704700BF7802002010B4A0F2D5
:1019E000A960154B1B6800FB03F3144A82FB03023A
:1019F000DB17C3EB62130B60DB000B604A681A4411
:101A00008868121AC2EB4212D2001446002A0DDB7B
:101A100024124C608B600A4B9A420ADB47F6F8703E
:101A2000A042A8BF204600B210BC704702F1FF04DC
:101A3000EEE70448F7E700BF000000201F85EB51E8
:101A4000010780FF0880FFFF82B002AB03E90300BB
:101A500002B0704700B583B00A4601466846FFF7FA
:101A6000F5FE084A1368013313609DF8003013B97E
:101A700003B05DF804FB02AB13E90300FFF7E4FFDA
:101A8000F6E700BF5402002010B51149C0F30B0067
:101A9000FFF7A4FF0F4B1C680F490B68A0F500422D
:101AA00024F8132001330B600C4A11688B4204D2D6
:101AB0000B4A13680133136010BD074B00221A60F4
:101AC000084B01221A702046FFF7C4FFF0E700BF61
:101AD00068020020840200207C0200208002002096
:101AE000780200207402002008B5044B1B78022BFA
:101AF00000D008BDFFF7C8FFFBE700BF8802002049
:101B0000094B1B78022B0ED170B505460E4648B125
:101B1000002405E035F814000009FFF7B5FF013493
:101B2000B442F7D370BD70478802002000B585B07D
:101B30008DF80F20BDF818200192009301230DF1BC
:101B40000F02D9400548007800F0C0F910B905B07F
:101B50005DF804FB4FF0FF30F9E700BF08000020FC
:101B600000B583B00B46012A01D940F080000092F5
:101B7000024633210120FFF7D9FF03B05DF804FBD3
:101B800008B5014601220F20FFF7EAFF08BD00005B
:101B900010B594B09E46BDF8584000238DF80F3024
:101BA000631C402B1BD849088DF81020002207E049
:101BB000501C1EF802C051326A4402F840CC82B276
:101BC000A242F5D3012201920DF10F02009204AA64
:101BD0000648007800F07AF920B914B010BD4FF033
:101BE000FF30FAE74FF0FF30F7E700BF08000020B2
:101BF00000B583B00B46012A01D940F08000009265
:101C0000024633210120FFF7C3FF03B05DF804FB58
:101C100010B582B00446012201A91F20FFF7A0FFE2
:101C200008B102B010BD9DF8043064F387138DF83D
:101C30000430012201A91F20FFF7DAFFF1E710B5F8
:101C400082B00446012201A92020FFF789FF0090FD
:101C5000009B13B1009802B010BD9DF8043043F012
:101C600008038DF80430DBB264F307138DF80430F9
:101C7000012201A92020FFF7BBFF0090EAE710B581
:101C800082B00446012201A92320FFF769FF08B1B1
:101C900002B010BD9DF8043064F305138DF80430D4
:101CA000012201A92320FFF7A3FFF1E710B582B0BD
:101CB0000446012201A92320FFF752FF08B102B018
:101CC00010BD9DF8043064F3C7138DF80430012271
:101CD00001A92320FFF78CFFF1E710B582B004467D
:101CE000012201A92420FFF73BFF08B102B010BD7B
:101CF0009DF8043064F3C7138DF80430012201A964
:101D00002420FFF775FFF1E700280CDB00F01F022D
:101D10004009012393402030034A42F82030BFF3AA
:101D20004F8FBFF36F8F704700E100E0032803D8A7
:101D3000DFE800F00B0507096FF0100070473D2049
:101D400070473E207047642070473C207047000079
:101D5000064B426912F0800F02D11BB1013BF8E73C
:101D6000806870474FF0FF30704700BF40420F005F
:101D7000436943F002034361064B426912F0800F4E
:101D800002D10BB1013BF8E7436923F00203436141
:101D9000704700BF40420F0042F21073426912F0D8
:101DA000800F04D01BB179228260013BF6E77047B7
:101DB00010B50C46FFF7BAFFFFF7A6FF636923F0E3
:101DC000100363612046FFF7E7FF10BD38B50D46ED
:101DD000FFF7ACFF04462846FFF7DEFF6B6923F0F0
:101DE00010036B61002C08DB04F01F016309012262
:101DF0008A406033034941F823202046FFF784FFDF
:101E000038BD00BF00E100E030B587B005460024D2
:101E100002940394049405940A4B049301238DF8CF
:101E200014303223ADF8163002A905F0A1FC0323CB
:101E30000093234622462146284605F0E5FC07B0DC
:101E400030BD00BFA0860100032800D9704770B5DF
:101E5000064600F58005A0352D022946FFF7A8FFAC
:101E6000002405E02846FFF783FF7923AB600134A7
:101E7000082CF7D929463046FFF7A8FF70BD0000AF
:101E8000032800D9704710B50446FFF7DDFF204650
:101E900005F044FC204605F029FC2046FFF7B4FF7E
:101EA000014B00221A7010BD8C0A002008B5064AAA
:101EB00013780133DBB21370012B02D9FFF7E0FF77
:101EC00008BDFFF7C1FFFBE78C0A00202DE9F04FAA
:101ED00083B00192032800F2DD8006460D461F46BE
:101EE0004BBB0D9B002B00F0D8800C9B002B00F00F
:101EF000D6801FB1019B002B00F0D48006F5800432
:101F0000A034240221463046FFF752FF636943F0B4
:101F100008036361236823F0FF036D00EDB22B43D8
:101F20002360636943F001036361604B4FF0000875
:101F3000C346C2464DE00D9B002BDAD0D5E70D9B82
:101F4000002B00F09D80636943F008036361236800
:101F500023F0FF0345F0010213432360636943F05C
:101F6000010363617923A3604FF0010830E0BA45B3
:101F70000CD2236823F0FF03019A12F80A201343BE
:101F800023607923A3600AF1010A21E00D9B002B55
:101F900078D0636943F008036361236823F0FF038B
:101FA00045F0010213432360636943F00103636159
:101FB0007923A3604FF001080AE0452829D085283D
:101FC00004D044283BD06FF0080548E07923A36093
:101FD0004B4603F1FF39002B39D02046FFF7B8FEFE
:101FE000B0F1FF3F36D0B8F1000FE6D14728BED0A0
:101FF000872832D1BA45A2D2236823F0FF03019A81
:1020000012F80A20134323607923A3600AF1010A1E
:10201000DEE70D9B9B4537D222680BF101030C993B
:1020200001F80B200D9A9A4203D07922A2609B46B8
:10203000CEE7626922F0080262619B46C8E70D9B09
:102040009B4502D06FF0080509E0002507E06FF01E
:10205000080504E06FF0080501E06FF00805204670
:10206000FFF786FE7923A36021463046FFF7AEFED8
:1020700065B90F4B00221A70284603B0BDE8F08FF7
:102080000025ECE70025EAE70025E8E73046FFF702
:102090000DFFF1E76FF00105EEE70025ECE76FF0CB
:1020A0000505E9E76FF00505E6E700BF40420F00D0
:1020B0008C0A002038B5054600240BE02846FFF7BF
:1020C0005FFD10B92B78332B14D00A2000F0DAFA18
:1020D0000134E4B2092C0BD8002CEFD00220FFF71A
:1020E000B3FE0120FFF7F9FD322000F0CBFAE5E75F
:1020F000002038BD0120FCE710B582B05F238DF8C9
:10210000073000248DF8064008E00A2000F0BAFAF3
:1021100002E00A2000F0B6FA0134E4B2042C1AD826
:1021200001220DF107012020FFF762FD0028ECD10C
:10213000022000F0A7FA01220DF106012020FFF78E
:102140000FFD0028E5D19DF806209DF807309A4242
:10215000DFD1012000E0002002B010BD10B582B038
:1021600000238DF80730234B1C78CCB9002303E003
:10217000214A0021D1540133012BF9D9642000F008
:1021800081FA0220FFF760FE0120FFF7A6FD322052
:1021900000F078FA0DF10700FFF78CFF18B904463C
:1021A000204602B010BD0020FFF749FD0028F7D1FE
:1021B000052000F067FA0020FFF778FD0028EFD136
:1021C000FFF75DFD0028EBD10320FFF721FD00287C
:1021D000E6D1FFF791FF04460028E1D0142000F07B
:1021E00051FA062269462920FFF7BAFC014B012269
:1021F0001A70D5E7920A0020900A00202DE9F04FCE
:1022000087B0019200238DF80F303D4B1F78002FCF
:102210006ED005460E46002863D0002963D0002A00
:1022200063D04FF00008C246C346C146B9F1030F60
:102230003DD8C82401220DF10F012720FFF790FCA3
:10224000002854D19DF80F3013F0080F06D101205B
:1022500000F018FA013CA4B2002CEBD19DF80F302D
:1022600013F0080F48D0062204A92920FFF778FCB4
:10227000002843D19DF810209DF8113043EA022335
:102280000BFA83FB9DF812209DF8133043EA0223DA
:102290000AFA83FA9DF814209DF8153043EA0223C8
:1022A00008FA83F809F101095FFA89F9BEE7CBEB77
:1022B0004B130BEB830B4BF34F3BA5F800B0CAEB72
:1022C0004A130AEB830A4AF34F3AA6F800A0C8EB78
:1022D000481308EB830848F34F38019BA3F80080AC
:1022E00006E0002704E0002702E0002700E00027C6
:1022F000384607B0BDE8F08F0027F9E70027F7E779
:10230000920A002008B5FFF729FF10B1014B012206
:102310001A7008BD930A002008B5034607480078E4
:1023200028B12BB131B13AB11846FFF767FF08BDAC
:102330000020FCE70020FAE70020F8E7930A0020DD
:1023400009288CBF002001207047000038B50446E2
:102350000D4659B10A4B03EB40010122497813F8AD
:10236000100004F050FF074B1D5538BD044B03EB24
:1023700040010022497813F8100004F044FFF2E70E
:1023800094B50000940A002010B5002404E0002158
:10239000E0B2FFF7DBFF0134092CF8D910BD10B50E
:1023A0000446FFF7CDFF00B910BD01212046FFF71D
:1023B000CDFFF9E710B50446FFF7C2FF00B910BD25
:1023C00000212046FFF7C2FFF9E710B5002404E022
:1023D0000121E0B2FFF7BAFF0134092CF8D910BD92
:1023E00010B5002404E00021E0B2FFF7AFFF013494
:1023F000092CF8D910BD70B505460E461446FFF7F6
:10240000CEFF304600F03EF92846FFF7D3FF2046C6
:1024100000F038F970BD38B50546002406E0E0B29A
:10242000FFF7BDFF284600F02DF90134092CF6D93D
:10243000002406E0E0B2FFF7BDFF284600F022F9D5
:102440000134092CF6D938BD08B500220C211046FC
:1024500004F0D9FE08BD000008B5074B1B780BB18E
:10246000012008BDFFF7F0FF40F6B83000F00AF990
:10247000014B01221A70F3E79E0A002008B50122E1
:102480000C21002004F0BFFE08BD08B5FFF7F6FFE1
:102490004FF4FA7000F0F6F8FFF7D6FF40F6B830C8
:1024A00000F0F0F808BD0000002844D02DE9F0410C
:1024B00090B00E461446074600293ED0012A3ED968
:1024C00006F070FA054600F10208B8F1400F03D992
:1024D000002010B0BDE8F08102463946684606F09B
:1024E00053FA05F140036B440D2203F8402C05F12B
:1024F00041030DEB03050A2305F8403C2246002169
:10250000304606F0CBF9012342466946022003F02B
:10251000D5FD142C0DD8621E01233146022003F094
:102520002FFE0849304606F0F3F9003818BF0120A5
:10253000CFE71422F0E7002070470020C9E7002011
:10254000C7E700BFE094000040B10A460146012AF7
:1025500006D908B50348FFF7A7FF08BD002070475C
:1025600000207047D89E000008B5FFF775FF10B136
:10257000014B01221A7008BD9F0A0020124B1B78E4
:10258000FBB110B590B0002401E00134E4B2092C95
:1025900009D840216846FFF7D7FF03460028F4D04A
:1025A000184610B010BD9DF900302BB169460748A0
:1025B00000F0BEF90023F3E7054800F0AFF900236F
:1025C000EEE71846704700BF9F0A0020DC9E00001F
:1025D000F49E00000E4B1B78BBB110B5002401E047
:1025E0000134E4B2032C0DD8FFF7C8FF034650B9FD
:1025F000022CF5D80322611C064800F099F9FFF778
:1026000044FFEDE70023184610BD1846704700BF91
:102610009F0A00200C9F000008B5074B1B681BB1E8
:10262000054A1368013B1360044A136801331360C1
:10263000FEF722FA08BD00BFA40A0020A00A00206D
:102640000C4B00221A600C4B1B680C4AA2FB0323A4
:102650009B09013BB3F1807F0AD24FF0E022536126
:10266000074BF02183F823100023936107231361A4
:10267000704700BFA00A00200C010020D34D62105B
:1026800000ED00E0034B1860024B1B68002BFBD1F0
:10269000704700BFA40A0020014B1868704700BFB4
:1026A000A00A0020B0FA80F040097047002303B16F
:1026B000704700220249CA540249CA540133F6E75E
:1026C000AC0A0020A80A002010B582B004460123FD
:1026D0008DF80730FFF7E6FF18B99DF8070002B044
:1026E00010BD0DF107020921024B13F8140004F08C
:1026F00073FDF2E7A8B5000008B5FFF7E5FFB0FAF3
:1027000080F0400908BD08B5FFF7F6FF00B908BD25
:102710000120FCE710B5002404B110BDE0B2FFF7C2
:10272000F2FF024B18550134F6E700BFB00A002053
:1027300082B00023019302E0019B01330193019ACF
:10274000034B9A42F8D9034B01221A7002B070472A
:102750001FA10700B10A002030B587B0224B1C78BA
:10276000BCB10D4600293AD002238DF80430002375
:102770008DF805308DF806308DF809308DF8080099
:102780000A238DF80A3001A9012005F0C5FD18B112
:102790000024204607B030BD012005F035FD00BB08
:1027A0000023009302E0009B01330093009A42F261
:1027B0000F739A42F7D900218DF8101004AA012056
:1027C00005F086FD30B9BDF812302B80012005F0F0
:1027D0004FFDDEE7012005F04BFD0024D9E7002482
:1027E000D7E70024D5E700BFB10A002008B50146AD
:1027F0001720FFF7B1FF08BD39B140B14FF47A138C
:10280000B3FBF0F30B6001207047002070470020FD
:102810007047000008B5FFF78BFF0120034B1870CD
:102820000023034A1380034A136008BDBA0A00203C
:10283000B80A0020B40A002010B582B00446002374
:10284000ADF806300093144B187840B114B30DF175
:102850000600FFF7CBFF20B920806060207202B035
:1028600010BD6946BDF80600FFF7C6FF58B1BDF8B8
:1028700006200A4B1A80009B09490B602280636086
:1028800001232372EBE7BDF8063023800023636049
:102890002372E4E70020E2E7BA0A0020B80A002029
:1028A000B40A0020054B1B7833B9054B00221A608F
:1028B0005A60024B01221A7001207047440B00201D
:1028C000BC0A002008B5064B1B780BB100B101B95A
:1028D00008BD01230A460146002003F0EFFBF7E79D
:1028E000450B002008B5FFF7DDFF10B1014B0122B9
:1028F0001A7008BD450B002068B110B50446064BA0
:102900001B781BB106F04EF8014600B910BD2046F9
:10291000FFF7D8FFFAE77047450B002008B5FFF72F
:10292000EBFF0248FFF7E8FF08BD00BF6CAD0000F9
:102930000FB400B5ABB02C9A12B10B4B1B7823B976
:102940002BB05DF804EB04B070472DAB0193A021D0
:1029500002A805F095FF011EF2DD9F2900DD9F21F1
:1029600002A8FFF7AFFFEBE7450B002070B582B080
:10297000054600F075FF78B10446C36998470646DE
:1029800005E063680A2201210DF107009847E36919
:102990009847801BA842F4D302B070BD10B590B028
:1029A0003220FFF7E3FF094800F060FF4024224691
:1029B0000021684605F072FF00234FF4FA722146A9
:1029C000684600F079FF10B010BD00BF289F0000DE
:1029D0002DE9F04F85B0804689461646019300F0F8
:1029E0003FFF00285ED00446B8F1000F5CD0B9F17B
:1029F0000F0F04D80025284605B0BDE8F08F4A46E1
:102A00000021404605F04AFFE369984707460090D9
:102A10004FF0000BDA465D46E3699847C01BB042B1
:102A2000E9D26368052201210DF10F00984750B1EA
:102A3000BAF1000FF0D0E3699847009BC01A019BE0
:102A40009842E9D3D7E72A466B1C994508D99DB22D
:102A50009DF90F1008F802109BB2002208F803201D
:102A6000E36998470090BAF1000FD5D10F4B13F9E5
:102A70000B209DF80F109DF90F309A4203D02B299F
:102A80000DD0D346C8E70BF1010B5FFA8BFB074B68
:102A900013F90B30002BBFD14FF0010ABCE74FF008
:102AA000010BB9E70025A6E70025A4E7ACB50000B7
:102AB00000284DD070B590B014461D46064600293A
:102AC00049D0002A4AD0012B4BD90B46294A402134
:102AD000684605F055FE6946304605F019FF064682
:102AE000002841D0684605F05DFF06EB000C002190
:102AF0000DE0013189B20A23A3540CF1020C06E067
:102B000022281FD00CF1010C013189B2A0549CF98C
:102B10000000B8B10A466B1E994213D25C28EFD16F
:102B20009CF90130002BEBD06E2BE2D0222B03D08E
:102B30005C2B01D02F2BE3D1013189B2A3540CF1CE
:102B4000020CE4E70023635489B1184610B070BD4D
:102B50004FF0FF3070474FF0FF30F7E74FF0FF3096
:102B6000F4E74FF0FF30F1E74FF0FF30EEE74FF0C2
:102B7000FF30EBE7309F00002DE9F843002800F01C
:102B8000A2800D4616461F460446002A00F09E808D
:102B9000012B40F29E80002010708146804616E096
:102BA0000CF1010C6319634503D99CF900202C2A10
:102BB000F6D1634560D99CF900202C2A5CD10CF138
:102BC00001009CF90120222A13D0001B80B200F1E1
:102BD0000D03AB4250D24049204405F099FE002835
:102BE0004AD0A0EB040C1FFA8CFC0CF10D0CA44491
:102BF000D8E70CF1020C01E00CF1010C634503D99C
:102C00009CF90020222AF7D1634535D99CF9002090
:102C1000222A31D10CF101009CF901202C2A02D08A
:102C2000001B80B2D3E70CF10202002106E001EBA9
:102C3000810100EB4100A0F130010132934205D93E
:102C400092F900002F2801DD3928F0DD934204D9E4
:102C500092F900302C2B00D111B9121B90B2B6E7BB
:102C60000132121B92B25318AB4201D800230DE07F
:102C7000AA1A1A48FFF75CFE2B46424649461848F6
:102C8000FFF756FE4046BDE8F8830133994212D95A
:102C9000C64608F10100B842F7D212FA83FC1FFAC7
:102CA00080F814F90CC006F80EC080B24FF0000C8A
:102CB00006F800C0E9E709F101091FFA89F912FADB
:102CC00081F290B283E74FF00008DBE74FF0000895
:102CD000D8E74FF00008D5E7389F0000489F000074
:102CE000749F000000284DD02DE9F0410C46154698
:102CF00007463F2949D9002A4AD0DFF8A08040F68C
:102D0000C4134AF6C8724FF4C0514046FFF760FE44
:102D1000064623463A4601464046FFF72DFF044645
:102D200058B12946384605F0F3FD60B121461C48EC
:102D3000FFF7FEFD0020BDE8F0811A48FFF7EEFD29
:102D40004FF0FF30F7E7324621461748FFF7F0FD16
:102D50001649384605F0DCFD10B11548FFF7DEFDD9
:102D60001449384605F0D4FD10B11348FFF7D6FDDD
:102D70001249384605F0CCFD68B11148FFF7CEFD89
:102D80000020D8E74FF0FF3070474FF0FF30D2E718
:102D90004FF0FF30CFE74FF0FF30CCE7480B00207B
:102DA000C89F0000A49F0000E89F000014A000003E
:102DB00020A000004CA0000040A0000058A000008F
:102DC00074A00000F0B5B3B004460F4615461E4689
:102DD00000F046FD1CB32DB33EB348B36420FFF7AB
:102DE000C5FD3A460021204605F058FD00962B46C9
:102DF000114AC02102A805F0C3FC02A800F036FD6C
:102E000038B9399B389A39462046FFF76BFF33B003
:102E1000F0BD0A48FFF782FD4FF0FF30F7E74FF0B3
:102E2000FF30F4E74FF0FF30F1E74FF0FF30EEE70F
:102E30004FF0FF30EBE700BF94A00000B4A000000B
:102E400030B5C3B0FFF7AAFD1F4B00931F4B204ABC
:102E500060212AA805F094FC2AA800F007FDE0B93B
:102E60000446A0252A46002102A805F017FD0023EC
:102E700040F6B832294602A800F01EFD154902A806
:102E800005F046FD80B9144902A805F041FD78B16E
:102E90001248FFF743FD012403E01148FFF73EFD10
:102EA0000024204643B030BD0E48FFF737FDF8E759
:102EB0000D48FFF733FD9DF908301BB102A8FFF75D
:102EC0002DFDEEE70948FAE7F8A00000D8A00000C1
:102ED000E0A0000020A1000050A1000058A10000C7
:102EE00004A1000028A1000074A10000D0A00000EF
:102EF000F0B59DB0054600F0B3FC002866D004464E
:102F0000FFF74CFD05230193394B0093394B3A4AA7
:102F1000602104A805F034FC04A800F0A7FC0028F8
:102F200057D1E3699847074640220021284605F01B
:102F3000B5FC002604E03E21284605F0B7FCC8B9E0
:102F4000E3699847C01B40F6B733984212D86368CC
:102F5000322201210DF10F0098470028F0D13E2EBA
:102F6000E9D8731C9BB29DF90F20AA550022EA54A0
:102F70001E46E0E73E21284605F098FC60B3236832
:102F800040F6B83205211D48984740BB002341F266
:102F900088327821284600F08FFC08B1032821D11F
:102FA0001749284600F0A8FC20B11649284605F02C
:102FB000AFFCD0B1FFF744FF10B100201DB0F0BD51
:102FC0001148FFF7ABFC4FF0FF30F7E74FF0FF3051
:102FD000F4E74FF0FF30F1E74FF0FF30EEE74FF04E
:102FE000FF30EBE74FF0FF30E8E74FF0FF30E5E769
:102FF000F8A00000D8A0000094A1000050A100009B
:1030000024B00000E0940000B4A1000010B5044614
:1030100000F0EAFA60B10C48FFF780FC002120467E
:1030200000F0CCFE50B90948FFF778FC002010BD35
:103030000748FFF773FC4FF0FF30F8E70548FFF74C
:103040006DFC4FF0FF30F2E718A2000048A200002C
:10305000E8A10000D49A000030B5ADF5657D0028E8
:1030600000F0EE810D460446B1F5806FC0F0EB81B3
:103070004FF400720021BB4805F010FC4FF4B06221
:103080000021B94805F00AFC4FF4E0620021B7487E
:1030900005F004FCB648FFF741FC00230122B549C6
:1030A000204601F03FF8002840F0C98000230122AB
:1030B000B149204601F036F8002840F0CD80AF48F5
:1030C000FFF72CFC4EF660230193AD4B0093AD4B04
:1030D000AD4A29462046FFF775FE10F1020F00F0B9
:1030E000C880002840F0CE804FF400739D4AA44968
:1030F0002046FFF7DDFC002840F0FF804FF4B0636E
:10310000994AA2492046FFF7D3FC002840F0FB80F3
:103110004FF4E063954A9E492046FFF7C9FC00281A
:1031200040F0F7809B48FFF7F9FB9B48FFF7F6FB61
:10313000002301229949204600F0F4FF002840F0C6
:10314000EE80002301229649204600F0EBFF002884
:1031500040F0E580934B0393934B0293934B019381
:10316000934B00937F4B934A4FF4407124A805F092
:1031700007FB9148FFF7D2FB24A805F013FC0023BE
:10318000029301930123009324AB82B28B49204622
:1031900001F020F8002840F0C8804EF66023884AED
:1031A00029462046FFF79EFD10F1020F00F0C38074
:1031B000002840F0C9808348FFF7B0FB502305AAE0
:1031C0007F492046FFF774FC002800F0C380674960
:1031D000654800F01FFA0546002840F021817A4832
:1031E000FFF79CFB0021204600F0E8FD002840F09E
:1031F0001D812046FFF77CFE002800F01D817348EA
:10320000FFF78CFB7248FFF789FB0021204600F096
:1032100057FF00246F4B1C704FF400722146514839
:1032200005F03CFB4FF4E0622146504805F036FBC8
:103230006948FFF773FB28460DF5657D30BD67488B
:10324000FFF76CFB94F9003003B9654C2046FFF79B
:1032500065FB4FF0FF35EEE76248FFF75FFB94F93F
:10326000003003B95E4C2046FFF758FB4FF0FF35A6
:10327000E1E75D48FFF752FB2046FFF74FFB4FF0B9
:10328000FF35D8E75948FFF749FB204605F08AFB90
:1032900001465748FFF74CFB3C49204605F038FBF8
:1032A00010B15448FFF73AFB3949204605F030FB8E
:1032B00010B15148FFF732FB3149204605F028FB99
:1032C00010B14E48FFF72AFB002303E005A9CA54BA
:1032D00001339BB2772B08D8E25632B1A2F120011C
:1032E000C9B25E29F2D92E22F0E705A80022C25405
:1032F000FFF714FB4FF0FF359DE74148FFF70EFB4A
:103300004FF0FF3597E73F48FFF708FB4FF0FF35D9
:1033100091E73D48FFF702FB4FF0FF358BE73B4855
:10332000FFF7FCFA4FF0FF3585E73948FFF7F6FA6B
:103330004FF0FF357FE73748FFF7F0FA2046FFF7F9
:10334000EDFA4FF0FF3576E73348FFF7E7FA4FF035
:10335000FF3570E73148FFF7E1FA05A8FFF7DEFA1D
:1033600035E700BFC82F0020482A0020482300204E
:1033700064A2000094A20000ECA2000044A300009C
:1033800058A0000068A300006CA30000E8A30000A0
:103390004CA00000D0A4000004A5000034A500004B
:1033A00078A50000E89C000064A600008CA6000040
:1033B0009CA60000D8A50000ACA60000C8A600008E
:1033C00024A7000068A70000B4A7000004A800001C
:1033D00058A80000D444002080A80000BCA200002F
:1033E000D0A0000014A300008CA30000A4A3000040
:1033F000C8A30000F8A3000020A4000044A400001B
:1034000070A400008CA40000B0A40000BCA50000C3
:1034100004A7000030A700004CA7000084A700000C
:103420000A48FFF77BFA4FF0FF3504E70848FFF73B
:1034300075FA4FF0FF35FEE60648FFF76FFAE1E652
:103440004FF0FF35F7E64FF0FF35F4E698A70000A0
:10345000E4A7000034A8000028B108B57F2905D9E9
:10346000FFF746FD08BD4FF0FF3070474FF0FF30CB
:10347000F8E790F900302D2B01D000207047012093
:1034800070470246002000E00130884202D2135605
:10349000002BF9D1704700002DE9F0472C4B1C7828
:1034A00024B353E02B4EA50004EB840306EB830307
:1034B000DA680021986805F0F1F9254406EB8506E5
:1034C0000023336110E0234E4FEA840804EB8403A9
:1034D00006EB83033A460021986805F0DFF9A04423
:1034E00006EB8806002333610134E4B2022C2AD8AB
:1034F00004EB8402174B03EB82035E683046FFF750
:10350000B8FF0028CED004EB8402124B03EB8203F9
:10351000DF68791E3046FFF7B4FF81460028D2D01D
:103520000C4F04EB840807EB880802463146D8F8B4
:10353000080005F029FAD8F80830002203F809201D
:10354000C8F81090D0E7024B01221A70BDE8F0874E
:10355000C83100200C00002008B5FFF79DFF044B88
:103560001B6913B1024B986808BD0248FCE700BF15
:103570000C0000208CA9000008B5FFF78DFF044B5C
:103580005B6A13B1024BD86908BD0248FCE700BF73
:103590000C0000208CA9000008B5FFF77DFF044B4C
:1035A0009B6B13B1024B186B08BD0248FCE700BFD0
:1035B0000C0000208CA9000008B5FFF76DFF014B3F
:1035C000186908BD0C00002008B5FFF765FF014B26
:1035D000586A08BD0C00002008B5FFF75DFF014BDD
:1035E000986B08BD0C00002008B5FFF755FF084B8D
:1035F0001B693BB1064B5B6A33B1054B9B6B2BB927
:10360000002000E0002008BD0020FCE70120FAE7D0
:103610000C00002070B32DE9F0410F46804661B3E5
:10362000FFF73AFF40F27F514046FFF72AFF04467A
:1036300040F2FF613846FFF724FF05461F2C1FD9D3
:103640001F2820D9114E22464146F06905F09CF909
:10365000F3694FF0000803F8048074622A46394683
:10366000306B05F091F9336B03F80580B563404684
:10367000BDE8F0814FF0FF3070474FF0FF30F7E7C3
:103680004FF0FF30F4E74FF0FF30F1E70C0000207F
:1036900070B594B00646002401E00134E4B2022C77
:1036A00028D8184800F0C8FE05460028F5D10120AA
:1036B00000F0AAFE16B3134E7369134A402104A802
:1036C00005F05EF8114C4FF4A0520021204605F0A1
:1036D000E5F804A805F066F900230293019300932E
:1036E00004AB82B206F16E01204600F073FD00F0DB
:1036F00077FE03E0002000F087FE0125284614B085
:1037000070BD00BF48000020D8A800001C45002064
:1037100008B50120FFF7BCFF08BD08B50020FFF782
:10372000B7FF08BD70B584B00646FDF759FC0446E6
:103730000F4D4FF4807229463046FCF7FBFF0D4ECB
:103740004FF4A0520021304605F0A8F800F048FEE2
:10375000284605F027F900230293019300932B4696
:1037600082B22146304600F035FD04B070BD00BF86
:10377000CC4300201C450020E8B170B584B005465C
:10378000FDF732FC04460C4E4FF4A05200213046A7
:1037900005F084F800F024FE284605F003F9002324
:1037A0000293019300932B4682B22146304600F0EB
:1037B00011FD04B070BD70471C450020032803D8DC
:1037C000DFE800F003030303052070470438C0B2AC
:1037D000012801D900207047012070470338C0B28A
:1037E000022801D801207047002070472DE9F843D6
:1037F00080460C461646164B1B68DB699847054603
:1038000022460021404605F049F80027104B1B686E
:10381000DB699847401BB04215D2A742F6D20C4B49
:103820001B685B683222012108EB0700984781463C
:103830000028EBD10137BFB23E21404605F036F8F3
:103840000028E3D001E04FF003094846BDE8F883C3
:103850001C590020014B1860704700BF1C59002004
:10386000014B1868704700BF1C59002038B5094B40
:103870001B6853B104461D684DB105F093F84FF431
:10388000967281B22046A84738BD0120FCE701208E
:10389000FAE700BF1C59002038B50446054B1B68E9
:1038A0001D6805F07FF84FF4FA7281B22046A847F0
:1038B00038BD00BF1C590020F8B507460D46164616
:1038C0001C460A46002104F0E9FF1CB1012C09D076
:1038D000012006E0074B1B685B68324629463846E4
:1038E0009847F8BD034B1B689B68012138469847F1
:1038F000F7E700BF1C59002010B5044605F008F892
:1039000008B1002010BD104B1968204605F000F8E2
:1039100008B10120F6E70D4B1968204604F0F8FFC6
:1039200008B10220EEE72B21204604F0BFFF08B1CA
:103930000320E7E7064B1968204604F0E9FF08B1C9
:103940000420DFE70520DDE7F0000020F400002080
:10395000E800002070B59AB004461D46BDF87860B6
:10396000019600920B46204A602102A804F008FF4D
:1039700002A8FFF77BFF70BB41F288327821204616
:10398000FFF734FF50BB194B1B681B6842F21072E3
:1039900031462846984718BB002342F2107278211E
:1039A0002046FFF789FF054628B1032803D02846A3
:1039B000FFF704FF10E00E4B19682046FFF79CFF4D
:1039C00050B1831EDBB2012B0CD90528EFD1032D9A
:1039D000EDD1284600E004201AB070BD0320FBE7BB
:1039E0000420F9E70120F7E794A100001C5900200A
:1039F000F800002070B504460D461948FFF736FF61
:103A000058BB06462B464FF47A625A212046FFF7F0
:103A100053FF08B103281CD11249204604F078FF57
:103A2000E0B91149204604F073FFB8B92B464FF4B2
:103A30007A625A212046FFF73FFF0A49204604F0E8
:103A400067FF58B90849204604F062FF30B90326E1
:103A500004E0FFF7B3FE064600E00426304670BDE2
:103A600020A90000E09400002CA9000070B584B0EB
:103A7000054616460024009401940294ADF80C40CB
:103A80000A461849684604F0AFFE6846FFF7EEFEA6
:103A9000F8B90446334641F288325A212846FFF7E6
:103AA0000BFF064608B103280FD10F4B19682846B3
:103AB000FFF722FF88B1831EDBB2012B0FD9052847
:103AC00008D1032E06D1344604E0FFF777FE044602
:103AD00000E00424204604B070BD0446FAE7012447
:103AE000F8E700BF34A90000F800002070B50446D4
:103AF0000D461548FFF7BAFEF8B906462B4641F2C7
:103B000088325A212046FFF7D7FE054608B1032820
:103B10000FD10E4B19682046FFF7EEFE80B1831ED1
:103B2000DBB2012B0ED9052808D1032D06D12E4674
:103B300004E0FFF743FE064600E00426304670BD71
:103B40000646FBE70126F9E744A90000F80000203B
:103B500070B504460D461548FFF788FEF8B90646CD
:103B60002B4641F288325A212046FFF7A5FE054632
:103B700008B103280FD10E4B19682046FFF7BCFE91
:103B800080B1831EDBB2012B0ED9052808D1032D8D
:103B900006D12E4604E0FFF711FE064600E004269B
:103BA000304670BD0646FBE70126F9E758A900003C
:103BB000F800002070B504460D461548FFF756FE84
:103BC000F8B906462B4641F2883278212046FFF7A5
:103BD00073FE054608B103280FD10E4B1968204625
:103BE000FFF78AFE80B1831EDBB2012B0ED90528B8
:103BF00008D1032D06D12E4604E0FFF7DFFD06466F
:103C000000E00426304670BD0646FBE70126F9E7D2
:103C10006CA90000F8000020F0B58FB004460D46F6
:103C200016461F463222002101A804F037FE334613
:103C30002A46184901A804F0D7FD01A8FFF716FE8F
:103C400010BB05463B4643F6982296212046FFF7D7
:103C500033FE08B1032813D10F49204604F058FE63
:103C600098B90E4B19682046FFF746FE054660B12D
:103C70000B4B19682046FFF73FFE48B9012504E0C9
:103C8000FFF79CFD054600E0042528460FB0F0BD77
:103C90000325FAE778A9000090A90000F8000020A9
:103CA000F400002070B58EB004460D461646322250
:103CB000002101A804F0F2FD2A46184901A804F0E9
:103CC00093FD01A8FFF7D2FDF8B90546334641F24E
:103CD00088325A212046FFF7EFFD064608B1032837
:103CE0000FD10F4B19682046FFF706FE88B1831EDF
:103CF000DBB2012B0FD9052808D1032E06D135469A
:103D000004E0FFF75BFD054600E0042528460EB001
:103D100070BD0546FAE70125F8E700BF9CA9000041
:103D2000F8000020F0B59DB004460D4616461F462B
:103D30006022002104A804F0B1FD9DF890300393A7
:103D40009DF88C300293229B0193009733462A46BC
:103D5000184904A804F048FD04A8FFF787FD00BB3C
:103D600005469DF8943041F2883278212046FFF7CD
:103D7000A3FD064608B103280FD10F4B1968204652
:103D8000FFF7BAFD88B1831EDBB2012B0FD90528DE
:103D900008D1032E06D1354604E0FFF70FFD054696
:103DA00000E0042528461DB0F0BD0546FAE70125D0
:103DB000F8E700BFC0A90000F800002070B582B08D
:103DC00004460D46304B1B681BB1DB6A0BB12F4814
:103DD0009847FFF7C1FB0646FFF7EEFB2C4901951C
:103DE00080B2009033460A462046FFF7B3FD0646F0
:103DF000002835D1244B1B681BB1DB6A0BB1254869
:103E00009847FFF7B9FB0646FFF7DEFB224901950D
:103E100080B2009033460A462046FFF79BFD0646D7
:103E200040BB194B1B681BB1DB6A0BB11B489847A1
:103E3000FFF7B2FB0646FFF7CFFB1949019580B2A9
:103E4000009033460A462046FFF784FD064670B1CF
:103E50000D4B1B685BB1DB6A4BB11248984706E01B
:103E6000094B1B681BB1DB6A0BB10F489847304602
:103E700002B070BD044B1B68002BF8D0DB6A002B2E
:103E8000F5D00A489847F2E71C590020F0A9000035
:103E900010AA000038AA00005CAA00008CAA00004A
:103EA000B0AA0000BCAA000018AA000068AA00007E
:103EB00070B598B004460D4616466022002168464B
:103EC00004F0ECFC2A461849684604F08DFC68466C
:103ED000FFF7CCFCF8B90546334641F28832782129
:103EE0002046FFF7E9FC064608B103280FD10F4B27
:103EF00019682046FFF700FD88B1831EDBB2012B55
:103F00000FD9052808D1032E06D1354604E0FFF766
:103F100055FC054600E00425284618B070BD05464E
:103F2000FAE70125F8E700BFE0AA0000F80000204A
:103F3000F0B595B004460D4616461F4646220021B0
:103F400002A804F0ABFC9DF868300193009733465B
:103F50002A46184902A804F047FC02A8FFF786FC8D
:103F600000BB05469DF86C3041F288325A2120464C
:103F7000FFF7A2FC064608B103280FD10E4B1968C3
:103F80002046FFF7B9FC88B1831EDBB2012B0FD9A5
:103F9000052808D1032E06D1354604E0FFF70EFCB4
:103FA000054600E00425284615B0F0BD0546FAE7B1
:103FB0000125F8E7F4AA0000F8000020F0B59DB054
:103FC00004460D4616461F466422002103A804F04D
:103FD00065FC009642F2B3232A46184903A804F070
:103FE00003FC03A8FFF742FCF8B905463B4641F243
:103FF0008832C8212046FFF75FFC064608B1032837
:104000000FD10F4B19682046FFF776FC88B1831E4D
:10401000DBB2012B0FD9052808D1032E06D1354676
:1040200004E0FFF7CBFB054600E0042528461DB061
:10403000F0BD0546FAE70125F8E700BF24AB000014
:10404000F8000020F8B504460D461A48FFF70EFCAC
:1040500040BB06462B4641F28832C7212046FFF777
:104060002BFC074608B1032818D1134B19682046CA
:10407000FFF742FC0546114B19682046FFF73CFC50
:10408000284310F0FF0010D0831EDBB2012B0ED9A5
:10409000052808D1032F06D13E4604E0FFF78EFB2A
:1040A000064600E004263046F8BD0646FBE701263A
:1040B000F9E700BF40AB000018450020F8000020E1
:1040C00070B504460D461548FFF7D0FBF8B9064613
:1040D0002B4641F288325A212046FFF7EDFB054678
:1040E00008B103280FD10E4B19682046FFF704FCD6
:1040F00080B1831EDBB2012B0ED9052808D1032D18
:1041000006D12E4604E0FFF759FB064600E00426E0
:10411000304670BD0646FBE70126F9E750AB0000CC
:10412000F8000020F0B5B3B004460D4616461F4611
:10413000C022002102A804F0B1FB002C39D0002DD0
:1041400039D000962B461F4AC02102A804F018FB64
:1041500002A8FFF78BFB054678BB3B4641F288324D
:104160004FF480712046FFF7A7FB064608B10328ED
:104170001BD11549204604F0CBFB20B11349204642
:1041800004F0C6FBD0B11249204604F0C1FBA8B927
:104190000E49204604F0BCFB08B101250EE0032EB9
:1041A00001D001250AE0354608E0FFF707FB054688
:1041B00004E0052502E0052500E00425284633B08B
:1041C000F0BD00BF64AB0000E094000020A100003F
:1041D0007CAB00002DE9F04FBBB006468946039248
:1041E00004939DF810B19DF814A19DF81881002545
:1041F000084604F0D7FBC7B22437FFB2C8222946CD
:1042000008A804F04BFB5A4B1B68DB6898470595E0
:10421000069507952C460EE0CDF804A0CDF800B029
:10422000039B4A46534908A804F0DEFA08A8FFF7A2
:1042300033FB05460124042C00F08E80032CFAD8B1
:1042400001A353F824F000BF1942000059420000B6
:10425000C1420000DD420000002D7FD143464FF4F3
:10426000FA7239463046FFF727FB08B10328E2D13E
:10427000414B19683046FFF73FFB0528DBD801A307
:1042800053F820F0494300009D4200004D430000D8
:1042900037420000BD420000AD420000069B0133E2
:1042A000DBB20693032B53D82C46C4E7079B01339C
:1042B000DBB207930A2BBED90224BCE72C46BAE72F
:1042C00043464FF47A724FF496713046FFF7F4FA92
:1042D0000498FFF7E1FA05460324ACE7002D3FD12F
:1042E00043464FF47A724FF4C8713046FFF7E4FA50
:1042F00008B103289FD1214B19683046FFF7FCFA1B
:10430000052898D801A353F820F000BF55430000BA
:1043100029430000254300003742000065430000A8
:104320003943000001241EE0059B0133DBB20593F5
:10433000032B80D9022416E0059B0133DBB20593E1
:10434000052B7FF678AF0EE0022474E7044672E78F
:10435000022470E704246EE7002404E0042402E051
:10436000042400E0052420463BB0BDE8F08F00BFE8
:104370001C59002090AB0000F8000020EC00002049
:104380002DE9F84381460F461646134904F0C0FA5A
:10439000441D0A21204604F089FA051B2A462146BD
:1043A000384604F0A2FA4FF0000807F805800B49E0
:1043B000484604F0ADFA00F109040A21204604F051
:1043C00075FA051B2A462146304604F08EFA06F897
:1043D0000580BDE8F88300BFB0AB0000B8AB0000BB
:1043E00010B5084C23689B6A012102209847236876
:1043F0009B693220984723689B6A002102209847D6
:1044000010BD00BF1C59002008B5044B1B689B6AF7
:10441000011E18BF01210120984708BD1C5900202A
:1044200008B5044B1B689B6A011E18BF01210020C0
:10443000984708BD1C5900202DE9F041B6B005464B
:10444000826A904B1A60C822002104A804F026FA60
:10445000002104A8FFF7F6FD20B904469DF92A3093
:10446000342B0CD0884B1B681BB1DB6A0BB187481F
:1044700098470026864B1E70374600F05ABC824B88
:104480001B681BB1DB6A0BB1824898470120824B45
:104490001870824B1870824B00221A70FFF7C0FF11
:1044A00000F07EBC7E4B01221A707E4B00221A70F7
:1044B000754B1B681BB1DB6A0BB17B489847002129
:1044C0002868FFF797FA8046F8B96F4B1B681BB155
:1044D000DB6A0BB175489847754B00221A806C4B0C
:1044E00001221A704746724B1B889BB2142B40F274
:1044F00020846F4B00221A806E4B01221A70644B8D
:104500000C221A70274600F014BC5F4B1B681BB1CD
:10451000DB6A0BB1684898470137FFB2042FE2D934
:10452000644B01221A705A4B0C221A702746DAE7A4
:10453000554B1B681BB1DB6A0BB1604898470022E2
:1045400001212868FFF792FA042811D8DFE800F06B
:104550000327102E20004C4B1B681BB1DB6A0BB1EC
:1045600057489847524B00221A80494B02221A7032
:104570004F4B1B889BB2142B40F2DB834C4B002229
:104580001A804C4B02221A70414B0C221A70D0E355
:10459000484B0D221A703E4B01221A70E8E7454B3A
:1045A0000E221A703A4B01221A70E1E7414B0F229A
:1045B0001A70374B01221A70DAE76B79012B12D08F
:1045C000334B03221A703A4B1B889BB2412B40F2AB
:1045D000B083374B00221A80364B03221A702C4BC3
:1045E0000C221A70A5E3284B1B681BB1DB6A0BB1C8
:1045F00034489847244B1B681B6A98470021286859
:10460000FFF774FA0428DED801A353F820F000BFA6
:1046100025460000A3470000C7450000B147000041
:1046200095470000224B00221A8007E0204B002211
:104630001A80254A25492868FFF7A2FE1C4B1B88D3
:104640009BB2F92B00F29980114B1B78052B00F0DF
:104650009480002341F28832C8212868FFF72CF9A2
:104660002C681B492046FFF747F9002834D1064B38
:104670001B68002BDAD0DB6A002BD7D0154898478F
:10468000D4E700BF184500201C590020F0AB000003
:10469000CC440020C4AB0000D4440020D54400200A
:1046A000D1440020D644002008AC000020AC00001B
:1046B000D2440020D04400203CAC000064AC000098
:1046C00080AC000098AC0000D8440020F8440020E2
:1046D000BCAC0000D0AC000089492046FFF70CF9C3
:1046E0000028ABD1874B1B681BB1DB6A0BB1864836
:1046F0009847864B00221A80824B1B689B694FF4B7
:104700007A709847824B1B78022B97D1002128683A
:10471000FFF71EFA0428F5D801A353F820F000BFD4
:10472000354700005F470000054700006D47000067
:1047300051470000734B1B681BB1DB6A0BB1754816
:104740009847724B00221A80714B05221A7075E748
:10475000714B0D221A706E4B02221A70D2E76E4B0B
:104760000E221A706A4B02221A70CBE76A4B0F2294
:104770001A70674B02221A70C4E7624B1B685B6AAF
:104780009847634B1B78052B3FF41DAF604B0C2201
:104790001A7018E7604B0D221A705D4B02221A70D6
:1047A00011E75D4B0E221A70594B02221A700AE76C
:1047B000594B0F221A70564B02221A7003E7514BC5
:1047C0001B681BB1DB6A0BB154489847002128686D
:1047D000FFF7F0F9042811D8DFE800F00327102EC6
:1047E0002000484B1B681BB1DB6A0BB14C48984753
:1047F000464B00221A80464B04221A70434B1B88FA
:104800009BB2142B40F29582404B00221A80424BFF
:1048100004221A703E4B0C221A708AE23E4B0D2283
:104820001A703B4B03221A70E8E73B4B0E221A70BA
:10483000374B03221A70E1E7374B0F221A70344BC3
:1048400003221A70DAE72F4B1B681BB1DB6A0BB12E
:10485000344898470023EA68A9682868FFF7DCF91C
:10486000052814D8DFE800F0032A13312331254B43
:104870001B681BB1DB6A0BB12B489847234B002206
:104880001A800120FFF7CCFD214B05221A701F4B27
:104890001B889BB23C2B40F24C821C4B00221A809E
:1048A0001D4B05221A701A4B0C221A7041E21A4B4A
:1048B0000D221A70164B04221A70E8E7164B0E22CE
:1048C0001A70134B04221A70E1E7134B0F221A706F
:1048D0000F4B04221A70DAE70A4B1B681BB1DB6A24
:1048E0000BB1124898470022297C2868FFF7DAF9B3
:1048F000042843D8DFE800F01C5242593C0000BFB6
:10490000F4AC00001C59002010AD0000D24400207F
:10491000CC44002034AD0000D044002050AD000055
:1049200070AD000094AD0000B0AD0000D0AD00004F
:104930008C4B1B681BB1DB6A0BB18B4898478B4CC7
:104940004FF00008A4F80080864B1B689B6940F676
:10495000B8309847A4F80080687CFEF737FF18B19C
:10496000834B07221A70E4E1814B07221A70E0E1C1
:10497000804B0D221A707E4B05221A707B4B1B88D0
:104980009BB2142B40F2D581784B00221A80794BD0
:1049900006221A70764B0C221A70CAE1754B0E2251
:1049A0001A70734B05221A70E8E7724B0F221A70C7
:1049B0006F4B05221A70E1E76A4B1B681BB1DB6A7B
:1049C0000BB16D48984700212868FFF7F7F90428D4
:1049D00011D8DFE800F00327102E2000614B1B6880
:1049E0001BB1DB6A0BB165489847604B00221A8007
:1049F0005F4B07221A705D4B1B889BB2782B40F2ED
:104A000098815A4B00221A805A4B07221A70584B31
:104A10000C221A708DE1574B0D221A70544B06224E
:104A20001A70E8E7534B0E221A70514B06221A7087
:104A3000E1E7504B0F221A704D4B06221A70DAE74D
:104A4000484B1B681BB1DB6A0BB14D4898470023EC
:104A5000039302930193EB690093AB696A69697CE4
:104A60002868FFF75FF9042823D8DFE800F0033255
:104A700022391C003B4B1B681BB1DB6A0BB1414860
:104A800098473A4B00221A803F4B01221A70687CEB
:104A9000FEF7A4FE18B1364B08221A7009E0344B19
:104AA0000A221A7005E0334B0D221A70304B072290
:104AB0001A702E4B1B889BB2142B40F23A812B4B61
:104AC00000221A802B4B09221A70294B0C221A70D3
:104AD0002FE1284B0E221A70254B07221A70E8E7A7
:104AE000234B07221A70E4E71E4B1B681BB1DB6ADD
:104AF0000BB1264898470022A96A2868FFF7D8F921
:104B0000042811D8DFE800F0032710462000154BD9
:104B10001B681BB1DB6A0BB11D489847134B002281
:104B20001A80134B0A221A70104B1B889BB2142B4D
:104B300040F2FF800D4B00221A800E4B08221A70A3
:104B40000B4B0C221A70F4E00A4B0D221A70084B22
:104B500008221A70E8E7074B0E221A70044B08224D
:104B60001A70E1E71C590020F0AD0000D24400208B
:104B7000CC440020D04400200CAE000028AE000041
:104B800048AE000068AE0000D544002088AE0000AA
:104B9000A4AE0000844B0F221A70844B08221A70B6
:104BA000C2E7834B1B681BB1DB6A0BB18148984796
:104BB0000023019395F82430009395F8233095F85D
:104BC0002220298C2868FFF7B3F9042811D8DFE8E0
:104BD00000F00327102E2000754B1B681BB1DB6A09
:104BE0000BB175489847754B00221A806F4B0A220B
:104BF0001A70724B1B889BB2142B40F29A806F4B39
:104C000000221A80684B0A221A70684B0C221A7014
:104C10008FE0654B0D221A70644B09221A70E8E789
:104C2000614B0E221A70614B09221A70E1E75E4B4C
:104C30000F221A705D4B09221A70DAE75C4B1B6871
:104C40001BB1DB6A0BB15E489847002395F82C2016
:104C5000A96A2868FFF7B2F904283DD8DFE800F018
:104C6000084B3C523600554B1B889BB2C82B26D8AC
:104C70004E4B1B780A2B2FD100212868FFF7E2F951
:104C800004460028EFD12B6893F91A30342BEAD16F
:104C9000474B1B681BB1DB6A0BB14A48984700239E
:104CA000464A1380484A13700123484A1370484A01
:104CB00013700B233D4A1370464A137070E03F4B4C
:104CC00000221A80394B0C221A70D1E7364B0D2284
:104CD0001A70364B0A221A70384B1B889BB2642B11
:104CE00027D9364B00221A802F4B0B221A702F4BDC
:104CF0000C221A701DE02C4B0E221A702B4B0A222C
:104D00001A70E9E7284B0F221A70284B0A221A70F2
:104D1000E2E7274B1B681BB1DB6A0BB12E489847B3
:104D2000022E04D80136F6B2204B00221A70032E50
:104D300022D01E4B1C780B2C2FD00C2CF9D801A3A1
:104D400053F824F0A544000031450000BB450000A5
:104D5000BF47000047480000D9480000B94900009B
:104D6000414A0000E94A0000A34B00003D4C00000E
:104D7000334D0000134D00000D4B1B681BB1DB6A67
:104D80000BB11648984700260F4B1E70144B01229A
:104D90001A70064B0B221A70CBE7114B1C78E4B249
:104DA000204636B0BDE8F081D0440020CC4400203D
:104DB0001C590020C4AE0000E4AE0000D244002024
:104DC00004AF000024AF0000D1440020D4440020F0
:104DD000D5440020FC00002050AF000074AF00005C
:104DE000D6440020014B1868704700BF20590020AE
:104DF00010B5044603F0D6FD0246012321460020EB
:104E000001F05CF910BD08B50A46012301460220F5
:104E100001F054F910F1030F05D030B110F1040F77
:104E200005D1032002E0022000E0002008BD01209F
:104E3000FCE70000032800D9704708B5064B03EBD8
:104E4000400C012914BF002201229CF8011013F824
:104E5000100002F0D8F908BDECB5000008B500203C
:104E600001F08FFD003818BF012008BD08B50020F3
:104E700001F079FD003818BF012008BD08B503F026
:104E8000D9FA08BD00B583B000238DF807300DF1C5
:104E90000701022001F02AFA9DF8070000F0010046
:104EA00003B05DF804FB00B583B000238DF8073034
:104EB0000DF10701022001F005FA9DF8070080F0CE
:104EC000010003B05DF804FB08B5022001F0DEF933
:104ED000003818BF012008BD08B50A460023014666
:104EE000022001F04DF910F1030F02D010B10120A2
:104EF00000E0022008BD00002DE9F04107460D4604
:104F000016460E4BD3F800800024AC4210D20B4B57
:104F10001B68A3EB0803B3420AD201231A463919CE
:104F2000022001F02DF90028EFD10134A4B2ECE702
:104F300014B10020BDE8F0810320FBE720590020D8
:104F4000024A136801331360704700BF20590020E4
:104F500008B50248FEF77EFC08BD00BFBCB50000E6
:104F60002DE9F041002800F0A7800D4616461F46A7
:104F70000446002A00F0A580012B40F2A580002005
:104F80001070804618E00CF1010C6319634503D9D9
:104F90009CF900202C2AF6D1634540F28F809CF9C1
:104FA00000202C2A40F08A800CF101009CF901209D
:104FB000222A13D0001B80B200F10D03AB427DD238
:104FC0004349204403F0A4FC002877D0A0EB040C54
:104FD0001FFA8CFC0CF10D0CA444D6E70CF1020C6A
:104FE00001E00CF1010C634503D99CF90020222A51
:104FF000F7D1634562D99CF90020222A5ED10CF1D9
:1050000001009CF901202C2A02D0001B80B2D3E7BA
:105010000CF1020C002207E002EB820201EB4201DC
:10502000A1F130020CF1010C634505D99CF9001087
:105030002F2901DD3929EFDD634504D99CF90030C2
:105040002C2B00D122B9ACEB040C1FFA8CF0B3E787
:105050000CF101031B1B9BB29918A9422ED8B8F181
:10506000000F0DD0404608F10101B94208D21FFAE5
:1050700081F84FF00A0C06F800C089B20020705485
:10508000002100E001318A4212D9C64608F1010030
:10509000B842F7D213FA81FC1FFA80F814F90CC059
:1050A00006F80EC080B24FF0000C06F800C0E9E729
:1050B00013FA82F290B27FE74FF000084046BDE855
:1050C000F0814FF00008F9E74FF00008F6E700BF65
:1050D000389F00002DE9F04F85B08046894615467F
:1050E000FEF7BEFB00286AD00446B8F1000F68D076
:1050F000B9F10F0F04D80026304605B0BDE8F08F97
:105100004A460021404603F0C9FBE3699847074639
:1051100001904FF0000BDA465E46E3699847C01BEA
:10512000A842E9D26368052201210DF10F009847DA
:1051300058B1BAF1000FF0D0E3699847019BC01A4B
:1051400040F2DB539842E8D9D6E73246731C9945C2
:1051500008D99EB29DF90F1008F802109BB20022E8
:1051600008F80320E36998470190BAF1000FD4D101
:10517000154B13F90B209DF80F109DF90F309A4233
:1051800003D02B2914D0D346C7E70BF1010B5FFAEC
:105190008BFB0D4B13F90B30002BBED1E369984705
:1051A000C31B03F57A639D4205D34FF0010AB4E7B0
:1051B0004FF0010BB1E71D464FF0010AADE70026A5
:1051C0009AE7002698E700BFF4B50000002840D019
:1051D00070B590B00B461646044600293DD0002A13
:1051E0003ED0244A4021684603F0CAFA6946204668
:1051F00003F08EFB0446B0B3684603F0D3FB0444CF
:1052000000E0013494F90050202DFAD0092DF8D097
:1052100004221949204603F056FB034668B10522D3
:105220001649204603F04FFB034658B1312D0CD0F0
:10523000302D1BD10023337001E00122327018465B
:1052400010B070BD00223270F9E7012333700023E3
:10525000F5E74FF0FF33184670474FF0FF33EEE7A6
:105260004FF0FF33EBE74FF0FF33E8E74FF0FF334A
:10527000E5E700BFBCB00000E09C0000E89C000037
:1052800070B590B00646D0B30C46D1B30B461F4A5A
:105290004021684603F074FA6946304603F038FB53
:1052A000054638B1684603F07DFB013805442846C1
:1052B00010B070BD2346164A4021684603F060FADC
:1052C0006946304603F024FB0446E0B1684603F02B
:1052D00069FB204490F900303A2B0BD003DD7B2B87
:1052E000E5D10546E3E70D2B04D005DC093BDBB235
:1052F000012BDCD80130EDE7202BFBD0D7E70546AA
:10530000D5E70D46D3E70546D1E700BFC4B000009E
:10531000CCB0000070B505460C4628492848FFF778
:10532000AFFF60B106462748FDF7F8FA2146304640
:10533000A84708B9012070BD4FF0FF30FBE72249B4
:105340001F48FFF79DFF064690B12049FFF798FFE1
:1053500098B11E493046FFF793FF064640B31C48FC
:10536000FDF7DCFA21463046A847F0B90120E2E714
:105370001848FDF7D3FA0020DDE717493046FFF75C
:105380007FFF0028E5D10D493046FFF779FF00285F
:10539000DFD11248FDF7C2FA21463046A84708B9C6
:1053A0000120C8E74FF0FF30C5E74FF0FF30C2E7FC
:1053B0000B48FDF7B3FA0020BDE700BF4C9E00008C
:1053C00024590020D4B00000F4B0000020B1000047
:1053D00058B10000FCB0000028B1000034B100005A
:1053E0007CB1000000294FD0F0B59BB014460D46AB
:1053F00002464FF440612848FFF76CFE074600283C
:1054000045D02649244803F083FA002842D04FF4BF
:105410000063234A39462048FFF7A2FD064650B1F3
:105420003A4601461F48FDF783FA602E28BF6026E2
:10543000B1B200230BE039461B48FDF779FA002092
:1054400026E06830684400F8642C01339BB28B423C
:105450000BD21846124AD256A2F1200C5FFA8CFCED
:10546000BCF15E0FEDD92E22EBE701F168030DEBE5
:105470000301002301F8643C01A8FDF74FFA21461F
:105480002846FFF747FF03E04FF0FF30704700204A
:105490001BB0F0BD0020FBE724610020389F000016
:1054A00024590020D4B10000A4B1000000284AD043
:1054B00010B504462548FDF731FA0023012224499E
:1054C0002046FEF72FFE30BB2248FDF727FA0023C7
:1054D000012221492046FEF725FE10BB1F48FDF79B
:1054E0001DFA002301221E492046FEF71BFEF0B9DB
:1054F000002301221B492046FEF714FED8B90023E1
:10550000012219492046FEF70DFEC0B91748FDF7E4
:1055100005FA002010BD1648FDF700FA4FF0FF30E5
:10552000F8E71448FDF7FAF94FF0FF30F2E71248B8
:10553000FDF7F4F9DCE71148FDF7F0F9DFE7104873
:10554000FDF7ECF9E2E74FF0FF307047F4B10000EF
:1055500010B2000068B200008CB20000ECB2000093
:1055600014B3000080B30000E4B3000050B40000A6
:105570004CB20000C8B2000054B30000BCB300003D
:1055800024B40000D0B110B584B004460D48FDF736
:10559000C5F9002302930193012300930A4B0222D1
:1055A0000A492046FEF716FE10B9002004B010BDCF
:1055B0000748FDF7B3F94FF0FF30F7E74FF0FF3042
:1055C000704700BF6CB4000068A3000084B4000002
:1055D000B8B40000002834D010B5ADF5447D1346B2
:1055E00004468AB37F2932D91A4A4FF4407104A87D
:1055F00003F0C6F8013840F2FE23984215D8164849
:10560000FDF78CF904A803F0CDF900230293019370
:105610000123009304AB82B210492046FEF7DAFD65
:1056200048B900200DF5447D10BD0D48FDF776F911
:105630004FF0FF30F6E70B48FDF770F94FF0FF3001
:10564000F0E74FF0FF3070474FF0FF30EAE74FF0E0
:10565000FF30E7E7D4B4000014B5000034B5000013
:10566000F0B4000068B5000008B511461A464FF4C2
:105670004870FFF7B7FE08BD08B510461946632A03
:1056800000D86420029AFFF7ADFE08BD10B44FF0B9
:1056900080439A6A42F4FE429A621A6B42F4FE42D6
:1056A0001A63D3F89C2042F08062C3F89C20D3F8A0
:1056B000A02042F0042242F00A02C3F8A020354A9A
:1056C0001523C2F8F03F5123C2F8F03F00231361C5
:1056D00013639363D36353616FF4EE0111602E493A
:1056E00051606FF040719160D3602C490B614FF6AF
:1056F000306008638863CB634B61294808602948A0
:10570000486029488860CB6028484FF400710161E7
:1057100003638363C3634361254901602549416095
:105720004FF0FF318160244CC46000F5807003614C
:1057300003638363C3634361016041608160C3604D
:1057400000F58070036103638363C3634361016099
:1057500041608160C36000F5807003618024046350
:105760008463C36343616FF0E044046041606FF49D
:1057700040448460C36000F5807003610363836309
:10578000C3634361016041608160C360C2F8F03F60
:1057900010BC70470000014199FFF8FF0001014172
:1057A000FFFF88998F888888FFF00300000201417D
:1057B000BBBBFBFF8FBBFFBB8A02A00008B5FFF796
:1057C00065FF00F00DF800F0E3F800F08DF900F04F
:1057D00029F900F0ABF800F047F8002008BD000000
:1057E00030B585B002258DF80C5000248DF80D40A1
:1057F0008DF80E401B4A6B4607CA03C31A7001217D
:10580000284601F0EBFA0121084601F0E7FA0121F0
:10581000204601F0E3FA0121032001F0DFFA03A89A
:1058200001F07CFA6946012001F00AFB04238DF89F
:105830000C308DF80D408DF80E4003A801F06EFA83
:10584000204601F07DFB22460F21284601F06AFB2D
:105850002146204601F0C2FA2146032001F0BEFA9B
:1058600005B030BD04B6000008B5FBF723F9FBF71F
:105870004FF908BD00B589B0002006908DF81C00D6
:1058800002238DF81B30039004908DF814008DF8DE
:105890000C3001238DF8143002F0B0FB10B109B0C8
:1058A0005DF804FB06A902F0C5FB0028F7D103A9A7
:1058B00002F0D8FB0028F2D1032300930023034A0F
:1058C0001946184602F012FCE9E700BF39590000FA
:1058D00000B589B0002306938DF81C3002228DF8A4
:1058E0001B20039304938DF8143001208DF81400CD
:1058F00002F084FB10B109B05DF804FB06A9012099
:1059000002F098FB0028F6D103A9012002F0AAFBBF
:105910000028F0D1032300930023034A19460120F5
:1059200002F0E4FBE7E700BF3B59000008B5FFF7D2
:10593000A1FFFFF7CDFF08BD7047704700B587B0E6
:10594000002302930393049305930F4B04930123C5
:105950008DF814303223ADF81630022001F0C6FE67
:1059600010B107B05DF804FB02A9022001F000FFAE
:105970000028F6D1032300930023044A194602208D
:1059800001F042FFEDE700BFA08601009959000039
:1059900008B5FFF7D3FF08BD7047000000B589B018
:1059A00000200690ADF81C0002238DF818300390FB
:1059B0000490ADF8140041F2F853ADF81230012311
:1059C000ADF8143002908DF8083000F04FFE10B1A1
:1059D00009B05DF804FB06A900F068FE0028F7D1C5
:1059E00003A900F095FE0028F2D1032300930023C1
:1059F0000B4A1946184600F029FF0028E8D100217B
:105A0000084600F0CCFF0028E2D10021084600F053
:105A1000D7FF0028DCD102A900F0F0FED8E700BFD4
:105A20002D5A000008B5FFF7B9FF08BD7047000008
:105A300000B587B0134B53F8042BADF81420120CAB
:105A40008DF8162003AA93E8030082E803000020E3
:105A500000F01EFA10B107B05DF804FB05A900F0D4
:105A600043FA0028F7D103A900F04AFA0028F2D13E
:105A7000032300930023044A1946184600F094FAC1
:105A8000E9E700BF10B60000F55A000000B587B086
:105A9000134B53F80C2BADF81420120C8DF8162074
:105AA00003AA93E8030082E80300022000F0F0F963
:105AB00010B107B05DF804FB05A9022000F014FA4C
:105AC0000028F6D103A9022000F01AFA0028F0D12C
:105AD00000230093034A0121022000F065FAE8E761
