:1000000000000420558A0000A18400004F8A0000EF
:10001000518A0000518A0000518A0000000000004F
:10002000000000000000000000000000518A0000F5
:10003000518A000000000000518A000021270000C2
:10004000518A000039760000437600004D760000AA
:10005000518A0000518A0000518A0000518A000034
:10006000518A0000518A0000518A0000518A000024
:10007000518A0000518A0000518A0000AB700000D4
:10008000B5700000BF700000C9700000D3700000A0
:10009000DD700000E7700000F1700000FB700000F0
:1000A00005710000518A0000518A0000518A000049
:1000B000518A0000518A0000518A0000518A0000D4
:1000C000518A0000518A0000518A0000518A0000C4
:1000D0000F790000177900001F79000027790000D0
:1000E0002F790000377900003F790000518A000025
:1000F000518A0000518A0000518A0000518A000094
:10010000518A0000518A0000518A0000518A000083
:10011000518A0000518A0000518A0000518A000073
:10012000518A0000518A0000518A0000518A000063
:10013000B1830000BB830000C5830000D3690000C9
:10014000DD690000E7690000F1690000FB6900005B
:10015000056A0000518A0000518A0000518A00009F
:10016000518A0000518A0000318A00003B8A000059
:10017000458A0000518A0000518A0000518A00001F
:10018000518A0000518A0000518A0000518A000003
:10019000518A0000518A0000518A0000518A0000F3
:1001A000518A0000518A0000518A0000518A0000E3
:1001B000518A0000518A0000518A0000518A0000D3
:1001C000518A0000518A0000518A0000518A0000C3
:1001D000CF830000518A0000518A0000518A00003C
:1001E000518A0000518A0000518A0000518A0000A3
:1001F0000F6A0000196A0000236A00002D6A0000DF
:10020000376A0000416A00004B6A0000518A000012
:10021000518A0000518A0000518A0000518A000072
:10022000518A0000518A0000518A0000518A000062
:10023000518A0000000000000000000000000000E3
:1002400000000000000000000000000000000000AE
:10025000000000000000000000000000000000009E
:10026000000000000000000000000000000000008E
:10027000000000000000000000000000000000007E
:10028000000000000000000000000000000000006E
:10029000000000000000000000000000000000005E
:1002A000000000000000000000000000000000004E
:1002B000000000000000000000000000000000003E
:1002C000000000000000000000000000000000002E
:1002D000000000000000000000000000000000001E
:1002E000000000000000000000000000000000000E
:1002F00000000000000000000000000000000000FE
:1003000000000000000000000000000000000000ED
:1003100000000000000000000000000000000000DD
:1003200000000000000000000000000000000000CD
:1003300000000000000000000000000000000000BD
:1003400000000000000000000000000000000000AD
:10035000000000000000000000000000000000009D
:10036000000000000000000000000000000000008D
:10037000000000000000000000000000000000007D
:10038000000000000000000000000000000000006D
:10039000000000000000000000000000000000005D
:1003A000000000000000000000000000000000004D
:1003B000000000000000000000000000000000003D
:1003C0000348044B834202D0034B03B118477047E4
:1003D000A4010020A4010020000000000548064BF5
:1003E0001B1AD90F01EBA301491002D0034B03B133
:1003F00018477047A4010020A4010020000000005D
:1004000010B5064C237843B9FFF7DAFF044B13B15C
:100410000448AFF300800123237010BDA401002025
:10042000000000003CC0000008B5054B1BB10549A9
:100430000548AFF30080BDE80840FFF7CFBF00BF1D
:1004400000000000A80100203CC00000A3F5803A95
:10045000704700BF174B002B08BF134B9D46FFF79B
:10046000F5FF00218B460F461348144A121A08F074
:1004700079FD0E4B002B00D098470D4B002B00D080
:1004800098470020002104000D000D48002802D0EC
:100490000C48AFF3008008F0B5FD2000290005F0FE
:1004A000F1FC08F0BFFC00BF0000080000000000E5
:1004B0000000000000000420A4010020207600209D
:1004C000000000000000000010B501F0FFFA022853
:1004D00004D001F0BFFA20B9002010BD01F0E8FA05
:1004E000F7E702F05DF9044601E001F0E1F802F0FF
:1004F00057F9001BB0F57A7FF7D301F0D9FA01F074
:100500003DFAEAE770B586B004460D460021ADF825
:100510000A10ADF80810ADF80610242208F022FDEC
:10052000211D204600F014FF68B10123237203A8A7
:1005300002F006FA68B19DF8143053B10123237418
:10054000049BE36006E0002DF1D01B4802F06AFA3C
:10055000EDE7E5B90DF1060202A90DF10A0001F07F
:100560005FFFC0B101232376BDF80A306382BDF876
:100570000830A382BDF80630E382FFF7A5FF0646E8
:1005800078B1012384F82030E66106B070BD0B48D5
:1005900002F048FADEE7002DEFD0094802F042FAF7
:1005A000EBE701F099FA0028EBD1002DEDD00548DA
:1005B00002F038FAE9E700BFD4990000E89900009A
:1005C000FC990000109A000008B50A4802F02AFAC7
:1005D000094802F027FA094802F024FA01F058FF0E
:1005E000782001F09CFF01F07FFF054802F01AFA25
:1005F00008BD00BF289A0000549A0000709A0000BD
:100600009C9A000038B5334802F00CFA324802F0E8
:1006100009FA324802F006FA314802F003FA00F013
:100620008DFE002839D02F4802F0FCF90024012566
:100630002D4802F0F7F902F071F9002833D02B4869
:1006400002F0F0F9691CCDB2294802F0EBF901F093
:10065000DDFE70B3274802F0E5F9691CCDB22648EB
:1006600002F0E0F901F0EAF948B3244802F0DAF9BF
:10067000691CCDB2224802F0D5F92B19DBB2224613
:100680002946204802F0D8F9FCB91F4802F0CAF9FF
:10069000124802F0C7F9204638BD1C4802F0C2F9E2
:1006A00001240025C4E71A4802F0BCF90134E4B281
:1006B000CAE7184802F0B6F90134E4B2CFE71648A9
:1006C00002F0B0F90134E4B2D4E72146134802F055
:1006D000B3F9DDE7289A0000B89A0000709A00008C
:1006E000DC9A0000049B0000309B00004C9B000043
:1006F0007C9B0000A09B0000D09B0000F09B0000B2
:10070000289C0000549C0000789C0000149B000072
:10071000609B0000B49B0000089C0000949C0000BB
:1007200010B5034C00212046FFF7ECFE204610BD1B
:10073000C401002000285AD02DE9F0438BB00D46AB
:1007400014460146002D54D0002A54D002682B488C
:1007500080FB0230D317C3EBA013002A3BDB4FF41E
:100760007A7606FB132C4A68244E86FB0270D71754
:10077000C7EBA0174FF47A7808FB172EC868A6FBC2
:100780000026B20908FB1200B1F91260B1F9148019
:10079000B1F91690C9690891CDF81C90CDF8188070
:1007A0000596049003921649A1FB0E02D20802920C
:1007B0000197A1FB0C12D2080092124A214628464A
:1007C00008F042FB002801DB844200DC601E80B29E
:1007D0000BB0BDE8F0835242084E86FB0206D017EC
:1007E000C0EBA6104FF47A7606FB102CBBE7002076
:1007F00070470020ECE71046EAE700BFD34D6210D7
:10080000CDCCCCCCB49C000000286ED0034600298F
:100810006DD0002A6DD010B4007A68B11C6847F220
:100820003050844235DD3448007800283BD1012027
:10083000314C207000240C701C7EACB1B3F9164012
:10084000B4F52F7F31DC2D4C24786CB92B4C4FF054
:10085000010C84F800C0904206D200EB0C044FF06B
:10086000020C01F800C0E0B293F820407CB1DB69D3
:10087000B3F5FA6F2BD9224B1B7843B9204B0124D7
:100880001C70904203D2031904220A54D8B210BC3F
:100890007047194800780028CED01748002404700B
:1008A00001200870C8E70020C6E7144C2478002C0B
:1008B000DAD0124C4FF0000C84F800C09042D3D232
:1008C000441C4FF0030C01F800C0E0B2CCE70C4B25
:1008D0001B78002BDBD00A4B00241C709042D6D230
:1008E000431C05220A54D8B2D1E7002070470020EB
:1008F00070471046704700BFC2010020C1010020B0
:10090000C0010020002975D010B582B08446104681
:100910001C46002A70D0002C70D0BCF1050F70D896
:10092000DFE80CF0032B4E555C620A68384981FB06
:100930000231D317C3EBA113002A12DB4FF47A7CE8
:100940000CFB13223349A1FB0212D2080092324A57
:10095000214608F079FA002855DB844255DD80B243
:100960004DE052422A4981FB021CD117C1EBAC1168
:100970004FF47A7C0CFB1122E4E70A68244981FBDE
:100980000231D317C3EBA113002A0DDB4FF47A7C9D
:100990000CFB13221F49A1FB0212D20800921F4A2E
:1009A000214608F051FAD6E75242194981FB021C50
:1009B000D117C1EBAC114FF47A7C0CFB1122E9E7A3
:1009C000B1F91630164A214608F03EFAC3E7B1F9EC
:1009D0001630144A214608F037FABCE7CB69124AB0
:1009E000214608F031FAB6E7CB69104A214608F0F3
:1009F0002BFAB0E700207047002000E0204602B04C
:100A000010BD0020FBE70020F9E70020F7E700BF5A
:100A1000D34D6210CDCCCCCC109D0000789D000051
:100A2000E09D0000409E0000989E0000F89E00009F
:100A300010B50B4801F0F6FF0A4801F0F3FF0A4C2D
:100A4000204601F0EFFF094801F0ECFF084801F0F3
:100A5000E9FF204601F0E6FF064801F0E3FF10BD84
:100A6000589F0000609F0000849F0000A89F000026
:100A7000CC9F0000F09F000008B504F057FD0A4B22
:100A80001B7883B1094A138801339BB21380B3F5F5
:100A90007A7F08D3134600221A80054A13889BB236
:100AA00001339BB2138008BD0D450020E8010020F2
:100AB0000E45002010B501F047FE01F0E9FC01F001
:100AC00079FE01F0ABFE01F091FF08B9002409E0C6
:100AD000002001F0E8FC07E064221146002001F04C
:100AE0000EFD0134042CF7D9FFF7A2FFFFF76CFDD0
:100AF000FFF788FD014620B94FF47A7001F046FEF9
:100B000010BD024801F098FFF6E700BF18A00000F2
:100B100030B585B000F022F88DF80F000123029364
:100B2000FFF7FEFD0446032201A9FFF76DFE024612
:100B30009DF80F3001A9204600F0FCF89DF80F50F9
:100B400000F040F90146284600F040F902AA0DF1F4
:100B50000F01204600F0ACF8E2E7000038B500F0E5
:100B600047FA3F4801F05EFF3E4801F05BFF3E4818
:100B700001F058FF3D4801F055FF01F079FD10B13B
:100B800001F0ACFD68BB3A4801F04CFF04F0D6FC24
:100B90004FF4A051374804F04BFB30BB02F044FE49
:100BA00002F014FA044630B3334801F03BFF3348F7
:100BB00001F038FF02F066FE002847D1304801F00E
:100BC00031FF304801F02EFF04F092FB01F02AFFC4
:100BD0004FF4A051274800F021FA00283BD101240E
:100BE00007E0294801F01EFFD0E7284801F01AFF6E
:100BF0000024204638BD264801F014FF04F078FB9D
:100C000001F010FF4FF4A0511A4802F093FA80B996
:100C1000204801F007FF02F03AFE054668B94FF49C
:100C2000A051144802F0ACFA58B91B4801F0FAFE82
:100C3000BDE71A4801F0F6FEDBE7194801F0F2FEC5
:100C4000D7E7184801F0EEFE2C46D2E7164801F02F
:100C5000E9FE0024CDE7154801F0E4FE0124C8E7D1
:100C6000289A00003CA00000709A000064A00000D8
:100C700094A000005C450020C4A0000008A2000071
:100C800038A2000060A2000084A00000B0A0000014
:100C900000A1000050A10000CCA1000028A100008C
:100CA00084A10000ACA1000080A20000A0A200006E
:100CB000002836D0F8B50C461546074651B14AB162
:100CC0000B7843B9267866B902F0DCFD00B901263D
:100CD0002670C6B9F8BD4FF4A051124800F0E0F9F3
:100CE000F0E7114801F09EFE384602F0D5FD296874
:100CF0004B1C2B600D4801F09FFE4FF4A05109489A
:100D000000F0CEF9E6E74FF4A051064800F086F96E
:100D100018B9384602F0C0FDDCE7054801F082FE54
:100D2000F7E770475C450020DCA20000F4A2000059
:100D30000CA30000002837D02DE9F043B1B00E46D7
:100D400015461F46804661B35AB3002417E0DFF80A
:100D50005C90C0236A464146FFF7D4FDC0B14946C6
:100D6000134801F069FE684601F05CFEAFB16846C9
:100D700002F0BCFD0F4801F055FE0134E4B2AC4274
:100D80000FD2305D0528E2D80B4B53F82090E0E7F6
:100D900049460A4801F050FEEFE7094801F042FEDB
:100DA000EBE731B0BDE8F083704700BF34A300002B
:100DB0005CA300009CA3000058BE00003CA3000000
:100DC0006CA3000008B500F08DF908BD08B518B98E
:100DD000084601F0DBFC08BD0A464FF4A05102486A
:100DE00000F06AF9F7E700BF5C45002008B5074B43
:100DF0001B782BB101F06DFB054801F013FE08BD17
:100E000001F072FB034801F00DFEF8E7EC01002051
:100E100014A4000038A4000030B583B000238DF87E
:100E2000073000286BD00446364B01221A70364931
:100E300008F0D2F830B10DF10702344904F002FE97
:100E40000546E8B13249204604F07CFE054618B15B
:100E5000304908F0C1F810B32F49204608F0BCF81B
:100E600038B10DF10702294904F0ECFD05460028D0
:100E700039D02A4801F0D6FD0025284603B030BD00
:100E80009DF80710264801F0D7FD9DF80720254B57
:100E90001A70FFF7ABFF244B01221A70EDE71E49D1
:100EA000284608F099F80028D6D11749284608F0B6
:100EB00093F80028D0D10DF107021449284604F018
:100EC000C1FD05460028C7D19DF80710174801F05D
:100ED000B3FD9DF80720134B1A70FFF787FF124BE5
:100EE00001221A70C9E79DF80710114801F0A4FD0E
:100EF0009DF807200B4B1A70FFF778FFBDE74FF006
:100F0000FF35BAE7EA01002060A4000068A40000F1
:100F10009CA40000A4A40000B0A4000014A500003C
:100F200074A40000EC010020EB010020BCA4000030
:100F3000E8A4000030B58BB004460D460E4B1B787C
:100F4000ABB10E4B0E4A2821684607F07DFF6A467A
:100F50002946204604F0A6FE044650B9094B00225B
:100F60001A70094801F05EFD20460BB030BD074BFA
:100F7000E8E74FF0FF34F7E7EC0100202CA5000074
:100F80003CA50000EB01002050A5000034A50000A6
:100F900070B582B006460D460024012C0BD8002304
:100FA0000A490B7000930A4B2946304604F0C8FEEC
:100FB000084B1B780BB902B070BD29463046FFF7CD
:100FC000B9FF0134E4B240F6B832E6E7EA010020A6
:100FD000190E0000EB01002070B504460D461646C0
:100FE00004F038FE324629462046FFF7D1FF70BD97
:100FF00008B50023054A1380054A1370054A13708B
:1010000001F072FA044801F00DFD08BDEC0100206A
:10101000EB010020EA0100206CA500002DE9F04161
:1010200070B30D460746FF292DD904F0D9FD80463F
:10103000D0B9164B01225A700024022C1AD8611C18
:10104000134801F0F9FC134E0023337041F288324B
:1010500029463846FFF7C0FF33785BB90E4801F0E8
:10106000E1FC0134E4B2E8E7084B00225A704FF08B
:10107000FF3802E0094801F0D5FC4046BDE8F081A8
:101080004FF0FF38F9E74FF0FF38F6E7EC010020AA
:1010900080A50000EA010020A0A50000CCA500006A
:1010A00008B5044B5B7823B118B14FF44872FFF7D1
:1010B0006FFF08BDEC01002008B568B18446084BFD
:1010C0005B784BB140F6B7339A4201D840F6B8325C
:1010D0006046FFF781FF08BD104601F057FBFAE7B5
:1010E000EC0100204FF4FA60704708B504F00EF9E7
:1010F00008BD08B504F026F908BD0278407840EA3A
:101100000220704708B5FFF7F8FF08BD45F273539A
:1011100003FB00F04013A0F52F40C838704743F69A
:10112000095303FB00F04013A0F5BB501038704783
:10113000F0B583B00C4617461E468DF8000001221C
:101140006946442000F073F8054610B1284603B004
:10115000F0BD204600F0BCF804226946442000F0AF
:101160006AF805460028F1D16846FFF7CBFF3880C2
:101170000DF10200FFF7C6FF3080E7E708B5024631
:101180000B4642F21071FD20FFF7D2FF08BD70B58B
:1011900082B005460C4601A90DF10600FFF7EEFFEF
:1011A000064648B9BDF80600FFF7B0FF2860BDF855
:1011B0000400FFF7B4FF2060304602B070BD10B5E8
:1011C00082B094238DF8073001220DF107014420ED
:1011D00000F02DF8044610B1204602B010BD42F2D6
:1011E000107000F075F8F7E78446FF2000220EE04B
:1011F0004000C0B2013BDBB23BB110F0800FF7D032
:101200004000C0B280F03100F4E7013292B28A426D
:1012100004D21CF8023058400823EDE7704710B59F
:101220001446FFF7E1FF001B18BF012010BD08B5F1
:1012300000F03EF808BD2DE9F04112F001041FD185
:101240000D46520802EB420297B23A4600F020F8EF
:101250008046B8B92646BC4214D2A31CEA5C0221DF
:101260002819FFF7DCFF80B9731C9BB22A5DAA55D1
:101270000236B6B22A195278EA540334A4B2EAE725
:101280004FF004084046BDE8F0818046FAE7704719
:1012900000B583B01346012200920A46014602209F
:1012A00006F06CFF10B903B05DF804FB0220FAE70A
:1012B00000B583B01346012200920A46014602207F
:1012C00006F090FE10B903B05DF804FB0220FAE7C7
:1012D00008B500F2E7330548A0FB03208009B3F509
:1012E0007A7F00D2012001F051FA08BDD34D62107F
:1012F00010B5074B1C780CB1204610BDFFF7C7FF97
:10130000FFF75DFF0028F7D10124014B1C70F3E7C4
:10131000EE01002008B50346074A107838B13BB10A
:1013200041B11846FFF733FFB0FA80F0400908BD1D
:101330000020FCE70020FAE7EE01002008B5FFF7E7
:10134000D7FF10B1014B01221A7008BDEF01002038
:1013500008B50346064A107820B123B129B11846D2
:10136000FFF7D8FF08BD0020FCE70020FAE700BF28
:10137000EF010020002807DB00F01F0240090123D5
:101380009340024A42F82030704700BF00E100E07D
:1013900000280CDB00F01F0240090123934020309D
:1013A000034A42F82030BFF34F8FBFF36F8F70476F
:1013B00000E100E0074B1B685B08B3FBF0F28342DF
:1013C00000D3013AB2F5803F01D34FF6FF7290B2DD
:1013D000704700BF48010020044B1A6842F08002A9
:1013E0001A601A6842F040021A60704700200141FA
:1013F0000020704708B540B1084B4FF48062C3F835
:1014000088214A20FFF7B6FF08BD4A20FFF7C0FF3A
:10141000024B4FF48062C3F88821F5E700E100E059
:10142000174B5A6A174B1A60174B1B68012B13D0C6
:10143000134B586A10F0100002D010225A6201209B
:10144000E8B90F4B5B6A13F0040F0ED00C4B04226B
:101450005A6240F002007047094A506A10F01000CA
:101460000DD01021516218467047054B5B6A13F08E
:10147000010F04D0024B00225A6240F00200704774
:101480000020014104020020FC01002000B583B0CF
:10149000032300930023054A1946184607F08AF9EA
:1014A000B0FA80F0400903B05DF804FB0160000071
:1014B00030B10168054A11604268054B1A607047F7
:1014C0000023024A1360024A13607047F4010020AF
:1014D000F00100207047000008B5024A1060FFF7D5
:1014E000F9FF08BD0002002008B503460A4A10783B
:1014F00080B9591E4BF67F3291420CD81846FFF73F
:1015000059FF02460021084605F07CFDB0FA80F044
:10151000400900E0002008BDF801002008B50122C4
:101520000021084606F06CF900B108BD0722002131
:10153000084606F015F9F8E770B50120FFF7CCFF73
:101540002C4B1C780CB1204670BDEFF3108572B6A1
:101550000020FFF74FFF0220FFF7BEFFFFF796FFC7
:10156000064638B30320FFF7B7FFFFF735FF042027
:10157000FFF7B2FF204B02221A601E4B01221A70A5
:101580000720FFF7A9FF002005F051FD0820FFF715
:10159000A3FF002007F09CF998B90920FFF79CFFF2
:1015A000FFF726FFE0B90A20FFF796FFFDB962B604
:1015B0003446C8E75A20FFF78FFF05B962B63446B4
:1015C000C1E7002005F041FD00230A4A13700A4AD2
:1015D00013605B20FFF780FF002DB4D162B6B2E745
:1015E0000520FFF779FF044B01221A60DBE7344640
:1015F000A9E700BFF8010020FC01002008B5094B55
:101600001B7803B908BD0020FFF7F4FE002005F0A9
:101610001CFD002007F090F90023024A1370024AD3
:101620001360EFE7F8010020FC010020002831D012
:1016300000B583B018490B6801330B6010F0010F3F
:1016400005D110F0020F0ED103B05DF804FB134A70
:10165000136801331360124B1B68002BF4D0402138
:1016600010489847F0E7104B1B68012B14BF00236C
:1016700001238DF800306A460021084607F08CF9F6
:101680000028E1D1094B1B68002BDDD0BDF802001A
:101690009847D9E7704700BF0C02002008020020DD
:1016A000F401002010020020FC010020F0010020C5
:1016B00008B5064B1B7803B908BDFFF7B1FE00283B
:1016C000FAD00021FFF7B2FFF6E700BFF8010020D3
:1016D00070B1826872B1C26872B10268013A4BF6A9
:1016E0007F318A420AD84368642B09D801207047A9
:1016F000002070470020704700207047002070478E
:10170000002070470023044A1370044A1360044AFF
:101710001360044A13607047A00200209C0200205E
:10172000980200209402002050EA01032FD070B5E7
:10173000844600234FF0804203E09B0843EA827313
:1017400092089C4571EB0200F7D30020864608E022
:10175000400840EACE704FEA5E0E9B0843EA82736F
:10176000920853EA020414D0C4184EEB0205A445B3
:1017700071EB0506ECD3BCEB0404A44661EB050158
:10178000400840EACE70C01842EB5E0EE5E700204C
:10179000704770BDF8B138B50A460546E9B100207A
:1017A000014684460FE035F81C30A3F50043DC17F2
:1017B00003FB04F4A3FB033E0EEB440E18184EEBA0
:1017C00001010CF1010C9445EDD3002307F0B2F9AF
:1017D000FFF7AAFF38BD002070470846FAE700006F
:1017E000114B1B6883420ED2C21A5108012A08D934
:1017F0000B440D4A1360834200D910600A4B1868ED
:1018000070470121F4E78342F8D9181A02090F281A
:1018100000D80122934203D2034B00221A60EDE765
:101820009B1A014A1360E9E794020020012803D0C3
:10183000022803D10320704702207047012070471F
:1018400008B503463C4A107801280FD002282BD057
:10185000B3F57A7F53D3394A136801331360384A9A
:1018600000211160012B43D8002014E0B3F52F7F35
:1018700012D233490A6801320A60072A5AD90A4645
:1018800000211160B42B0BD82B4B02221A702A4B6B
:101890001878FFF7CBFF08BD0020294B1860FAE746
:1018A000254B00221A70F2E7B42B0AD9B3F57A7FE0
:1018B00012D3224A136801331360012B05D800208C
:1018C000E9E700201D4B1860E5E7134600221A6087
:1018D000194B01221A70DEE7B3F5E17F01D8002031
:1018E000D9E70023154A1360134A13700120D2E789
:1018F000124B1960104B01221A700220CBE7B42B57
:1019000012D80E4B00221A600D4A1368013313607F
:10191000072B01D80020BEE7134600221A60064BB1
:1019200002221A700320B6E70020044B1860044B13
:101930001860B0E70020AEE7A00200209C02002063
:101940009802002008B50248FFF7B2FD08BD00BFAD
:1019500070BE000010B5044600230370436009B157
:1019600008460AB9204610BD1146FFF713FFFFF7DE
:1019700037FF6060FFF764FF2070F3E7014B1868E2
:10198000704700BF9402002048B14FF47A520260C1
:1019900050224260024A82604FF48062C260704707
:1019A000C802002038B50446FFF792FE002829D06F
:1019B000184B1B78022B2AD0FFF7B0FDFFF7C2FFB0
:1019C0002368154D2B606268144B1A60A268144B93
:1019D0001A60E268134B1A600024134B1C60134B0F
:1019E0001C60134B1C70134B1C605C609C60FFF709
:1019F00089FE114B1C602868FFF776FD18B1054B76
:101A000001221A7038BD034B03221A70FAE7002036
:101A1000F8E700BFC40200200400002000000020FE
:101A2000C0020020BC020020B8020020B402002046
:101A3000B0020020A40200209002002000B585B072
:101A40006846FFF7A1FF6846FFF7ACFF05B05DF8F9
:101A500004FB0000104B1B78012B01D000207047C5
:101A600010B500240D4B1C600D4B1C600D4B1C7001
:101A70000D4B1C605C609C60FFF744FE0B4B1C60D0
:101A8000054B02221A70FFF757FD00B110BD024B43
:101A900003221A70FAE700BFC4020020B802002037
:101AA000B4020020B0020020A40200209002002016
:101AB00008B5054B1B78022B00D008BDFFF79EFD33
:101AC000014B01221A70F8E7C4020020014B18787C
:101AD000704700BFC4020020014B1868704700BF68
:101AE000B402002010B4A0F2A960154B1B6800FBE3
:101AF00003F3144A82FB0302DB17C3EB62130B6090
:101B0000DB000B604A681A448868121AC2EB421262
:101B1000D2001446002A0DDB24124C608B600A4B65
:101B20009A420ADB47F6F870A042A8BF204600B2EE
:101B300010BC704702F1FF04EEE70448F7E700BF6E
:101B4000000000201F85EB51010780FF0880FFFF88
:101B500082B002AB03E9030002B0704700B583B066
:101B60000A4601466846FFF7F5FE084A1368013346
:101B700013609DF8003013B903B05DF804FB02ABAD
:101B800013E90300FFF7E4FFF6E700BF900200202F
:101B900010B51149C0F30B00FFF7A4FF0F4B1C68F1
:101BA0000F490B68A0F5004224F8132001330B60A5
:101BB0000C4A11688B4204D20B4A1368013313603C
:101BC00010BD074B00221A60084B01221A702046F4
:101BD000FFF7C4FFF0E700BFA4020020C00200200E
:101BE000B8020020BC020020B4020020B002002095
:101BF00008B5044B1B78022B00D008BDFFF7C8FFC7
:101C0000FBE700BFC4020020094B1B78022B0ED15A
:101C100070B505460E4648B1002405E035F81400BD
:101C20000009FFF7B5FF0134B442F7D370BD704728
:101C3000C402002000B585B08DF80F20BDF8182033
:101C40000192009301230DF10F02D940054800785D
:101C500000F0C0F910B905B05DF804FB4FF0FF309B
:101C6000F9E700BF0800002000B583B00B46012A49
:101C700001D940F080000092024633210120FFF795
:101C8000D9FF03B05DF804FB08B5014601220F201F
:101C9000FFF7EAFF08BD000010B594B09E46BDF8FE
:101CA000584000238DF80F30631C402B1BD8490887
:101CB0008DF81020002207E0501C1EF802C051329F
:101CC0006A4402F840CC82B2A242F5D301220192CA
:101CD0000DF10F02009204AA0648007800F07AF98C
:101CE00020B914B010BD4FF0FF30FAE74FF0FF30CD
:101CF000F7E700BF0800002000B583B00B46012ABB
:101D000001D940F080000092024633210120FFF704
:101D1000C3FF03B05DF804FB10B582B00446012296
:101D200001A91F20FFF7A0FF08B102B010BD9DF868
:101D3000043064F387138DF80430012201A91F20B9
:101D4000FFF7DAFFF1E710B582B00446012201A9DE
:101D50002020FFF789FF0090009B13B1009802B08C
:101D600010BD9DF8043043F008038DF80430DBB259
:101D700064F307138DF80430012201A92020FFF736
:101D8000BBFF0090EAE710B582B00446012201A92A
:101D90002320FFF769FF08B102B010BD9DF80430A1
:101DA00064F305138DF80430012201A92320FFF705
:101DB000A3FFF1E710B582B00446012201A9232058
:101DC000FFF752FF08B102B010BD9DF8043064F374
:101DD000C7138DF80430012201A92320FFF78CFFDF
:101DE000F1E710B582B00446012201A92420FFF7D3
:101DF0003BFF08B102B010BD9DF8043064F3C71377
:101E00008DF80430012201A92420FFF775FFF1E7C6
:101E100000280CDB00F01F02400901239340203012
:101E2000034A42F82030BFF34F8FBFF36F8F7047E4
:101E300000E100E0032803D8DFE800F00B05070904
:101E40006FF0100070473D2070473E2070476420BF
:101E500070473C2070470000064B426912F0800F2B
:101E600002D11BB1013BF8E7806870474FF0FF30AB
:101E7000704700BF40420F00436943F002034361D3
:101E8000064B426912F0800F02D10BB1013BF8E71B
:101E9000436923F002034361704700BF40420F00D3
:101EA00042F21073426912F0800F04D01BB1792204
:101EB0008260013BF6E7704710B50C46FFF7BAFFAA
:101EC000FFF7A6FF636923F0100363612046FFF765
:101ED000E7FF10BD38B50D46FFF7ACFF04462846B6
:101EE000FFF7DEFF6B6923F010036B61002C08DB4A
:101EF00004F01F01630901228A406033034941F85D
:101F000023202046FFF784FF38BD00BF00E100E03A
:101F100030B587B0054600240294039404940594D8
:101F20000A4B049301238DF814303223ADF8163098
:101F300002A905F081FF0323009323462246214690
:101F4000284605F0C5FF07B030BD00BFA0860100E0
:101F5000032800D9704770B5064600F58005A03506
:101F60002D022946FFF7A8FF002405E02846FFF7C9
:101F700083FF7923AB600134082CF7D9294630461A
:101F8000FFF7A8FF70BD0000032800D9704710B507
:101F90000446FFF7DDFF204605F024FF204605F04C
:101FA00009FF2046FFF7B4FF014B00221A7010BD55
:101FB000C80A002008B5064A13780133DBB2137053
:101FC000012B02D9FFF7E0FF08BDFFF7C1FFFBE7D8
:101FD000C80A00202DE9F04F83B00192032800F2D7
:101FE000DD8006460D461F464BBB0D9B002B00F0C7
:101FF000D8800C9B002B00F0D6801FB1019B002BDA
:1020000000F0D48006F58004A03424022146304636
:10201000FFF752FF636943F008036361236823F00D
:10202000FF036D00EDB22B432360636943F00103AE
:102030006361604B4FF00008C346C2464DE00D9B04
:10204000002BDAD0D5E70D9B002B00F09D80636953
:1020500043F008036361236823F0FF0345F00102A6
:1020600013432360636943F0010363617923A36031
:102070004FF0010830E0BA450CD2236823F0FF038B
:10208000019A12F80A20134323607923A3600AF10E
:10209000010A21E00D9B002B78D0636943F008030F
:1020A0006361236823F0FF0345F0010213432360BB
:1020B000636943F0010363617923A3604FF0010872
:1020C0000AE0452829D0852804D044283BD06FF069
:1020D000080548E07923A3604B4603F1FF39002B44
:1020E00039D02046FFF7B8FEB0F1FF3F36D0B8F147
:1020F000000FE6D14728BED0872832D1BA45A2D2F8
:10210000236823F0FF03019A12F80A201343236087
:102110007923A3600AF1010ADEE70D9B9B4537D2C4
:1021200022680BF101030C9901F80B200D9A9A42D9
:1021300003D07922A2609B46CEE7626922F00802B2
:1021400062619B46C8E70D9B9B4502D06FF0080576
:1021500009E0002507E06FF0080504E06FF00805CE
:1021600001E06FF008052046FFF786FE7923A360A3
:1021700021463046FFF7AEFE65B90F4B00221A70BC
:10218000284603B0BDE8F08F0025ECE70025EAE71C
:102190000025E8E73046FFF70DFFF1E76FF0010596
:1021A000EEE70025ECE76FF00505E9E76FF00505C0
:1021B000E6E700BF40420F00C80A002038B50546D8
:1021C00000240BE02846FFF75FFD10B92B78332B76
:1021D00014D00A2000F0DAFA0134E4B2092C0BD84A
:1021E000002CEFD00220FFF7B3FE0120FFF7F9FD2E
:1021F000322000F0CBFAE5E7002038BD0120FCE7F3
:1022000010B582B05F238DF8073000248DF80640AA
:1022100008E00A2000F0BAFA02E00A2000F0B6FA5C
:102220000134E4B2042C1AD801220DF10701202058
:10223000FFF762FD0028ECD1022000F0A7FA01228E
:102240000DF106012020FFF70FFD0028E5D19DF8D4
:1022500006209DF807309A42DFD1012000E00020DF
:1022600002B010BD10B582B000238DF80730234BAB
:102270001C78CCB9002303E0214A0021D15401335A
:10228000012BF9D9642000F081FA0220FFF760FEEB
:102290000120FFF7A6FD322000F078FA0DF10700CB
:1022A000FFF78CFF18B90446204602B010BD00208D
:1022B000FFF749FD0028F7D1052000F067FA00205C
:1022C000FFF778FD0028EFD1FFF75DFD0028EBD187
:1022D0000320FFF721FD0028E6D1FFF791FF044618
:1022E0000028E1D0142000F051FA06226946292086
:1022F000FFF7BAFC014B01221A70D5E7CE0A002085
:10230000CC0A00202DE9F04F87B0019200238DF810
:102310000F303D4B1F78002F6ED005460E4600282B
:1023200063D0002963D0002A63D04FF00008C24672
:10233000C346C146B9F1030F3DD8C82401220DF1AF
:102340000F012720FFF790FC002854D19DF80F3093
:1023500013F0080F06D1012000F018FA013CA4B2D6
:10236000002CEBD19DF80F3013F0080F48D0062257
:1023700004A92920FFF778FC002843D19DF81020FC
:102380009DF8113043EA02230BFA83FB9DF81220DB
:102390009DF8133043EA02230AFA83FA9DF81420C9
:1023A0009DF8153043EA022308FA83F809F1010980
:1023B0005FFA89F9BEE7CBEB4B130BEB830B4BF3C7
:1023C0004F3BA5F800B0CAEB4A130AEB830A4AF365
:1023D0004F3AA6F800A0C8EB481308EB830848F36F
:1023E0004F38019BA3F8008006E0002704E0002797
:1023F00002E0002700E00027384607B0BDE8F08F74
:102400000027F9E70027F7E7CE0A002008B5FFF715
:1024100029FF10B1014B01221A7008BDCF0A00201C
:1024200008B503460748007828B12BB131B13AB15D
:102430001846FFF767FF08BD0020FCE70020FAE719
:102440000020F8E7CF0A002009288CBF00200120D7
:102450007047000038B504460D4659B10A4B03EBEE
:1024600040010122497813F8100005F030FA074BBB
:102470001D5538BD044B03EB40010022497813F889
:10248000100005F024FAF2E778BE0000D00A002020
:1024900010B5002404E00021E0B2FFF7DBFF0134B7
:1024A000092CF8D910BD10B50446FFF7CDFF00B9CF
:1024B00010BD01212046FFF7CDFFF9E710B5044616
:1024C000FFF7C2FF00B910BD00212046FFF7C2FF91
:1024D000F9E710B5002404E00121E0B2FFF7BAFFEC
:1024E0000134092CF8D910BD10B5002404E00021F6
:1024F000E0B2FFF7AFFF0134092CF8D910BD70B579
:1025000005460E461446FFF7CEFF304600F03EF972
:102510002846FFF7D3FF204600F038F970BD38B5E4
:102520000546002406E0E0B2FFF7BDFF284600F0B4
:102530002DF90134092CF6D9002406E0E0B2FFF7AA
:10254000BDFF284600F022F90134092CF6D938BD28
:1025500008B500220C21104605F0B9F908BD0000AD
:1025600008B5074B1B780BB1012008BDFFF7F0FF42
:1025700040F6B83000F00AF9014B01221A70F3E777
:10258000DA0A002008B501220C21002005F09FF98D
:1025900008BD08B5FFF7F6FF4FF4FA7000F0F6F843
:1025A000FFF7D6FF40F6B83000F0F0F808BD0000A5
:1025B000002844D02DE9F04190B00E46144607465D
:1025C00000293ED0012A3ED906F050FD054600F113
:1025D0000208B8F1400F03D9002010B0BDE8F08127
:1025E00002463946684606F033FD05F140036B4468
:1025F0000D2203F8402C05F141030DEB03050A23DE
:1026000005F8403C22460021304606F0ABFC012391
:1026100042466946022004F0B5F8142C0DD8621E1B
:1026200001233146022004F00FF90849304606F034
:10263000D3FC003818BF0120CFE71422F0E70020B8
:1026400070470020C9E70020C7E700BFB09B00002B
:1026500040B10A460146012A06D908B50348FFF7EA
:10266000A7FF08BD0020704700207047E8A50000C4
:1026700008B5FFF775FF10B1014B01221A7008BDB4
:10268000DB0A0020124B1B78FBB110B590B0002480
:1026900001E00134E4B2092C09D840216846FFF773
:1026A000D7FF03460028F4D0184610B010BD9DF99E
:1026B00000302BB16946074800F0BEF90023F3E76C
:1026C000054800F0AFF90023EEE71846704700BF59
:1026D000DB0A0020ECA5000004A600000E4B1B78CE
:1026E000BBB110B5002401E00134E4B2032C0DD8D5
:1026F000FFF7C8FF034650B9022CF5D80322611C2E
:10270000064800F099F9FFF744FFEDE7002318466B
:1027100010BD1846704700BFDB0A00201CA6000051
:1027200008B5074B1B681BB1054A1368013B1360D2
:10273000044A136801331360FEF79EF908BD00BF19
:10274000E00A0020DC0A00200C4B00221A600C4B2F
:102750001B680C4AA2FB03239B09013BB3F1807F5A
:102760000AD24FF0E0225361074BF02183F8231087
:102770000023936107231361704700BFDC0A002028
:1027800048010020D34D621000ED00E0034B1860BB
:10279000024B1B68002BFBD1704700BFE00A0020F2
:1027A000014B1868704700BFDC0A0020B0FA80F0C7
:1027B00040097047002303B1704700220249CA5400
:1027C0000249CA540133F6E7E80A0020E40A00206F
:1027D00010B582B0044601238DF80730FFF7E6FFFD
:1027E00018B99DF8070002B010BD0DF107020921CC
:1027F000024B13F8140005F053F8F2E78CBE00000A
:1028000008B5FFF7E5FFB0FA80F0400908BD08B54C
:10281000FFF7F6FF00B908BD0120FCE710B5002462
:1028200004B110BDE0B2FFF7F2FF024B18550134BE
:10283000F6E700BFEC0A002082B00023019302E01B
:10284000019B01330193019A034B9A42F8D9034B40
:1028500001221A7002B070471FA10700ED0A002084
:1028600030B587B0224B1C78BCB10D4600293AD058
:1028700002238DF8043000238DF805308DF80630E2
:102880008DF809308DF808000A238DF80A3001A967
:10289000012006F0A5F818B10024204607B030BD8D
:1028A000012006F015F800BB0023009302E0009B16
:1028B00001330093009A42F20F739A42F7D9002134
:1028C0008DF8101004AA012006F066F830B9BDF8A2
:1028D00012302B80012006F02FF8DEE7012006F0F1
:1028E0002BF80024D9E70024D7E70024D5E700BF60
:1028F000ED0A002008B501461720FFF7B1FF08BD1B
:1029000039B140B14FF47A13B3FBF0F30B600120FF
:1029100070470020704700207047000008B5FFF79F
:102920008BFF0120034B18700023034A1380034AD6
:10293000136008BDF60A0020F40A0020F00A002007
:1029400010B582B004460023ADF806300093144B56
:10295000187840B114B30DF10600FFF7CBFF20B992
:1029600020806060207202B010BD6946BDF806008C
:10297000FFF7C6FF58B1BDF806200A4B1A80009B2E
:1029800009490B602280636001232372EBE7BDF8E5
:1029900006302380002363602372E4E70020E2E72F
:1029A000F60A0020F40A0020F00A0020054B1B78EC
:1029B00033B9054B00221A605A60024B01221A708B
:1029C00001207047800B0020F80A002008B5064B54
:1029D0001B780BB100B101B908BD01230A460146BD
:1029E000002003F0CFFEF7E7810B002008B5FFF7CA
:1029F000DDFF10B1014B01221A7008BD810B0020D0
:102A000068B110B50446064B1B781BB106F02EFBCF
:102A1000014600B910BD2046FFF7D8FFFAE770471E
:102A2000810B002008B5FFF7EBFF0248FFF7E8FF36
:102A300008BD00BF68B600000FB400B5ABB02C9A5B
:102A400012B10B4B1B7823B92BB05DF804EB04B02B
:102A500070472DAB0193A02102A806F075FA011E64
:102A6000F2DD9F2900DD9F2102A8FFF7AFFFEBE712
:102A7000810B002070B582B0054600F09DFF78B153
:102A80000446C3699847064605E063680A220121A7
:102A90000DF107009847E3699847801BA842F4D3DB
:102AA00002B070BD10B590B03220FFF7E3FF0948C7
:102AB00000F088FF402422460021684606F052FAC2
:102AC00000234FF4FA722146684600F0A1FF10B0CF
:102AD00010BD00BF38A6000048B3F0B59BB00C464F
:102AE00015461E4607461F2924D932B343B3FFF7C4
:102AF000D9FF00962B46174A602102A806F0A4F9D8
:102B000002A800F05FFFF0B922460021384606F027
:102B100029FA002340F6B8322146384600F078FF03
:102B20000D49384606F058FA80B91BB0F0BD4FF099
:102B3000FF3070474FF0FF30F7E74FF0FF30F4E71A
:102B40004FF0FF30F1E74FF0FF30EEE74FF0FF308E
:102B5000EBE700BF40A6000058A600002DE9F04FAB
:102B600085B0804689461646019300F025FF00286F
:102B70005ED00446B8F1000F5CD0B9F10F0F04D855
:102B80000025284605B0BDE8F08F4A4600214046A2
:102B900006F0E8F9E3699847074600904FF0000B0C
:102BA000DA465D46E3699847C01BB042E9D26368E4
:102BB000052201210DF10F00984750B1BAF1000F25
:102BC000F0D0E3699847009BC01A019B9842E9D373
:102BD000D7E72A466B1C994508D99DB29DF90F107D
:102BE00008F802109BB2002208F80320E369984716
:102BF0000090BAF1000FD5D10F4B13F90B209DF8BF
:102C00000F109DF90F309A4203D02B290DD0D346D7
:102C1000C8E70BF1010B5FFA8BFB074B13F90B3085
:102C2000002BBFD14FF0010ABCE74FF0010BB9E711
:102C30000025A6E70025A4E790BE000000284DD09F
:102C400070B590B014461D460646002949D0002AAA
:102C50004AD0012B4BD90B46294A4021684606F041
:102C6000F3F86946304606F0B7F90646002841D029
:102C7000684606F0FBF906EB000C00210DE001317F
:102C800089B20A23A3540CF1020C06E022281FD0BB
:102C90000CF1010C013189B2A0549CF90000B8B1CB
:102CA0000A466B1E994213D25C28EFD19CF9013081
:102CB000002BEBD06E2BE2D0222B03D05C2B01D06B
:102CC0002F2BE3D1013189B2A3540CF1020CE4E7BC
:102CD0000023635489B1184610B070BD4FF0FF3027
:102CE00070474FF0FF30F7E74FF0FF30F4E74FF059
:102CF000FF30F1E74FF0FF30EEE74FF0FF30EBE74A
:102D000060A600002DE9F843002800F0A2800D46DF
:102D100016461F460446002A00F09E80012B40F212
:102D20009E80002010708146804616E00CF1010C58
:102D30006319634503D99CF900202C2AF6D1634519
:102D400060D99CF900202C2A5CD10CF101009CF97F
:102D50000120222A13D0001B80B200F10D03AB42E8
:102D600050D24049204406F037F900284AD0A0EB61
:102D7000040C1FFA8CFC0CF10D0CA444D8E70CF1E8
:102D8000020C01E00CF1010C634503D99CF9002011
:102D9000222AF7D1634535D99CF90020222A31D166
:102DA0000CF101009CF901202C2A02D0001B80B2FA
:102DB000D3E70CF10202002106E001EB810100EBF8
:102DC0004100A0F130010132934205D992F900008F
:102DD0002F2801DD3928F0DD934204D992F9003023
:102DE0002C2B00D111B9121B90B2B6E70132121B85
:102DF00092B25318AB4201D800230DE0AA1A1A4828
:102E0000FFF71AFE2B46424649461848FFF714FEC4
:102E10004046BDE8F8830133994212D9C64608F10D
:102E20000100B842F7D212FA83FC1FFA80F814F9B5
:102E30000CC006F80EC080B24FF0000C06F800C0BF
:102E4000E9E709F101091FFA89F912FA81F290B252
:102E500083E74FF00008DBE74FF00008D8E74FF0BA
:102E60000008D5E768A6000078A60000A4A6000028
:102E700000284DD02DE9F0410C46154607463F2964
:102E800049D9002A4AD0DFF8A08040F6C4134AF698
:102E9000C8724FF4C0514046FFF760FE0646234615
:102EA0003A4601464046FFF72DFF044658B12946F1
:102EB000384606F091F860B121461C48FFF7BCFD8A
:102EC0000020BDE8F0811A48FFF7ACFD4FF0FF305D
:102ED000F7E7324621461748FFF7AEFD1649384658
:102EE00006F07AF810B11548FFF79CFD14493846F2
:102EF00006F072F810B11348FFF794FD12493846F6
:102F000006F06AF868B11148FFF78CFD0020D8E799
:102F10004FF0FF3070474FF0FF30D2E74FF0FF30F7
:102F2000CFE74FF0FF30CCE7840B0020F8A600007D
:102F3000D4A6000018A7000044A7000050A7000076
:102F40007CA7000070A7000088A70000A4A70000CD
:102F5000F0B5B3B004460F4615461E4600F02CFDF2
:102F60001CB32DB33EB348B36420FFF783FD3A464C
:102F70000021204605F0F6FF00962B46114AC0219D
:102F800002A805F061FF02A800F01CFD38B9399BCA
:102F9000389A39462046FFF76BFF33B0F0BD0A4838
:102FA000FFF740FD4FF0FF30F7E74FF0FF30F4E759
:102FB0004FF0FF30F1E74FF0FF30EEE74FF0FF301A
:102FC000EBE700BFC4A70000E4A7000010B5A8B05D
:102FD00002F080F90446204A1346A0216846FFF714
:102FE0007BFD90B92146684605F0F6FF40B11B48CD
:102FF000FFF718FD2046FFF715FD012028B010BD92
:103000001748FFF70FFD0020F8E7164B164AA021DE
:103010006846FFF761FD20B92146684605F0DCFFF0
:1030200080B9124B124AA0216846FFF755FD20B91E
:103030001049684605F0D0FF48B90F48FFF7F2FC89
:103040000020DBE70D48FFF7EDFC0120D6E70C4838
:10305000FFF7E8FC0020D1E700A800000CA8000062
:103060002CA8000064A800006CA800009CA8000028
:10307000A8A80000B0A80000F4A8000078A80000EC
:10308000B8A80000F0B583B0074602F023F9044663
:1030900000F092FC002F39D00546002C39D094F96D
:1030A0000030002B38D0204605F0E0FF86B2FFF755
:1030B000F9FC1B48FFF7B6FC2046FFF7B3FC1949A3
:1030C00000230193009623460A46384600F0EEFCA2
:1030D00048B915B1AB69C8209847FFF777FF78B1B9
:1030E000002003B0F0BD1048FFF79CFC97F90030BA
:1030F00003B90E4F3846FFF795FC4FF0FF30F0E76D
:103100000B48FFF78FFC4FF0FF30EAE74FF0FF303E
:10311000E7E74FF0FF30E4E74FF0FF30E1E700BFB3
:1031200028A9000000A8000048A9000020A900006C
:1031300070A9000010B5044600F0E2FA60B10C4836
:10314000FFF770FC0021204600F056FF50B90948F7
:10315000FFF768FC002010BD0748FFF763FC4FF045
:10316000FF30F8E70548FFF75DFC4FF0FF30F2E76E
:10317000D4A9000024AA0000A4A9000004AA000009
:1031800030B5ADF5657D002800F0F1810D460446AF
:10319000B1F5806FC0F0EE814FF400720021BA48A3
:1031A00005F0E0FE4FF4B0620021B84805F0DAFE09
:1031B0004FF4E0620021B64805F0D4FEB548FFF7B1
:1031C00031FC00230122B449204601F0C9F800284F
:1031D00040F0CF8000230122B049204601F0C0F822
:1031E000002840F0D380AE48FFF71CFC4EF6602369
:1031F0000193AC4B0093AC4BAC4A29462046FFF7F9
:10320000A7FE10F1020F00F0CE80002840F0D4801D
:103210004FF400739C4AA3492046FFF70FFD002896
:1032200040F005814FF4B063984AA1492046FFF76A
:1032300005FD002840F001814FF4E063944A9D4968
:103240002046FFF7FBFC002840F0FD809A48FFF77E
:10325000E9FB9A48FFF7E6FB002301229849204644
:1032600001F07EF8002840F0F48000230122954907
:10327000204601F075F8002840F0EB8002F02AF8B3
:10328000914B0393914B0293914B019300907E4B92
:10329000904A4FF4407124A805F0D6FD8E48FFF700
:1032A000C1FB24A805F0E2FE002302930193012351
:1032B000009324AB82B28949204601F0A9F8002886
:1032C00040F0CD804EF66023854A29462046FFF720
:1032D000CFFD10F1020F00F0C880002840F0CE8032
:1032E0008048FFF79FFB502305AA7D492046FFF742
:1032F000A5FC002800F024816549644800F016FA16
:103300000546002840F023817748FFF78BFB00211A
:10331000204600F071FE002840F01F817348FFF73F
:1033200081FB7348FFF77EFB0021204600F0E6FF9B
:10333000704B00221A70FFF7B5FB2046FFF7A2FE84
:10334000002800F010816C48FFF76CFB4FF400720E
:1033500000214D4805F006FE4FF4E06200214C4884
:1033600005F000FE6548FFF75DFB28460DF5657D1D
:1033700030BD6348FFF756FB94F9003003B9614C48
:103380002046FFF74FFB4FF0FF35EEE75E48FFF7B3
:1033900049FB94F9003003B95A4C2046FFF742FB31
:1033A0004FF0FF35E1E75948FFF73CFB2046FFF7B8
:1033B00039FB4FF0FF35D8E75548FFF733FB204680
:1033C00005F054FE01465348FFF736FB38492046C6
:1033D00005F002FE10B15048FFF724FB35492046A6
:1033E00005F0FAFD10B14D48FFF71CFB2D492046B2
:1033F00005F0F2FD10B14A48FFF714FB002303E08B
:1034000005A9CA5401339BB2772B08D8E25632B1D2
:10341000A2F12001C9B25E29F2D92E22F0E705A857
:103420000022C254FFF7FEFA4FF0FF359DE73D48FA
:10343000FFF7F8FA4FF0FF3597E73B48FFF7F2FA4E
:103440004FF0FF3591E73948FFF7ECFA4FF0FF35C1
:103450008BE73748FFF7E6FA4FF0FF3585E7354849
:10346000FFF7E0FA4FF0FF357FE73348FFF7DAFA6E
:103470002046FFF7D7FA4FF0FF3576E72F48FFF7E2
:10348000D1FA4FF0FF3570E704300020842A002085
:103490008423002050AA000080AA0000D8AA0000BF
:1034A00030AB000088A7000054AB000058AB000010
:1034B000D4AB00007CA70000BCAC0000F0AC000066
:1034C00020AD000064AD000034A5000050AE000047
:1034D00078AE0000C4AD000088AE0000A4AE0000CD
:1034E00000AF000044AF000090AF0000E8AF000064
:1034F00014B00000104500203CB0000090B0000067
:10350000A8AA000020A9000000AB000078AB0000D2
:1035100090AB0000B4AB0000E4AB00000CAC0000CA
:1035200030AC00005CAC000078AC00009CAC00004B
:10353000A8AD0000E0AE00000CAF000028AF000016
:103540000E48FFF76FFA05A8FFF76CFAD4E60C48AF
:10355000FFF768FA4FF0FF3507E70A48FFF762FA0E
:103560004FF0FF3501E70848FFF75CFAEEE64FF051
:10357000FF35FAE64FF0FF35F7E600BF60AF000019
:1035800074AF0000C0AF00006CB0000090F90030D4
:103590002D2B01D0002070470120704702460020EB
:1035A00000E00130884202D21356002BF9D1704757
:1035B0002DE9F0472C4B1C7824B353E02B4EA5008B
:1035C00004EB840306EB8303DA680021986805F0B6
:1035D000C9FC254406EB85060023336110E0234E29
:1035E0004FEA840804EB840306EB83033A46002188
:1035F000986805F0B7FCA04406EB88060023336109
:103600000134E4B2022C2AD804EB8402174B03EBFA
:1036100082035E683046FFF7B9FF0028CED004EB86
:103620008402124B03EB8203DF68791E3046FFF7FA
:10363000B5FF81460028D2D00C4F04EB840807EB7D
:10364000880802463146D8F8080005F001FDD8F890
:103650000830002203F80920C8F81090D0E7024B88
:1036600001221A70BDE8F087043200200C0000200F
:1036700008B5FFF79DFF044B1B6913B1024B986817
:1036800008BD0248FCE700BF0C000020D0B10000DC
:1036900008B5FFF78DFF044B5B6A13B1024BD86985
:1036A00008BD0248FCE700BF0C000020D0B10000BC
:1036B00008B5FFF77DFF044B9B6B13B1024B186BF2
:1036C00008BD0248FCE700BF0C000020D0B100009C
:1036D00008B5FFF76DFF014B186908BD0C0000200D
:1036E00008B5FFF765FF014B586A08BD0C000020C4
:1036F00008B5FFF75DFF014B986B08BD0C0000207B
:1037000008B5FFF755FF084B1B693BB1064B5B6AD9
:1037100033B1054B9B6B2BB9002000E0002008BDA6
:103720000020FCE70120FAE70C00002070B32DE92F
:10373000F0410F46804661B3FFF73AFF40F27F51F8
:103740004046FFF72BFF044640F2FF613846FFF783
:1037500025FF05461F2C1FD91F2820D9114E2246B0
:103760004146F06905F074FCF3694FF0000803F876
:10377000048074622A463946306B05F069FC336B6D
:1037800003F80580B5634046BDE8F0814FF0FF3097
:1037900070474FF0FF30F7E74FF0FF30F4E74FF09E
:1037A000FF30F1E70C00002070B594B0064600240D
:1037B00001E00134E4B2022C28D8184800F05AFF86
:1037C00005460028F5D1012000F03CFF16B3134E4A
:1037D0007369134A402104A805F036FB114C4FF4DD
:1037E000A0520021204605F0BDFB04A805F03EFCD8
:1037F000002302930193009304AB82B206F18C0183
:10380000204600F005FE00F009FF03E0002000F074
:1038100019FF0125284614B070BD00BF48000020E4
:10382000E8B000005C4500202DE9F04101F060FDAA
:10383000074601F06BFD064601F076FD0546104C8B
:10384000676101F047FD206304F18C074FF05008D9
:1038500042460021384605F085FB3C3442460021B3
:10386000204605F07FFB4F223146384605F0A1FB8C
:103870004F222946204605F09CFBBDE8F08100BFA1
:103880004800002008B50120FFF78EFF08BD08B5ED
:103890000020FFF789FF08BD70B584B00646FDF72C
:1038A00024FC04460F4D4FF4807229463046FCF745
:1038B00041FF0D4E4FF4A0520021304605F052FB5F
:1038C00000F0ACFE284605F0D1FB002302930193E3
:1038D00000932B4682B22146304600F099FD04B099
:1038E00070BD00BF084400205C45002070B584B066
:1038F000044601F027FDC4B1FDF7FBFB05460C4E65
:103900004FF4A0520021304605F02CFB00F086FE5B
:10391000204605F0ABFB002302930193009323465E
:1039200082B22946304600F073FD04B070BD00BF7E
:103930005C450020032803D8DFE800F003030303FD
:10394000052070472DE9F84380460C461646164B75
:103950001B68DB699847054622460021404605F072
:1039600001FB0027104B1B68DB699847401BB042E6
:1039700015D2A742F6D20C4B1B685B68322201219C
:1039800008EB0700984781460028EBD10137BFB20A
:103990003E21404605F0EEFA0028E3D001E04FF06A
:1039A00003094846BDE8F8835C590020014B1860C4
:1039B000704700BF5C590020014B1868704700BF7A
:1039C0005C59002038B5094B1B6853B104461D688B
:1039D0004DB105F04BFB4FF4967281B22046A847DB
:1039E00038BD0120FCE70120FAE700BF5C59002048
:1039F00038B50446054B1B681D6805F037FB4FF4CE
:103A0000FA7281B22046A84738BD00BF5C59002039
:103A1000F8B507460D4616461C460A46002105F035
:103A2000A1FA1CB1012C09D0012006E0074B1B684C
:103A30005B683246294638469847F8BD034B1B68F9
:103A40009B68012138469847F7E700BF5C59002082
:103A500010B5044605F0C0FA08B1002010BD104BA7
:103A60001968204605F0B8FA08B10120F6E70D4BB9
:103A70001968204605F0B0FA08B10220EEE72B21C4
:103A8000204605F077FA08B10320E7E7064B1968EE
:103A9000204605F0A1FA08B10420DFE70520DDE7A4
:103AA0002C010020300100202401002070B59AB0C4
:103AB000BDF87850002845D01C460646002943D062
:103AC000002A43D0002B43D0002D43D00195009213
:103AD0000B46264A602102A805F0B6F902A8FFF7B6
:103AE00071FF002839D141F2883278213046FFF742
:103AF00029FFA0BB1E4B1B681B6842F210722946AF
:103B00002046984768BB002342F210727821304665
:103B1000FFF77EFF044628B1032803D02046FFF7B5
:103B200009FF18E0134B19683046FFF791FF90B179
:103B3000831EDBB2012B16D90528EFD1032CEDD162
:103B4000204608E0052006E0052004E0052002E00C
:103B5000052000E005201AB070BD0420FBE703201B
:103B6000F9E70420F7E70120F5E700BF44B10000C2
:103B70005C5900203401002010B582B09DF814403B
:103B80000194BDF810400094FFF790FF02B010BD03
:103B900070B504460D461948FFF714FF58BB06469A
:103BA0002B464FF47A625A212046FFF731FF08B1C5
:103BB00003281CD11249204605F00EFAE0B911493C
:103BC000204605F009FAB8B92B464FF47A625A211B
:103BD0002046FFF71DFF0A49204605F0FDF958B9B8
:103BE0000849204605F0F8F930B9032604E0FFF74C
:103BF000A1FE064600E00426304670BD64B1000018
:103C0000B09B000070B1000070B584B00546164648
:103C10000024009401940294ADF80C400A4618491F
:103C2000684605F045F96846FFF7CCFEF8B904464A
:103C3000334641F288325A212846FFF7E9FE06460C
:103C400008B103280FD10F4B19682846FFF700FF72
:103C500088B1831EDBB2012B0FD9052808D1032EB2
:103C600006D1344604E0FFF765FE044600E0042474
:103C7000204604B070BD0446FAE70124F8E700BF0F
:103C800078B100003401002070B504460D46154897
:103C9000FFF798FEF8B906462B4641F288325A21C2
:103CA0002046FFF7B5FE054608B103280FD10E4B9D
:103CB00019682046FFF7CCFE80B1831EDBB2012BD2
:103CC0000ED9052808D1032D06D12E4604E0FFF7B2
:103CD00031FE064600E00426304670BD0646FBE78E
:103CE0000126F9E788B100003401002070B50446D0
:103CF0000D461548FFF766FEF8B906462B4641F219
:103D000088325A212046FFF783FE054608B1032872
:103D10000FD10E4B19682046FFF79AFE80B1831E23
:103D2000DBB2012B0ED9052808D1032D06D12E4672
:103D300004E0FFF7FFFD064600E00426304670BDB4
:103D40000646FBE70126F9E79CB10000340100209C
:103D500070B504460D461548FFF734FEF8B906461F
:103D60002B4641F2883278212046FFF751FE054666
:103D700008B103280FD10E4B19682046FFF768FEE3
:103D800080B1831EDBB2012B0ED9052808D1032D8B
:103D900006D12E4604E0FFF7CDFD064600E00426DE
:103DA000304670BD0646FBE70126F9E7B0B10000DA
:103DB00034010020F0B58FB004460D4616461F466C
:103DC0003222002101A805F0CDF833462A461849D1
:103DD00001A805F06DF801A8FFF7F4FD10BB05463A
:103DE0003B4643F6982296212046FFF711FE08B184
:103DF000032813D10F49204605F0EEF898B90E4B71
:103E000019682046FFF724FE054660B10B4B196880
:103E10002046FFF71DFE48B9012504E0FFF78AFDA3
:103E2000054600E0042528460FB0F0BD0325FAE75B
:103E3000BCB10000D4B100003401002030010020EA
:103E400070B58CB000283FD00E460546A022002158
:103E500005F088F81E48FFF7B5FD044618B10024A8
:103E600020460CB070BD00234FF4FA62A021284612
:103E7000FFF7CEFD08B10328F2D11649284605F018
:103E8000ABF80028ECD00EB396F900300BB9012442
:103E9000E6E73346104A3021684604F0D5FF69460C
:103EA000284605F099F808B10124D9E733460B4AB2
:103EB0003021684604F0C8FF6946284605F08CF8B2
:103EC0000028CDD00124CBE70024C9E70124C7E7AF
:103ED000E0B10000ECB10000F4B1000000B200005D
:103EE00070B58EB004460D4616463222002101A858
:103EF00005F038F82A46184901A804F0D9FF01A8AE
:103F0000FFF760FDF8B90546334641F288325A2181
:103F10002046FFF77DFD064608B103280FD10F4B61
:103F200019682046FFF794FD88B1831EDBB2012B90
:103F30000FD9052808D1032E06D1354604E0FFF736
:103F4000F9FC054600E0042528460EB070BD054684
:103F5000FAE70125F8E700BF08B2000034010020AD
:103F6000F0B59DB004460D4616461F46602200215E
:103F700004A804F0F7FF9DF8903003939DF88C306F
:103F80000293229B0193009733462A46184904A8BE
:103F900004F08EFF04A8FFF715FD00BB05469DF851
:103FA000943041F2883278212046FFF731FD0646F1
:103FB00008B103280FD10F4B19682046FFF748FDC1
:103FC00088B1831EDBB2012B0FD9052808D1032E3F
:103FD00006D1354604E0FFF7ADFC054600E00425B8
:103FE00028461DB0F0BD0546FAE70125F8E700BFF9
:103FF0002CB200003401002070B582B004460D469A
:10400000304B1B681BB1DB6A0BB12F489847FFF799
:104010002FFB0646FFF75CFB2C49019580B2009010
:1040200033460A462046FFF7A7FD0646002835D14D
:10403000244B1B681BB1DB6A0BB125489847FFF77F
:1040400027FB0646FFF74CFB2249019580B2009002
:1040500033460A462046FFF78FFD064640BB194B04
:104060001B681BB1DB6A0BB11B489847FFF720FBAD
:104070000646FFF73DFB1949019580B20090334693
:104080000A462046FFF778FD064670B10D4B1B68C7
:104090005BB1DB6A4BB11248984706E0094B1B68DD
:1040A0001BB1DB6A0BB10F489847304602B070BDB8
:1040B000044B1B68002BF8D0DB6A002BF5D00A48B4
:1040C0009847F2E75C5900205CB200007CB2000027
:1040D000A4B20000C8B20000F8B200001CB3000097
:1040E00028B3000084B20000D4B2000070B598B0CC
:1040F00004460D46164660220021684604F032FF51
:104100002A461849684604F0D3FE6846FFF75AFC71
:10411000F8B90546334641F2883278212046FFF748
:1041200077FC064608B103280FD10F4B19682046CB
:10413000FFF78EFC88B1831EDBB2012B0FD9052857
:1041400008D1032E06D1354604E0FFF7F3FB054600
:1041500000E00425284618B070BD0546FAE70125A1
:10416000F8E700BF4CB3000034010020F0B595B073
:1041700004460D4616461F464622002102A804F0BA
:10418000F1FE9DF868300193009733462A4618499E
:1041900002A804F08DFE02A8FFF714FC00BB054640
:1041A0009DF86C3041F288325A212046FFF730FCEE
:1041B000064608B103280FD10E4B19682046FFF7B9
:1041C00047FC88B1831EDBB2012B0FD9052808D12B
:1041D000032E06D1354604E0FFF7ACFB054600E0B0
:1041E0000425284615B0F0BD0546FAE70125F8E795
:1041F00060B3000034010020F0B59DB004460D46C8
:1042000016461F466422002103A804F0ABFE009668
:1042100042F2B3232A46184903A804F049FE03A832
:10422000FFF7D0FBF8B905463B4641F28832C8217A
:104230002046FFF7EDFB064608B103280FD10F4BD0
:1042400019682046FFF704FC88B1831EDBB2012BFE
:104250000FD9052808D1032E06D1354604E0FFF713
:1042600069FB054600E0042528461DB0F0BD054663
:10427000FAE70125F8E700BF88B300003401002009
:10428000F8B504460D461A48FFF79CFB40BB0646AE
:104290002B4641F28832C7212046FFF7B9FB07467B
:1042A00008B1032818D1134B19682046FFF7D0FB3B
:1042B0000546114B19682046FFF7CAFB284310F04A
:1042C000FF0010D0831EDBB2012B0ED9052808D1C8
:1042D000032F06D13E4604E0FFF72CFB064600E024
:1042E00004263046F8BD0646FBE70126F9E700BF85
:1042F000A4B30000584500203401002070B50446E6
:104300000D461548FFF75EFBF8B906462B4641F20D
:1043100088325A212046FFF77BFB054608B1032867
:104320000FD10E4B19682046FFF792FB80B1831E18
:10433000DBB2012B0ED9052808D1032D06D12E465C
:1043400004E0FFF7F7FA064600E00426304670BDA9
:104350000646FBE70126F9E7B4B30000340100206C
:10436000F0B5B3B004460D4616461F46C0220021E4
:1043700002A804F0F7FD002C39D0002D39D00096AA
:104380002B461F4AC02102A804F05EFD02A8FFF7D9
:1043900019FB054678BB3B4641F288324FF48071E9
:1043A0002046FFF735FB064608B103281BD1154907
:1043B000204604F011FE20B11349204604F00CFE03
:1043C000D0B11249204604F007FEA8B90E49204694
:1043D00004F002FE08B101250EE0032E01D00125F4
:1043E0000AE0354608E0FFF7A5FA054604E0052592
:1043F00002E0052500E00425284633B0F0BD00BFEB
:10440000C8B30000B09B000058A60000E0B3000055
:104410002DE9F04FBBB006468946039204939DF800
:1044200010B19DF814A19DF818810025084604F0EC
:104430001DFEC7B22437FFB2C822294608A804F0DF
:1044400091FD5A4B1B68DB689847059506950795C3
:104450002C460EE0CDF804A0CDF800B0039B4A46F0
:10446000534908A804F024FD08A8FFF7C1FA05463F
:104470000124042C00F08E80032CFAD801A353F8F9
:1044800024F000BF5544000095440000FD440000A6
:1044900019450000002D7FD143464FF4FA7239468A
:1044A0003046FFF7B5FA08B10328E2D1414B19684D
:1044B0003046FFF7CDFA0528DBD801A353F820F0EA
:1044C00085450000D9440000894500007344000080
:1044D000F9440000E9440000069B0133DBB2069377
:1044E000032B53D82C46C4E7079B0133DBB2079359
:1044F0000A2BBED90224BCE72C46BAE743464FF448
:104500007A724FF496713046FFF782FA0498FFF7FB
:104510006FFA05460324ACE7002D3FD143464FF424
:104520007A724FF4C8713046FFF772FA08B1032867
:104530009FD1214B19683046FFF78AFA052898D891
:1045400001A353F820F000BF91450000654500002D
:104550006145000073440000A1450000754500005E
:1045600001241EE0059B0133DBB20593032B80D9A8
:10457000022416E0059B0133DBB20593052B7FF681
:1045800078AF0EE0022474E7044672E7022470E775
:1045900004246EE7002404E0042402E0042400E084
:1045A000052420463BB0BDE8F08F00BF5C590020D9
:1045B000F4B3000034010020280100202DE9F84365
:1045C00081460F461646134904F006FD441D0A2194
:1045D000204604F0CFFC051B2A462146384604F04D
:1045E000E8FC4FF0000807F805800B49484604F046
:1045F000F3FC00F109040A21204604F0BBFC051B72
:104600002A462146304604F0D4FC06F80580BDE871
:10461000F88300BF14B400001CB4000010B5084CAF
:1046200023689B6A01210220984723689B693220F6
:10463000984723689B6A00210220984710BD00BF5D
:104640005C59002008B5044B1B689B6A011E18BF0B
:1046500001210120984708BD5C59002008B5044B92
:104660001B689B6A011E18BF01210020984708BDE6
:104670005C5900202DE9F041B6B00546826A814BB5
:104680001A60C822002104A804F06CFC002104A8D0
:10469000FFF7F6FD20B904469DF92A30342B2CD0C3
:1046A000794B1B681BB1DB6A0BB178489847784B94
:1046B00001221A700023774A1370774A1380A96881
:1046C0002868FFF7BDFB00282ED06F4B1B681BB17D
:1046D000DB6A0BB1714898470120FFF7BFFF704BB1
:1046E0001B78EBB1684B1B681BB1DB6A0BB16D48E3
:1046F00098476D4B07221A7022E0634B1B681BB171
:10470000DB6A0BB1694898470120694B1870694B07
:1047100018705F4B00221A70FFF7A0FF00F0A2BCD8
:10472000614B05221A700BE0574B1B681BB1DB6A0B
:104730000BB1614898470023594A13705A4A1370C5
:1047400000273E4600F056BC4F4B1B681BB1DB6A8E
:104750000BB15A48984700212868FFF719FA80469C
:1047600008BB494B1B681BB1DB6A0BB15448984727
:1047700000234B4A1370484A13804B4B01221A7096
:104780004746454B1B889BB2142B40F23384424B67
:1047900000221A804B4B01221A70434B0C221A70D4
:1047A000274600F027BC384B1B681BB1DB6A0BB1F6
:1047B000454898470137FFB2042FE2D9414B012207
:1047C0001A70394B0C221A702746DAE72E4B1B68F9
:1047D0001BB1DB6A0BB13D489847002201212868D4
:1047E000FFF712FA042811D8DFE800F00327102E93
:1047F0002000254B1B681BB1DB6A0BB1344898477E
:10480000254B00221A80284B02221A70224B1B884B
:104810009BB2142B40F2EE831F4B00221A80294BCF
:1048200002221A70204B0C221A70E3E3254B0D2252
:104830001A701D4B01221A70E8E7224B0E221A70E3
:10484000194B01221A70E1E71E4B0F221A70164B0A
:1048500001221A70DAE76B79012B3BD0124B03224D
:104860001A700D4B1B889BB2412B40F2C3830A4B3D
:1048700000221A80134B03221A700B4B0C221A7061
:10488000B8E300BF584500205C59002054B4000034
:104890000D450020124500200E4500206CB400009C
:1048A00054450020A0B400000845002028B40000B2
:1048B0001045002011450020D4B4000004B50000CC
:1048C0001CB500000C45002038B5000060B50000A4
:1048D0007CB500008A4B1B681BB1DB6A0BB18948B1
:1048E0009847874B1B681B6A984700212868FFF789
:1048F000CBF90428B5D801A353F820F011490000E2
:10490000334A000063480000414A0000254A000085
:104910007D4B00221A8007E07B4B00221A807B4AE5
:104920007B492868FFF74AFE774B1B889BB2F92B1F
:104930006BD8784B1B78052B67D0002341F2883267
:10494000C8212868FFF764F82C6873492046FFF7F0
:104950007FF848B96A4B1B68002BDDD0DB6A002B5F
:10496000DAD06E489847D7E76D492046FFF770F8D0
:104970000028D9D1624B1B681BB1DB6A0BB16948B7
:104980009847614B00221A805D4B1B689B694FF46E
:104990007A7098475F4B1B78022BC5D1002128689D
:1049A000FFF7A4F90428F5D801A353F820F000BFBD
:1049B000C5490000EF49000095490000FD4900008D
:1049C000E14900004E4B1B681BB1DB6A0BB1564836
:1049D00098474D4B00221A804E4B05221A70A3E7D0
:1049E000524B0D221A704B4B02221A70D2E74F4BDA
:1049F0000E221A70474B02221A70CBE74B4B0F2244
:104A00001A70444B02221A70C4E73D4B1B685B6A64
:104A10009847404B1B78052B3FF423AF3D4B0C22AE
:104A20001A701EE7414B0D221A703A4B02221A707F
:104A300017E73E4B0E221A70364B02221A7010E70F
:104A40003A4B0F221A70334B02221A7009E72C4B93
:104A50001B681BB1DB6A0BB13548984700212868F9
:104A6000FFF776F9042811D8DFE800F00327102EAD
:104A70002000234B1B681BB1DB6A0BB12D48984704
:104A8000214B00221A80234B04221A701E4B1B88D4
:104A90009BB2142B40F2AE821B4B00221A80234B98
:104AA00004221A701B4B0C221A70A3E21F4B0D221A
:104AB0001A70184B03221A70E8E71C4B0E221A706A
:104AC000144B03221A70E1E7184B0F221A70114B96
:104AD00003221A70DAE70A4B1B681BB1DB6A0BB1C1
:104AE000154898470023EA68A9682868FFF762F923
:104AF000052833D8DFE800F022493250425000BF89
:104B00005C59002094B500000E450020144500209B
:104B10003445002008450020B8B50000CCB50000A1
:104B2000F0B500000CB6000030B600000C450020C7
:104B30004CB600006CB6000090B600008B4B1B68B2
:104B40001BB1DB6A0BB18A4898478A4B00221A8056
:104B50000120FFF783FD884B05221A70854B1B88C7
:104B60009BB23C2B40F24682824B00221A80834B40
:104B700005221A70804B0C221A703BE27F4B0D22EB
:104B80001A707D4B04221A70E8E77C4B0E221A70D3
:104B9000794B04221A70E1E7784B0F221A70764B9A
:104BA00004221A70DAE7714B1B681BB1DB6A0BB188
:104BB000734898470022297C2868FFF791F9042858
:104BC00025D8DFE800F00334243B1E00674B1B6848
:104BD0001BB1DB6A0BB16B489847664C4FF000087D
:104BE000A4F80080684B01221A70604B1B689B6917
:104BF00040F2DC509847A4F800805F4B07221A70FF
:104C0000F8E15E4B0D221A705B4B05221A70594B6E
:104C10001B889BB2142B40F2ED81564B00221A8068
:104C2000564B06221A70544B0C221A70E2E1534B79
:104C30000E221A70504B05221A70E8E74F4B0F22D4
:104C40001A704D4B05221A70E1E7484B1B681BB1E7
:104C5000DB6A0BB14D48984700212868FFF7CCF973
:104C6000042811D8DFE800F00327102E20003F4B66
:104C70001B681BB1DB6A0BB1454898473D4B0022CE
:104C80001A803D4B07221A703A4B1B889BB2782B37
:104C900040F2B081374B00221A80384B07221A703D
:104CA000354B0C221A70A5E1344B0D221A70324B91
:104CB00006221A70E8E7314B0E221A702E4B06229C
:104CC0001A70E1E72D4B0F221A702B4B06221A7037
:104CD000DAE7264B1B681BB1DB6A0BB12D489847FE
:104CE000052169740023039302930193EB690093F8
:104CF000AB696A692868FFF733F9042814D8DFE83C
:104D000000F0032A13312300184B1B681BB1DB6A28
:104D10000BB121489847174B00221A801F4B0122E4
:104D20001A70154B08221A70124B1B889BB2142B59
:104D300040F260810F4B00221A80104B09221A703A
:104D40000D4B0C221A7055E10C4B0D221A700A4BB8
:104D500007221A70E8E7094B0E221A70064B072249
:104D60001A70E1E7044B07221A70DDE75C59002056
:104D7000ACB600000E450020084500200C45002080
:104D8000CCB60000ECB600005445002008B7000087
:104D900024B7000044B7000064B7000011450020AC
:104DA0007E4B1B681BB1DB6A0BB17D489847002224
:104DB000A96A2868FFF79AF9042811D8DFE800F0FB
:104DC0000327102E2000754B1B681BB1DB6A0BB14B
:104DD00074489847744B00221A80744B0A221A7048
:104DE000714B1B889BB2142B40F204816E4B002246
:104DF0001A806F4B08221A706C4B0C221A70F9E063
:104E00006B4B0D221A70694B08221A70E8E7684B49
:104E10000E221A70654B08221A70E1E7644B0F22CC
:104E20001A70624B08221A70DAE75C4B1B681BB1E0
:104E3000DB6A0BB15F4898470023019395F8243053
:104E4000009395F8233095F82220298C2868FFF7E5
:104E50008DF9042811D8DFE800F00327102E200078
:104E60004E4B1B681BB1DB6A0BB1534898474E4B46
:104E700000221A804D4B0A221A704B4B1B889BB2A2
:104E8000142B40F2B780484B00221A80484B0A226C
:104E90001A70464B0C221A70ACE0454B0D221A706A
:104EA000424B09221A70E8E7414B0E221A703F4B21
:104EB00009221A70E1E73E4B0F221A703B4B092280
:104EC0001A70DAE7354B1B681BB1DB6A0BB13B4844
:104ED0009847002395F82C20A96A2868FFF78CF9D9
:104EE00004283DD8DFE800F0084B3C5236002E4B3A
:104EF0001B889BB2C82B26D82C4B1B780A2B2FD192
:104F000000212868FFF7BCF904460028EFD12B6880
:104F100093F91A30342BEAD1204B1B681BB1DB6AA2
:104F20000BB12748984700231F4A1380254A137066
:104F30000123254A1370254A13700B231B4A137053
:104F4000234A13708EE0184B00221A80174B0C2254
:104F50001A70D1E7164B0D221A70144B0A221A70E0
:104F6000114B1B889BB2642B44D90F4B00221A8033
:104F70000F4B0B221A700D4B0C221A703AE00C4B9F
:104F80000E221A70094B0A221A70E9E7084B0F2209
:104F90001A70064B0A221A70E2E700BF5C59002023
:104FA00084B70000A0B700000E450020084500208F
:104FB0000C450020C0B70000E0B7000000B80000BA
:104FC00020B800000D4500201045002011450020AC
:104FD00038010020254B1B681BB1DB6A0BB124484C
:104FE0009847022E04D80136F6B2224B00221A70DE
:104FF000032E23D01F4B1C780B2C30D00C2CF9D84F
:1050000001A353F824F000BF49470000CD4700003A
:10501000574800004F4A0000D74A0000A74B000045
:105020004B4C0000D34C0000A14D00002B4E000063
:10503000C54E0000F54F0000D54F00000B4B1B681C
:105040001BB1DB6A0BB10C48984700260B4B1E7056
:105050000B4B01221A70074B0B221A70CAE7084B40
:105060001C78E4B2204636B0BDE8F0815C590020DF
:105070004CB800000845002070B800000D45002025
:1050800012450020C2B2A2F14103DBB2052B00D9C8
:105090007047203250B2FBE728B3F8B50F4629B36A
:1050A000174903F099FF044618B30C34002500E0BB
:1050B000013494F9000080B122280ED00B2D0CD8B9
:1050C000C3B2104AD35613F0440FF1D06E1CF6B29F
:1050D000FFF7D8FF78553546EAE700237B550C2DBE
:1050E0000AD11846F8BD4FF0FF3070474FF0FF303F
:1050F000F8E74FF0FF30F5E74FF0FF30F2E700BF81
:10510000B8B9000009BF000000B370B50C461546E1
:1051100006465F291DD9FAB10A46002103F022FF95
:105120001248FEF74FFCD0B900234FF4FA62214633
:105130005A2C28BF5A213046FEF76AFC08B10328D2
:1051400010D129463046FFF7A7FF70BD4FF0FF3062
:1051500070474FF0FF30F8E74FF0FF30F5E74FF0C2
:10516000FF30F2E74FF0FF30EFE700BFC8B90000B3
:1051700070B582B01C4D1D4C1D4E00962B461D4A2D
:105180003021204603F060FE00962B461A4A50213B
:105190001A4803F059FE00962B46194A5021194827
:1051A00003F052FE00962B46174A5021174803F091
:1051B0004BFE2346164A6021164803F045FE23465F
:1051C000154A6021154803F03FFE2346144A60212A
:1051D000144803F039FE2346134A6021134803F0B4
:1051E00033FE02B070BD00BF78AE0000D45B00207B
:1051F000045C0020D8B90000E0B90000845B002006
:10520000F4B90000E45A002004BA0000345B002026
:1052100018BA0000845A002038BA0000245A00202E
:105220005CBA0000C459002078BA0000645900201C
:1052300010B584B00023204A1370204A13605360D5
:105240009360D3600093019302938DF80C3060B3A8
:105250005F292DD96A46FFF757FFC8B9174C0F22AF
:105260006946204603F0A5FE1548FDF7DBFB204606
:10527000FDF7D8FBFFF77CFF0F4B01221A70114896
:10528000FDF7D0FB1048FDF7CDFB002004B010BDAA
:105290000A4C0F220D49204603F08BFE0C48FDF707
:1052A000C1FB2046FDF7BEFBE4E74FF0FF30EDE722
:1052B0004FF0FF30EAE700BF60590020045C002097
:1052C0009CBA000000BB0000D45B0020BCBA000008
:1052D000CCBA0000034B1B780BB10348704703485E
:1052E000704700BF60590020045C0020BCBA000079
:1052F000034B1B780BB1034870470348704700BF4E
:1053000060590020D45B002018B10000034B1B78CB
:105310000BB1034870470348704700BF6059002035
:10532000845B002010BB0000034B1B780BB10348CB
:1053300070470348704700BF60590020345B00206D
:1053400038BB0000034B1B780BB103487047034880
:10535000704700BF60590020E45A002060BB000085
:10536000034B1B780BB1034870470348704700BFDD
:1053700060590020845A002084BB0000034B1B7836
:105380000BB1034870470348704700BF60590020C5
:10539000245A0020B8BB0000034B1B780BB1034814
:1053A00070470348704700BF60590020C45900206F
:1053B000F4BB0000034B1B780BB103487047034854
:1053C000704700BF605900206459002028BC0000CD
:1053D000014B1868704700BF145C002010B50446EC
:1053E00003F044FE024601232146002001F0CAF9E1
:1053F00010BD08B50A4601230146022001F0C2F99A
:1054000010F1030F05D030B110F1040F05D10320C6
:1054100002E0022000E0002008BD0120FCE70000BF
:10542000032800D9704708B5064B03EB400C01294F
:1054300014BF002201229CF8011013F8100002F0A2
:1054400046FA08BDD0BE000008B5002001F0FDFD01
:10545000003818BF012008BD08B5002001F0E7FDA5
:10546000003818BF012008BD08B503F047FB08BD90
:1054700000B583B000238DF807300DF1070102203D
:1054800001F098FA9DF8070000F0010003B05DF804
:1054900004FB00B583B000238DF807300DF1070140
:1054A000022001F073FA9DF8070080F0010003B0BC
:1054B0005DF804FB08B5022001F04CFA003818BF73
:1054C000012008BD08B50A4600230146022001F06C
:1054D000BBF910F1030F02D010B1012000E002204F
:1054E00008BD00002DE9F04107460D4616460E4B5B
:1054F000D3F800800024AC4210D20B4B1B68A3EB06
:105500000803B3420AD201231A463919022001F0D6
:105510009BF90028EFD10134A4B2ECE714B10020CC
:10552000BDE8F0810320FBE7145C0020024A136809
:1055300001331360704700BF145C002008B50248B7
:10554000FEF734FA08BD00BFA0BE000048B3844691
:1055500051B3012A2BD9002390F9000068B310B58C
:105560000CE01C4603F1010E964523D21FFA8EF380
:1055700008550CF1010C9CF9000080B1222801D0E3
:105580005C28EED19C1C9442EBD2581C80B25C2467
:10559000CC5402339BB29CF900400C54E9E7C85448
:1055A00010BD4FF0FF3070474FF0FF3070474FF0A5
:1055B000FF3070474FF0FF30F2E7C854704770B5C6
:1055C00082B00546FEF7F8F978B10446C3699847FA
:1055D000064605E06368052201210DF107009847A2
:1055E000E3699847801BA842F4D302B070BD000065
:1055F0002DE9F041ADF5067D06460D46FEF7DCF9D6
:10560000002E00F08B800446002D00F08A800028D8
:1056100000F08A80A0225EA92846FFF797FF804607
:10562000002840F084803220FFF7C9FF5EAB009372
:105630003346424A4FF4B47104A803F005FC04A8B1
:10564000FEF7C0F9002875D14FF4406200213C48B4
:1056500003F088FCE3699847064605460027E3699E
:105660009847831B40F6C312934220D863680522F3
:1056700001210DF10F009847002835D17B1CB3F5AF
:10568000406F07D29BB29DF90F102D4AD1550021D2
:10569000D1541F46E369984705462A49284803F034
:1056A0009BFCA0B1E3699847401B1D28D7D91FB3C5
:1056B0002449234803F090FC20BB2349204803F0F1
:1056C0008BFC28B340460DF5067DBDE8F0811F49EF
:1056D0001B4803F081FC0028E4D11D49184803F061
:1056E0007BFC0028DED1BAE7002FB8D0E3699847E9
:1056F000401B4F28B3D9DAE71648FDF793F94FF06E
:10570000FF38DFE71448FDF78DF94FF0FF38D9E790
:105710001248FDF787F94FF0FF38D3E74FF0FF3815
:10572000D0E74FF0FF38CDE74FF0FF38CAE74FF032
:10573000FF38C7E74FF0FF38C4E700BFC4A7000039
:105740001864002058A60000B09B000020B900009B
:1057500064BC000068BC000084BC00009CBC00006D
:105760002DE9F04F85B0804689461546FEF724F9AD
:1057700000286AD00446B8F1000F68D0B9F10F0FC5
:1057800004D80026304605B0BDE8F08F4A46002117
:10579000404603F0E7FBE3699847074601904FF066
:1057A000000BDA465E46E3699847C01BA842E9D27F
:1057B0006368052201210DF10F00984758B1BAF135
:1057C000000FF0D0E3699847019BC01A40F2DB5309
:1057D0009842E8D9D6E73246731C994508D99EB25B
:1057E0009DF90F1008F802109BB2002208F8032060
:1057F000E36998470190BAF1000FD4D1154B13F922
:105800000B209DF80F109DF90F309A4203D02B29E1
:1058100014D0D346C7E70BF1010B5FFA8BFB0D4B9E
:1058200013F90B30002BBED1E3699847C31B03F576
:105830007A639D4205D34FF0010AB4E74FF0010BA4
:10584000B1E71D464FF0010AADE700269AE70026B2
:1058500098E700BFD8BE00002DE9F04796B00029B8
:1058600000F0DC8015460F4602464FF44061704858
:10587000FFF776FF0446002800F0D3806D496C489E
:1058800003F0AAFB002800F0D180002633460FE089
:105890009A4240F2C78093F900102C2940F0C28050
:1058A000581C93F9011022291ED0614BC01A83B2F3
:1058B00003F10D02A24280F0B5805E495C481844B5
:1058C00003F08AFB002800F0AD80594A831A12FACF
:1058D00083F30D33564A22449A42D9D993F90010E2
:1058E0002C29D5D00133F5E7023300E001339A4289
:1058F00003D993F900102229F8D19A4240F29280FC
:1059000093F90010222940F08D80591C93F9010071
:105910002C2803D0464BCB1A9BB2C9E702334FF079
:10592000000906E009EB890901EB4901A1F1300901
:1059300001339A4205D993F900102F2901DD392945
:10594000F0DD9A4206D993F900202C2A02D1B9F150
:10595000000F03D1364A9B1A9BB2A9E703F1010855
:10596000334BA8EB03081FFA88F808EB0903A3429E
:1059700009D84FF4006200212F4803F0F3FA4FF0EA
:10598000000A534607E0A4EB080249462B48FDF7FE
:1059900053F847E00133994510D90AF10102B2F5F5
:1059A000006FF7D218FA83F192B22148405622498B
:1059B00001F80A00002088549246EBE7514620483F
:1059C000FDF73AF8BAF1500F28BF4FF0500A002304
:1059D00005E058326A4402F8540C01339BB2534537
:1059E00009D21A461449C856A0F12001C9B25E294D
:1059F000EFD92E20EDE70AF158030DEB030A00233F
:105A00000AF8543C01A8FDF70DF829460A48B847A2
:105A100000B9012618FA89F39BB249E74FF0FF3627
:105A200000E00026304616B0BDE8F0870026F9E712
:105A30001864002068A60000185C0020B4BC0000B8
:105A4000DCBC0000002861D030B58DB00B46154697
:105A5000044600295DD0002A5ED0374A30216846CE
:105A600003F0F2F96946204603F0B6FA044600282E
:105A700055D0684603F0FAFA204490F900303A2BEA
:105A80000ED04FDC0D2B04D005DC093BDBB2012B23
:105A90004CD80130F1E7202BFBD04FF0FF3043E032
:105AA000441C94F90030093B192B11D8DFE803F0AE
:105AB0000D0D10100D1010101010101010101010EF
:105AC000101010101010100D100F0134E9E7013400
:105AD00004221A49204603F05AFA70B105221849E7
