:10000000000004202D850000797F00002785000076
:1000100029850000298500002985000000000000D6
:100020000000000000000000000000002985000022
:10003000298500000000000029850000E12600005D
:1000400029850000117100001B710000257100005E
:1000500029850000298500002985000029850000E8
:1000600029850000298500002985000029850000D8
:10007000298500002985000029850000836B000088
:100080008D6B0000976B0000A16B0000AB6B000054
:10009000B56B0000BF6B0000C96B0000D36B0000A4
:1000A000DD6B0000298500002985000029850000FE
:1000B0002985000029850000298500002985000088
:1000C0002985000029850000298500002985000078
:1000D000E7730000EF730000F7730000FF73000088
:1000E000077400000F7400001774000029850000D9
:1000F0002985000029850000298500002985000048
:100100002985000029850000298500002985000037
:100110002985000029850000298500002985000027
:100120002985000029850000298500002985000017
:10013000897E0000937E00009D7E0000AB6400007D
:10014000B5640000BF640000C9640000D36400000F
:10015000DD64000029850000298500002985000054
:10016000298500002985000009850000138500000D
:100170001D850000298500002985000029850000D3
:1001800029850000298500002985000029850000B7
:1001900029850000298500002985000029850000A7
:1001A0002985000029850000298500002985000097
:1001B0002985000029850000298500002985000087
:1001C0002985000029850000298500002985000077
:1001D000A77E0000298500002985000029850000F0
:1001E0002985000029850000298500002985000057
:1001F000E7640000F1640000FB6400000565000096
:100200000F650000196500002365000029850000C6
:100210002985000029850000298500002985000026
:100220002985000029850000298500002985000016
:100230002985000000000000000000000000000010
:1002400000000000000000000000000000000000AE
:10025000000000000000000000000000000000009E
:10026000000000000000000000000000000000008E
:10027000000000000000000000000000000000007E
:10028000000000000000000000000000000000006E
:10029000000000000000000000000000000000005E
:1002A000000000000000000000000000000000004E
:1002B000000000000000000000000000000000003E
:1002C000000000000000000000000000000000002E
:1002D000000000000000000000000000000000001E
:1002E000000000000000000000000000000000000E
:1002F00000000000000000000000000000000000FE
:1003000000000000000000000000000000000000ED
:1003100000000000000000000000000000000000DD
:1003200000000000000000000000000000000000CD
:1003300000000000000000000000000000000000BD
:1003400000000000000000000000000000000000AD
:10035000000000000000000000000000000000009D
:10036000000000000000000000000000000000008D
:10037000000000000000000000000000000000007D
:10038000000000000000000000000000000000006D
:10039000000000000000000000000000000000005D
:1003A000000000000000000000000000000000004D
:1003B000000000000000000000000000000000003D
:1003C0000348044B834202D0034B03B118477047E4
:1003D0006801002068010020000000000548064B6D
:1003E0001B1AD90F01EBA301491002D0034B03B133
:1003F00018477047680100206801002000000000D5
:1004000010B5064C237843B9FFF7DAFF044B13B15C
:100410000448AFF300800123237010BD6801002061
:10042000000000002CB6000008B5054B1BB10549C3
:100430000548AFF30080BDE80840FFF7CFBF00BF1D
:10044000000000006C0100202CB60000A3F5803AEB
:10045000704700BF174B002B08BF134B9D46FFF79B
:10046000F5FF00218B460F461348144A121A08F074
:10047000E5FA0E4B002B00D098470D4B002B00D017
:1004800098470020002104000D000D48002802D0EC
:100490000C48AFF3008008F021FB2000290005F094
:1004A0005DFA08F02BFA00BF000008000000000011
:1004B0000000000000000420680100202C730020D0
:1004C000000000000000000010B501F0DFFA022873
:1004D00004D001F09FFA20B9002010BD01F0C8FA45
:1004E000F7E702F03DF9044601E001F0C1F802F03F
:1004F00037F9001BB0F57A7FF7D301F0B9FA01F0B4
:100500001DFAEAE770B586B004460D460021ADF845
:100510000A10ADF80810ADF80610242208F08EFA83
:10052000211D204600F0F4FE68B10123237203A8C8
:1005300002F0E6F968B19DF8143053B10123237439
:10054000049BE36006E0002DF1D01B4802F04AFA5C
:10055000EDE7E5B90DF1060202A90DF10A0001F07F
:100560003FFFC0B101232376BDF80A306382BDF896
:100570000830A382BDF80630E382FFF7A5FF0646E8
:1005800078B1012384F82030E66106B070BD0B48D5
:1005900002F028FADEE7002DEFD0094802F022FA37
:1005A000EBE701F079FA0028EBD1002DEDD00548FA
:1005B00002F018FAE9E700BFA4940000B894000024
:1005C000CC940000E094000008B50A4802F00AFA52
:1005D000094802F007FA094802F004FA01F038FF6E
:1005E000782001F07CFF01F05FFF054802F0FAF986
:1005F00008BD00BFF894000024950000409500005D
:100600006C95000038B5334802F0ECF9324802F03E
:10061000E9F9324802F0E6F9314802F0E3F900F076
:100620006DFE002839D02F4802F0DCF900240125A6
:100630002D4802F0D7F902F051F9002833D02B48A9
:1006400002F0D0F9691CCDB2294802F0CBF901F0D3
:10065000BDFE70B3274802F0C5F9691CCDB226482B
:1006600002F0C0F901F0CAF948B3244802F0BAF91F
:10067000691CCDB2224802F0B5F92B19DBB2224633
:100680002946204802F0B8F9FCB91F4802F0AAF93F
:10069000124802F0A7F9204638BD1C4802F0A2F922
:1006A00001240025C4E71A4802F09CF90134E4B2A1
:1006B000CAE7184802F096F90134E4B2CFE71648C9
:1006C00002F090F90134E4B2D4E72146134802F075
:1006D00093F9DDE7F894000088950000409500004C
:1006E000AC950000D4950000009600001C96000018
:1006F0004C96000070960000A0960000C096000086
:10070000F89600002497000048970000E495000048
:100710003096000084960000D89600006497000090
:1007200010B5034C00212046FFF7ECFE204610BD1B
:100730008801002000285AD02DE9F0438BB00D46E7
:1007400014460146002D54D0002A54D002682B488C
:1007500080FB0230D317C3EBA013002A3BDB4FF41E
:100760007A7606FB132C4A68244E86FB0270D71754
:10077000C7EBA0174FF47A7808FB172EC868A6FBC2
:100780000026B20908FB1200B1F91260B1F9148019
:10079000B1F91690C9690891CDF81C90CDF8188070
:1007A0000596049003921649A1FB0E02D20802920C
:1007B0000197A1FB0C12D2080092124A214628464A
:1007C00008F0AEF8002801DB844200DC601E80B235
:1007D0000BB0BDE8F0835242084E86FB0206D017EC
:1007E000C0EBA6104FF47A7606FB102CBBE7002076
:1007F00070470020ECE71046EAE700BFD34D6210D7
:10080000CDCCCCCC8497000000286ED003460029C4
:100810006DD0002A6DD010B4007A68B11C6847F220
:100820003050844235DD3448007800283BD1012027
:10083000314C207000240C701C7EACB1B3F9164012
:10084000B4F52F7F31DC2D4C24786CB92B4C4FF054
:10085000010C84F800C0904206D200EB0C044FF06B
:10086000020C01F800C0E0B293F820407CB1DB69D3
:10087000B3F5FA6F2BD9224B1B7843B9204B0124D7
:100880001C70904203D2031904220A54D8B210BC3F
:100890007047194800780028CED01748002404700B
:1008A00001200870C8E70020C6E7144C2478002C0B
:1008B000DAD0124C4FF0000C84F800C09042D3D232
:1008C000441C4FF0030C01F800C0E0B2CCE70C4B25
:1008D0001B78002BDBD00A4B00241C709042D6D230
:1008E000431C05220A54D8B2D1E7002070470020EB
:1008F00070471046704700BF860100208501002028
:1009000084010020002975D010B582B084461046BD
:100910001C46002A70D0002C70D0BCF1050F70D896
:10092000DFE80CF0032B4E555C620A68384981FB06
:100930000231D317C3EBA113002A12DB4FF47A7CE8
:100940000CFB13223349A1FB0212D2080092324A57
:10095000214607F0E5FF002855DB844255DD80B2D3
:100960004DE052422A4981FB021CD117C1EBAC1168
:100970004FF47A7C0CFB1122E4E70A68244981FBDE
:100980000231D317C3EBA113002A0DDB4FF47A7C9D
:100990000CFB13221F49A1FB0212D20800921F4A2E
:1009A000214607F0BDFFD6E75242194981FB021CE0
:1009B000D117C1EBAC114FF47A7C0CFB1122E9E7A3
:1009C000B1F91630164A214607F0AAFFC3E7B1F97C
:1009D0001630144A214607F0A3FFBCE7CB69124A40
:1009E000214607F09DFFB6E7CB69104A214607F084
:1009F00097FFB0E700207047002000E0204602B0DB
:100A000010BD0020FBE70020F9E70020F7E700BF5A
:100A1000D34D6210CDCCCCCCE097000048980000BC
:100A2000B09800001099000068990000C899000073
:100A300010B50B4801F0D6FF0A4801F0D3FF0A4C6D
:100A4000204601F0CFFF094801F0CCFF084801F033
:100A5000C9FF204601F0C6FF064801F0C3FF10BDE4
:100A6000289A0000309A0000549A0000789A0000FA
:100A70009C9A0000C09A000008B504F0C5FA0A4B21
:100A80001B7883B1094A138801339BB21380B3F5F5
:100A90007A7F08D3134600221A80054A13889BB236
:100AA00001339BB2138008BDD1440020AC0100206B
:100AB000D244002010B501F027FE01F0C9FC01F07E
:100AC00059FE01F08BFE01F071FF08B9002409E026
:100AD000002001F0C8FC07E064221146002001F06C
:100AE000EEFC0134042CF7D9FFF7A2FFFFF76CFDF1
:100AF000FFF788FD014620B94FF47A7001F026FE19
:100B000010BD024801F078FFF6E700BFE89A000048
:100B100070B584B000F022F88DF80F000123029325
:100B2000FFF7FEFD0446032201A9FFF76DFE05460F
:100B30009DF80F6000F024F90146304600F024F9DA
:100B400002AA0DF10F01204600F0BAF89DF80F300F
:100B50002A4601A9204600F0F5F8E1E738B500F093
:100B600025FA404801F03EFF3F4801F03BFF3F4877
:100B700001F038FF3E4801F035FF01F059FD10B19A
:100B800001F08CFD20BB3B4801F02CFF04F044FA3F
:100B900002F0BAF90446F8B1374801F023FF3748AC
:100BA00001F020FF02F018FE002850D1344801F077
:100BB00019FF344801F016FF334801F013FF4FF4DA
:100BC000A051324800F008FA002846D1012442E042
:100BD0002F4801F007FFD9E72E4801F003FF02F08C
:100BE00000FE68B92C4801F0FDFE4FF4A0512748E3
:100BF00002F096FC0028D2D0284801F0F3FECEE7A0
:100C0000274801F0EFFE4FF4A051204802F062FAAD
:100C100080B9244801F0E6FE02F0E3FD054668B91C
:100C20004FF4A051194802F07BFA58B91E4801F060
:100C3000D9FEB4E71D4801F0D5FE0CE01C4801F0D8
:100C4000D1FE08E01B4801F0CDFE2C4603E01A4817
:100C500001F0C8FE0024204638BD184801F0C2FE4D
:100C60000124F8E7F89400000C9B00004095000078
:100C7000349B0000649B0000809B0000449D0000AA
:100C8000689D0000909D0000B09D00001C45002064
:100C9000549B0000B89B0000EC9B0000189C0000D7
:100CA000409C0000949C0000109D0000749C00007B
:100CB000C89C0000F09C0000CC9D0000EC9D000052
:100CC000002836D0F8B50C461546074651B14AB152
:100CD0000B7843B9267866B902F07EFD00B901268B
:100CE0002670C6B9F8BD4FF4A051124800F0B6F90D
:100CF000F0E7114801F076FE384602F077FD2968EA
:100D00004B1C2B600D4801F077FE4FF4A0510948B1
:100D100000F0A4F9E6E74FF4A051064800F05CF9B2
:100D200018B9384602F062FDDCE7054801F05AFECA
:100D3000F7E770471C450020289E0000409E0000F9
:100D4000589E0000D8B1F0B5A9B00E46154607462A
:100D500099B192B18BB1002401E00134E4B2AC420C
:100D60000BD2A0236A463946305DFFF7CBFD002841
:100D7000F3D0684602F064FDEFE729B0F0BD70479C
:100D800008B500F08DF908BD08B518B9084601F09E
:100D9000DDFC08BD0A464FF4A051024800F06AF994
:100DA000F7E700BF1C45002008B5074B1B782BB1A7
:100DB00001F06FFB054801F015FE08BD01F074FB62
:100DC000034801F00FFEF8E7B0010020809E00000C
:100DD000A49E000030B583B000238DF807300028B2
:100DE0006BD00446364B01221A70364907F060FE7C
:100DF00030B10DF10702344904F092FB0546E8B129
:100E00003249204604F00CFC054618B1304907F081
:100E10004FFE10B32F49204607F04AFE38B10DF1BE
:100E20000702294904F07CFB0546002839D02A48EE
:100E300001F0D8FD0025284603B030BD9DF807100D
:100E4000264801F0D9FD9DF80720254B1A70FFF7C1
:100E5000ABFF244B01221A70EDE71E49284607F02C
:100E600027FE0028D6D11749284607F021FE002882
:100E7000D0D10DF107021449284604F051FB054674
:100E80000028C7D19DF80710174801F0B5FD9DF85F
:100E90000720134B1A70FFF787FF124B01221A70BD
:100EA000C9E79DF80710114801F0A6FD9DF807203D
:100EB0000B4B1A70FFF778FFBDE74FF0FF35BAE72D
:100EC000AE010020CC9E0000D49E0000089F0000D0
:100ED000109F00001C9F0000809F0000E09E00000B
:100EE000B0010020AF010020289F0000549F0000A7
:100EF00030B58BB004460D460E4B1B78ABB10E4B94
:100F00000E4A2821684607F00BFD6A46294620460E
:100F100004F036FC044650B9094B00221A70094807
:100F200001F060FD20460BB030BD074BE8E74FF005
:100F3000FF34F7E7B0010020989F0000A89F000051
:100F4000AF010020BC9F0000A09F000070B582B0E0
:100F500006460D460024012C0BD800230A490B70CD
:100F600000930A4B2946304604F056FC084B1B7888
:100F70000BB902B070BD29463046FFF7B9FF013406
:100F8000E4B240F6B832E6E7AE010020D50D00002D
:100F9000AF01002070B504460D46164604F0C8FBAC
:100FA000324629462046FFF7D1FF70BD08B5002321
:100FB000054A1380054A1370054A137001F074FA4C
:100FC000044801F00FFD08BDB0010020AF01002072
:100FD000AE010020D89F00002DE9F04170B30D460E
:100FE0000746FF292DD904F069FB8046D0B9164B7E
:100FF00001225A700024022C1AD8611C134801F0F7
:10100000FBFC134E0023337041F2883229463846E8
:10101000FFF7C0FF33785BB90E4801F0E3FC013401
:10102000E4B2E8E7084B00225A704FF0FF3802E0C4
:10103000094801F0D7FC4046BDE8F0814FF0FF3889
:10104000F9E74FF0FF38F6E7B0010020EC9F000011
:10105000AE0100200CA0000038A0000008B5044B31
:101060005B7823B118B14FF44872FFF76FFF08BDEA
:10107000B001002008B568B18446084B5B784BB1DD
:1010800040F6B7339A4201D840F6B8326046FFF7CF
:1010900081FF08BD104601F059FBFAE7B0010020BE
:1010A0004FF4FA60704700000048704754A00000F9
:1010B000004870477CA000000278407840EA022097
:1010C000704708B5FFF7F8FF08BD45F2735303FBFF
:1010D00000F04013A0F52F40C838704743F609537D
:1010E00003FB00F04013A0F5BB5010387047F0B57B
:1010F00083B00C4617461E468DF800000122694653
:10110000442000F073F8054610B1284603B0F0BD46
:10111000204600F0BDF804226946442000F06AF839
:1011200005460028F1D16846FFF7CBFF38800DF166
:101130000200FFF7C6FF3080E7E708B502460B461E
:1011400042F21071FD20FFF7D2FF08BD70B582B0EA
:1011500005460C4601A90DF10600FFF7EEFF064615
:1011600048B9BDF80600FFF7B0FF2860BDF80400DD
:10117000FFF7B4FF2060304602B070BD10B582B0FA
:1011800094238DF8073001220DF10701442000F06F
:101190002DF8044610B1204602B010BD42F2107086
:1011A00000F076F8F7E78446FF2000220EE04000CA
:1011B000C0B2013BDBB23BB110F0800FF7D0400072
:1011C000C0B280F03100F4E7013292B28A4204D218
:1011D0001CF8023058400823EDE7704710B514465C
:1011E000FFF7E1FF001B18BF012010BD08B500F09C
:1011F0003EF808BD2DE9F04112F001041FD10D4663
:10120000520802EB420297B23A4600F020F88046BC
:10121000B8B92646BC4214D2A31CEA5C02212819A4
:10122000FFF7DCFF80B9731C9BB22A5DAA5502361A
:10123000B6B22A195278EA540334A4B2EAE74FF05E
:1012400004084046BDE8F0818046FAE7704700B5E3
:1012500083B01346012200920A460146022006F09E
:10126000F9FC10B903B05DF804FB0220FAE700B501
:1012700083B01346012200920A460146022006F07E
:101280001DFC10B903B05DF804FB0220FAE7000072
:1012900008B500F2E7330548A0FB03208009B3F549
:1012A0007A7F00D2012001F051FA08BDD34D6210BF
:1012B00010B5074B1C780CB1204610BDFFF7C6FFD8
:1012C000FFF75CFF0028F7D10124014B1C70F3E706
:1012D000B201002008B50346074A107838B13BB187
:1012E00041B11846FFF732FFB0FA80F0400908BD5F
:1012F0000020FCE70020FAE7B201002008B5FFF764
:10130000D7FF10B1014B01221A7008BDB3010020B4
:1013100008B50346064A107820B123B129B1184612
:10132000FFF7D8FF08BD0020FCE70020FAE700BF68
:10133000B3010020002807DB00F01F024009012351
:101340009340024A42F82030704700BF00E100E0BD
:1013500000280CDB00F01F024009012393402030DD
:10136000034A42F82030BFF34F8FBFF36F8F7047AF
:1013700000E100E0074B1B685B08B3FBF0F283421F
:1013800000D3013AB2F5803F01D34FF6FF7290B21D
:10139000704700BF0C010020044B1A6842F0800225
:1013A0001A601A6842F040021A607047002001413A
:1013B0000020704708B540B1084B4FF48062C3F875
:1013C00088214A20FFF7B6FF08BD4A20FFF7C0FF7B
:1013D000024B4FF48062C3F88821F5E700E100E09A
:1013E000174B5A6A174B1A60174B1B68012B13D007
:1013F000134B586A10F0100002D010225A620120DC
:10140000E8B90F4B5B6A13F0040F0ED00C4B0422AB
:101410005A6240F002007047094A506A10F010000A
:101420000DD01021516218467047054B5B6A13F0CE
:10143000010F04D0024B00225A6240F002007047B4
:1014400000200141C8010020C001002000B583B088
:10145000032300930023054A1946184606F016FF99
:10146000B0FA80F0400903B05DF804FBD95A0000DF
:1014700030B10168054A11604268054B1A60704737
:101480000023024A1360024A13607047B80100202B
:10149000B40100207047000008B5024A1060FFF751
:1014A000F9FF08BDC401002008B503460A4A1078B8
:1014B00080B9591E4BF67F3291420CD81846FFF77F
:1014C00059FF02460021084605F008FBB0FA80F0FB
:1014D000400900E0002008BDBC01002008B5012241
:1014E0000021084605F0F8FE00B108BD07220021E2
:1014F000084605F0A1FEF8E770B50120FFF7CCFF24
:101500002C4B1C780CB1204670BDEFF3108572B6E1
:101510000020FFF74FFF0220FFF7BEFFFFF796FF07
:10152000064638B30320FFF7B7FFFFF735FF042067
:10153000FFF7B2FF204B02221A601E4B01221A70E5
:101540000720FFF7A9FF002005F0DDFA0820FFF7CC
:10155000A3FF002006F028FF98B90920FFF79CFFA1
:10156000FFF726FFE0B90A20FFF796FFFDB962B644
:101570003446C8E75A20FFF78FFF05B962B63446F4
:10158000C1E7002005F0CDFA00230A4A13700A4A89
:1015900013605B20FFF780FF002DB4D162B6B2E785
:1015A0000520FFF779FF044B01221A60DBE7344680
:1015B000A9E700BFBC010020C001002008B5094B0D
:1015C0001B7803B908BD0020FFF7F4FE002005F0EA
:1015D000A8FA002006F01CFF0023024A1370024AFA
:1015E0001360EFE7BC010020C0010020002831D0CB
:1015F00000B583B018490B6801330B6010F0010F80
:1016000005D110F0020F0ED103B05DF804FB134AB0
:10161000136801331360124B1B68002BF4D0402178
:1016200010489847F0E7104B1B68012B14BF0023AC
:1016300001238DF800306A460021084606F018FFA5
:101640000028E1D1094B1B68002BDDD0BDF802005A
:101650009847D9E7704700BFD0010020CC01002097
:10166000B8010020D4010020C0010020B4010020F6
:1016700008B5064B1B7803B908BDFFF7B1FE00287B
:10168000FAD00021FFF7B2FFF6E700BFBC0100204F
:1016900070B1826872B1C26872B10268013A4BF6E9
:1016A0007F318A420AD84368642B09D801207047E9
:1016B00000207047002070470020704700207047CE
:1016C000002070470023044A1370044A1360044A40
:1016D0001360044A13607047640200206002002017
:1016E0005C0200205802002050EA01032FD070B5A0
:1016F000844600234FF0804203E09B0843EA827354
:1017000092089C4571EB0200F7D30020864608E062
:10171000400840EACE704FEA5E0E9B0843EA8273AF
:10172000920853EA020414D0C4184EEB0205A445F3
:1017300071EB0506ECD3BCEB0404A44661EB050198
:10174000400840EACE70C01842EB5E0EE5E700208C
:10175000704770BDF8B138B50A460546E9B10020BA
:10176000014684460FE035F81C30A3F50043DC1732
:1017700003FB04F4A3FB033E0EEB440E18184EEBE0
:1017800001010CF1010C9445EDD3002306F03EFF5E
:10179000FFF7AAFF38BD002070470846FAE70000AF
:1017A000114B1B6883420ED2C21A5108012A08D974
:1017B0000B440D4A1360834200D910600A4B18682D
:1017C00070470121F4E78342F8D9181A02090F285B
:1017D00000D80122934203D2034B00221A60EDE7A6
:1017E0009B1A014A1360E9E758020020012803D040
:1017F000022803D103207047022070470120704760
:1018000008B503463C4A107801280FD002282BD097
:10181000B3F57A7F53D3394A136801331360384ADA
:1018200000211160012B43D8002014E0B3F52F7F75
:1018300012D233490A6801320A60072A5AD90A4685
:1018400000211160B42B0BD82B4B02221A702A4BAB
:101850001878FFF7CBFF08BD0020294B1860FAE786
:10186000254B00221A70F2E7B42B0AD9B3F57A7F20
:1018700012D3224A136801331360012B05D80020CC
:10188000E9E700201D4B1860E5E7134600221A60C7
:10189000194B01221A70DEE7B3F5E17F01D8002071
:1018A000D9E70023154A1360134A13700120D2E7C9
:1018B000124B1960104B01221A700220CBE7B42B97
:1018C00012D80E4B00221A600D4A136801331360C0
:1018D000072B01D80020BEE7134600221A60064BF2
:1018E00002221A700320B6E70020044B1860044B54
:1018F0001860B0E70020AEE764020020600200201C
:101900005C02002008B50248FFF7B2FD08BD00BF29
:1019100060B5000010B5044600230370436009B1B0
:1019200008460AB9204610BD1146FFF713FFFFF71E
:1019300037FF6060FFF764FF2070F3E7014B186822
:10194000704700BF5802002048B14FF47A5202603D
:1019500050224260024A82604FF48062C260704747
:101960008C02002038B50446FFF792FE002829D0EB
:10197000184B1B78022B2AD0FFF7B0FDFFF7C2FFF0
:101980002368154D2B606268144B1A60A268144BD3
:101990001A60E268134B1A600024134B1C60134B4F
:1019A0001C60134B1C70134B1C605C609C60FFF749
:1019B00089FE114B1C602868FFF776FD18B1054BB6
:1019C00001221A7038BD034B03221A70FAE7002077
:1019D000F8E700BF8802002004000020000000207B
:1019E00084020020800200207C0200207802002077
:1019F00074020020680200205402002000B585B067
:101A00006846FFF7A1FF6846FFF7ACFF05B05DF839
:101A100004FB0000104B1B78012B01D00020704705
:101A200010B500240D4B1C600D4B1C600D4B1C7041
:101A30000D4B1C605C609C60FFF744FE0B4B1C6010
:101A4000054B02221A70FFF757FD00B110BD024B83
:101A500003221A70FAE700BF880200207C020020EF
:101A60007802002074020020680200205402002046
:101A700008B5054B1B78022B00D008BDFFF79EFD73
:101A8000014B01221A70F8E788020020014B1878F8
:101A9000704700BF88020020014B1868704700BFE4
:101AA0007802002010B4A0F2A960154B1B6800FB5F
:101AB00003F3144A82FB0302DB17C3EB62130B60D0
:101AC000DB000B604A681A448868121AC2EB4212A3
:101AD000D2001446002A0DDB24124C608B600A4BA6
:101AE0009A420ADB47F6F870A042A8BF204600B22F
:101AF00010BC704702F1FF04EEE70448F7E700BFAF
:101B0000000000201F85EB51010780FF0880FFFFC8
:101B100082B002AB03E9030002B0704700B583B0A6
:101B20000A4601466846FFF7F5FE084A1368013386
:101B300013609DF8003013B903B05DF804FB02ABED
:101B400013E90300FFF7E4FFF6E700BF54020020AB
:101B500010B51149C0F30B00FFF7A4FF0F4B1C6831
:101B60000F490B68A0F5004224F8132001330B60E5
:101B70000C4A11688B4204D20B4A1368013313607C
:101B800010BD074B00221A60084B01221A70204634
:101B9000FFF7C4FFF0E700BF6802002084020020C6
:101BA0007C020020800200207802002074020020C5
:101BB00008B5044B1B78022B00D008BDFFF7C8FF07
:101BC000FBE700BF88020020094B1B78022B0ED1D7
:101BD00070B505460E4648B1002405E035F81400FE
:101BE0000009FFF7B5FF0134B442F7D370BD704769
:101BF0008802002000B585B08DF80F20BDF81820B0
:101C00000192009301230DF10F02D940054800789D
:101C100000F0C0F910B905B05DF804FB4FF0FF30DB
:101C2000F9E700BF0800002000B583B00B46012A89
:101C300001D940F080000092024633210120FFF7D5
:101C4000D9FF03B05DF804FB08B5014601220F205F
:101C5000FFF7EAFF08BD000010B594B09E46BDF83E
:101C6000584000238DF80F30631C402B1BD84908C7
:101C70008DF81020002207E0501C1EF802C05132DF
:101C80006A4402F840CC82B2A242F5D3012201920A
:101C90000DF10F02009204AA0648007800F07AF9CC
:101CA00020B914B010BD4FF0FF30FAE74FF0FF300D
:101CB000F7E700BF0800002000B583B00B46012AFB
:101CC00001D940F080000092024633210120FFF745
:101CD000C3FF03B05DF804FB10B582B004460122D7
:101CE00001A91F20FFF7A0FF08B102B010BD9DF8A9
:101CF000043064F387138DF80430012201A91F20FA
:101D0000FFF7DAFFF1E710B582B00446012201A91E
:101D10002020FFF789FF0090009B13B1009802B0CC
:101D200010BD9DF8043043F008038DF80430DBB299
:101D300064F307138DF80430012201A92020FFF776
:101D4000BBFF0090EAE710B582B00446012201A96A
:101D50002320FFF769FF08B102B010BD9DF80430E1
:101D600064F305138DF80430012201A92320FFF745
:101D7000A3FFF1E710B582B00446012201A9232098
:101D8000FFF752FF08B102B010BD9DF8043064F3B4
:101D9000C7138DF80430012201A92320FFF78CFF1F
:101DA000F1E710B582B00446012201A92420FFF713
:101DB0003BFF08B102B010BD9DF8043064F3C713B7
:101DC0008DF80430012201A92420FFF775FFF1E707
:101DD00000280CDB00F01F02400901239340203053
:101DE000034A42F82030BFF34F8FBFF36F8F704725
:101DF00000E100E0032803D8DFE800F00B05070945
:101E00006FF0100070473D2070473E2070476420FF
:101E100070473C2070470000064B426912F0800F6B
:101E200002D11BB1013BF8E7806870474FF0FF30EB
:101E3000704700BF40420F00436943F00203436113
:101E4000064B426912F0800F02D10BB1013BF8E75B
:101E5000436923F002034361704700BF40420F0013
:101E600042F21073426912F0800F04D01BB1792244
:101E70008260013BF6E7704710B50C46FFF7BAFFEA
:101E8000FFF7A6FF636923F0100363612046FFF7A5
:101E9000E7FF10BD38B50D46FFF7ACFF04462846F6
:101EA000FFF7DEFF6B6923F010036B61002C08DB8A
:101EB00004F01F01630901228A406033034941F89D
:101EC00023202046FFF784FF38BD00BF00E100E07B
:101ED00030B587B005460024029403940494059419
:101EE0000A4B049301238DF814303223ADF81630D9
:101EF00002A905F00DFD0323009323462246214647
:101F0000284605F051FD07B030BD00BFA086010096
:101F1000032800D9704770B5064600F58005A03546
:101F20002D022946FFF7A8FF002405E02846FFF709
:101F300083FF7923AB600134082CF7D9294630465A
:101F4000FFF7A8FF70BD0000032800D9704710B547
:101F50000446FFF7DDFF204605F0B0FC204605F003
:101F600095FC2046FFF7B4FF014B00221A7010BD0C
:101F70008C0A002008B5064A13780133DBB21370CF
:101F8000012B02D9FFF7E0FF08BDFFF7C1FFFBE718
:101F90008C0A00202DE9F04F83B00192032800F253
:101FA000DD8006460D461F464BBB0D9B002B00F007
:101FB000D8800C9B002B00F0D6801FB1019B002B1A
:101FC00000F0D48006F58004A03424022146304677
:101FD000FFF752FF636943F008036361236823F04E
:101FE000FF036D00EDB22B432360636943F00103EF
:101FF0006361604B4FF00008C346C2464DE00D9B45
:10200000002BDAD0D5E70D9B002B00F09D80636993
:1020100043F008036361236823F0FF0345F00102E6
:1020200013432360636943F0010363617923A36071
:102030004FF0010830E0BA450CD2236823F0FF03CB
:10204000019A12F80A20134323607923A3600AF14E
:10205000010A21E00D9B002B78D0636943F008034F
:102060006361236823F0FF0345F0010213432360FB
:10207000636943F0010363617923A3604FF00108B2
:102080000AE0452829D0852804D044283BD06FF0A9
:10209000080548E07923A3604B4603F1FF39002B84
:1020A00039D02046FFF7B8FEB0F1FF3F36D0B8F187
:1020B000000FE6D14728BED0872832D1BA45A2D238
:1020C000236823F0FF03019A12F80A2013432360C8
:1020D0007923A3600AF1010ADEE70D9B9B4537D205
:1020E00022680BF101030C9901F80B200D9A9A421A
:1020F00003D07922A2609B46CEE7626922F00802F3
:1021000062619B46C8E70D9B9B4502D06FF00805B6
:1021100009E0002507E06FF0080504E06FF008050E
:1021200001E06FF008052046FFF786FE7923A360E3
:1021300021463046FFF7AEFE65B90F4B00221A70FC
:10214000284603B0BDE8F08F0025ECE70025EAE75C
:102150000025E8E73046FFF70DFFF1E76FF00105D6
:10216000EEE70025ECE76FF00505E9E76FF0050500
:10217000E6E700BF40420F008C0A002038B5054654
:1021800000240BE02846FFF75FFD10B92B78332BB6
:1021900014D00A2000F0DAFA0134E4B2092C0BD88A
:1021A000002CEFD00220FFF7B3FE0120FFF7F9FD6E
:1021B000322000F0CBFAE5E7002038BD0120FCE733
:1021C00010B582B05F238DF8073000248DF80640EB
:1021D00008E00A2000F0BAFA02E00A2000F0B6FA9D
:1021E0000134E4B2042C1AD801220DF10701202099
:1021F000FFF762FD0028ECD1022000F0A7FA0122CF
:102200000DF106012020FFF70FFD0028E5D19DF814
:1022100006209DF807309A42DFD1012000E000201F
:1022200002B010BD10B582B000238DF80730234BEB
:102230001C78CCB9002303E0214A0021D15401339A
:10224000012BF9D9642000F081FA0220FFF760FE2B
:102250000120FFF7A6FD322000F078FA0DF107000B
:10226000FFF78CFF18B90446204602B010BD0020CD
:10227000FFF749FD0028F7D1052000F067FA00209C
:10228000FFF778FD0028EFD1FFF75DFD0028EBD1C7
:102290000320FFF721FD0028E6D1FFF791FF044658
:1022A0000028E1D0142000F051FA062269462920C6
:1022B000FFF7BAFC014B01221A70D5E7920A002001
:1022C000900A00202DE9F04F87B0019200238DF88D
:1022D0000F303D4B1F78002F6ED005460E4600286C
:1022E00063D0002963D0002A63D04FF00008C246B3
:1022F000C346C146B9F1030F3DD8C82401220DF1F0
:102300000F012720FFF790FC002854D19DF80F30D3
:1023100013F0080F06D1012000F018FA013CA4B216
:10232000002CEBD19DF80F3013F0080F48D0062297
:1023300004A92920FFF778FC002843D19DF810203C
:102340009DF8113043EA02230BFA83FB9DF812201B
:102350009DF8133043EA02230AFA83FA9DF8142009
:102360009DF8153043EA022308FA83F809F10109C0
:102370005FFA89F9BEE7CBEB4B130BEB830B4BF307
:102380004F3BA5F800B0CAEB4A130AEB830A4AF3A5
:102390004F3AA6F800A0C8EB481308EB830848F3AF
:1023A0004F38019BA3F8008006E0002704E00027D7
:1023B00002E0002700E00027384607B0BDE8F08FB4
:1023C0000027F9E70027F7E7920A002008B5FFF792
:1023D00029FF10B1014B01221A7008BD930A002099
:1023E00008B503460748007828B12BB131B13AB19E
:1023F0001846FFF767FF08BD0020FCE70020FAE75A
:102400000020F8E7930A002009288CBF0020012053
:102410007047000038B504460D4659B10A4B03EB2E
:1024200040010122497813F8100004F0BCFF074B6B
:102430001D5538BD044B03EB40010022497813F8C9
:10244000100004F0B0FFF2E768B50000940A002025
:1024500010B5002404E00021E0B2FFF7DBFF0134F7
:10246000092CF8D910BD10B50446FFF7CDFF00B90F
:1024700010BD01212046FFF7CDFFF9E710B5044656
:10248000FFF7C2FF00B910BD00212046FFF7C2FFD1
:10249000F9E710B5002404E00121E0B2FFF7BAFF2C
:1024A0000134092CF8D910BD10B5002404E0002136
:1024B000E0B2FFF7AFFF0134092CF8D910BD70B5B9
:1024C00005460E461446FFF7CEFF304600F03EF9B3
:1024D0002846FFF7D3FF204600F038F970BD38B525
:1024E0000546002406E0E0B2FFF7BDFF284600F0F5
:1024F0002DF90134092CF6D9002406E0E0B2FFF7EB
:10250000BDFF284600F022F90134092CF6D938BD68
:1025100008B500220C21104604F045FF08BD00005C
:1025200008B5074B1B780BB1012008BDFFF7F0FF82
:1025300040F6B83000F00AF9014B01221A70F3E7B7
:102540009E0A002008B501220C21002004F02BFF78
:1025500008BD08B5FFF7F6FF4FF4FA7000F0F6F883
:10256000FFF7D6FF40F6B83000F0F0F808BD0000E5
:10257000002844D02DE9F04190B00E46144607469D
:1025800000293ED0012A3ED906F0DCFA054600F1CA
:102590000208B8F1400F03D9002010B0BDE8F08167
:1025A00002463946684606F0BFFA05F140036B441F
:1025B0000D2203F8402C05F141030DEB03050A231E
:1025C00005F8403C22460021304606F037FA012348
:1025D00042466946022003F041FE142C0DD8621ECB
:1025E00001233146022003F09BFE0849304606F0E5
:1025F0005FFA003818BF0120CFE71422F0E700206F
:1026000070470020C9E70020C7E700BF80960000A0
:1026100040B10A460146012A06D908B50348FFF72A
:10262000A7FF08BD0020704700207047A0A0000051
:1026300008B5FFF775FF10B1014B01221A7008BDF4
:102640009F0A0020124B1B78FBB110B590B00024FC
:1026500001E00134E4B2092C09D840216846FFF7B3
:10266000D7FF03460028F4D0184610B010BD9DF9DE
:1026700000302BB16946074800F0BEF90023F3E7AC
:10268000054800F0AFF90023EEE71846704700BF99
:102690009F0A0020A4A00000BCA000000E4B1B78E5
:1026A000BBB110B5002401E00134E4B2032C0DD815
:1026B000FFF7C8FF034650B9022CF5D80322611C6E
:1026C000064800F099F9FFF744FFEDE700231846AC
:1026D00010BD1846704700BF9F0A0020D4A000001C
:1026E00008B5074B1B681BB1054A1368013B136013
:1026F000044A136801331360FEF7BEF908BD00BF3A
:10270000A40A0020A00A00200C4B00221A600C4BE7
:102710001B680C4AA2FB03239B09013BB3F1807F9A
:102720000AD24FF0E0225361074BF02183F82310C7
:102730000023936107231361704700BFA00A0020A4
:102740000C010020D34D621000ED00E0034B186037
:10275000024B1B68002BFBD1704700BFA40A00206E
:10276000014B1868704700BFA00A0020B0FA80F043
:1027700040097047002303B1704700220249CA5440
:102780000249CA540133F6E7AC0A0020A80A002027
:1027900010B582B0044601238DF80730FFF7E6FF3D
:1027A00018B99DF8070002B010BD0DF1070209210C
:1027B000024B13F8140004F0DFFDF2E77CB50000D3
:1027C00008B5FFF7E5FFB0FA80F0400908BD08B58D
:1027D000FFF7F6FF00B908BD0120FCE710B50024A3
:1027E00004B110BDE0B2FFF7F2FF024B18550134FF
:1027F000F6E700BFB00A002082B00023019302E098
:10280000019B01330193019A034B9A42F8D9034B80
:1028100001221A7002B070471FA10700B10A002000
:1028200030B587B0224B1C78BCB10D4600293AD098
:1028300002238DF8043000238DF805308DF8063022
:102840008DF809308DF808000A238DF80A3001A9A7
:10285000012005F031FE18B10024204607B030BD3C
:10286000012005F0A1FD00BB0023009302E0009BC6
:1028700001330093009A42F20F739A42F7D9002174
:102880008DF8101004AA012005F0F2FD30B9BDF852
:1028900012302B80012005F0BBFDDEE7012005F0A2
:1028A000B7FD0024D9E70024D7E70024D5E700BF0F
:1028B000B10A002008B501461720FFF7B1FF08BD97
:1028C00039B140B14FF47A13B3FBF0F30B60012040
:1028D00070470020704700207047000008B5FFF7E0
:1028E0008BFF0120034B18700023034A1380034A17
:1028F000136008BDBA0A0020B80A0020B40A0020FC
:1029000010B582B004460023ADF806300093144B96
:10291000187840B114B30DF10600FFF7CBFF20B9D2
:1029200020806060207202B010BD6946BDF80600CC
:10293000FFF7C6FF58B1BDF806200A4B1A80009B6E
:1029400009490B602280636001232372EBE7BDF825
:1029500006302380002363602372E4E70020E2E76F
:10296000BA0A0020B80A0020B40A0020054B1B78E0
:1029700033B9054B00221A605A60024B01221A70CB
:1029800001207047440B0020BC0A002008B5064B0C
:102990001B780BB100B101B908BD01230A460146FD
:1029A000002003F05BFCF7E7450B002008B5FFF7BC
:1029B000DDFF10B1014B01221A7008BD450B00204C
:1029C00068B110B50446064B1B781BB106F0BAF887
:1029D000014600B910BD2046FFF7D8FFFAE770475F
:1029E000450B002008B5FFF7EBFF0248FFF7E8FFB3
:1029F00008BD00BF34AF00000FB400B5ABB02C9AD7
:102A000012B10B4B1B7823B92BB05DF804EB04B06B
:102A100070472DAB0193A02102A806F001F8011E1A
:102A2000F2DD9F2900DD9F2102A8FFF7AFFFEBE752
:102A3000450B002070B582B0054600F075FF78B1F7
:102A40000446C3699847064605E063680A220121E7
:102A50000DF107009847E3699847801BA842F4D31B
:102A600002B070BD10B590B03220FFF7E3FF094807
:102A700000F060FF402422460021684605F0DEFF9A
:102A800000234FF4FA722146684600F079FF10B037
:102A900010BD00BFF0A000002DE9F04F85B08046CA
:102AA00089461646019300F03FFF00285ED0044699
:102AB000B8F1000F5CD0B9F10F0F04D800252846FB
:102AC00005B0BDE8F08F4A460021404605F0B6FF4C
:102AD000E3699847074600904FF0000BDA465D46E1
:102AE000E3699847C01BB042E9D26368052201211F
:102AF0000DF10F00984750B1BAF1000FF0D0E36923
:102B00009847009BC01A019B9842E9D3D7E72A4611
:102B10006B1C994508D99DB29DF90F1008F8021059
:102B20009BB2002208F80320E36998470090BAF1AD
:102B3000000FD5D10F4B13F90B209DF80F109DF905
:102B40000F309A4203D02B290DD0D346C8E70BF1A2
:102B5000010B5FFA8BFB074B13F90B30002BBFD136
:102B60004FF0010ABCE74FF0010BB9E70025A6E7DB
:102B70000025A4E780B5000000284DD070B590B0C6
:102B800014461D460646002949D0002A4AD0012B8A
:102B90004BD90B46294A4021684605F0C1FE6946DB
:102BA000304605F085FF0646002841D0684605F00E
:102BB000C9FF06EB000C00210DE0013189B20A23A8
:102BC000A3540CF1020C06E022281FD00CF1010CDA
:102BD000013189B2A0549CF90000B8B10A466B1EBD
:102BE000994213D25C28EFD19CF90130002BEBD035
:102BF0006E2BE2D0222B03D05C2B01D02F2BE3D104
:102C0000013189B2A3540CF1020CE4E700236354B0
:102C100089B1184610B070BD4FF0FF3070474FF0CB
:102C2000FF30F7E74FF0FF30F4E74FF0FF30F1E708
:102C30004FF0FF30EEE74FF0FF30EBE7F8A0000079
:102C40002DE9F843002800F0A2800D4616461F46E5
:102C50000446002A00F09E80012B40F29E80002056
:102C600010708146804616E00CF1010C6319634533
:102C700003D99CF900202C2AF6D1634560D99CF930
:102C800000202C2A5CD10CF101009CF90120222AA1
:102C900013D0001B80B200F10D03AB4250D240496B
:102CA000204405F005FF00284AD0A0EB040C1FFAD1
:102CB0008CFC0CF10D0CA444D8E70CF1020C01E0E3
:102CC0000CF1010C634503D99CF90020222AF7D1AD
:102CD000634535D99CF90020222A31D10CF101003D
:102CE0009CF901202C2A02D0001B80B2D3E70CF102
:102CF0000202002106E001EB810100EB4100A0F19E
:102D000030010132934205D992F900002F2801DDEC
:102D10003928F0DD934204D992F900302C2B00D1F0
:102D200011B9121B90B2B6E70132121B92B25318BE
:102D3000AB4201D800230DE0AA1A1A48FFF75CFE47
:102D40002B46424649461848FFF756FE4046BDE826
:102D5000F8830133994212D9C64608F10100B842FE
:102D6000F7D212FA83FC1FFA80F814F90CC006F8A7
:102D70000EC080B24FF0000C06F800C0E9E709F180
:102D800001091FFA89F912FA81F290B283E74FF034
:102D90000008DBE74FF00008D8E74FF00008D5E760
:102DA00000A1000010A100003CA1000000284DD0AF
:102DB0002DE9F0410C46154607463F2949D9002A1E
:102DC0004AD0DFF8A08040F6C4134AF6C8724FF428
:102DD000C0514046FFF760FE064623463A4601468C
:102DE0004046FFF72DFF044658B12946384605F006
:102DF0005FFE60B121461C48FFF7FEFD0020BDE8E4
:102E0000F0811A48FFF7EEFD4FF0FF30F7E732464A
:102E100021461748FFF7F0FD1649384605F048FEF1
:102E200010B11548FFF7DEFD1449384605F040FEA5
:102E300010B11348FFF7D6FD1249384605F038FEA9
:102E400068B11148FFF7CEFD0020D8E74FF0FF3002
:102E500070474FF0FF30D2E74FF0FF30CFE74FF031
:102E6000FF30CCE7480B002090A100006CA10000CF
:102E7000B0A10000DCA10000E8A1000014A2000045
:102E800008A2000020A200003CA20000F0B5B3B0F0
:102E900004460F4615461E4600F046FD1CB32DB3F2
:102EA0003EB348B36420FFF7C5FD3A4600212046F3
:102EB00005F0C4FD00962B46114AC02102A805F07A
:102EC0002FFD02A800F036FD38B9399B389A3946F3
:102ED0002046FFF76BFF33B0F0BD0A48FFF782FDD5
:102EE0004FF0FF30F7E74FF0FF30F4E74FF0FF30DF
:102EF000F1E74FF0FF30EEE74FF0FF30EBE700BFB8
:102F00005CA200007CA2000030B5C3B0FFF7AAFDB0
:102F10001F4B00931F4B204A60212AA805F000FD9B
:102F20002AA800F007FDE0B90446A0252A460021A2
:102F300002A805F083FD002340F6B832294602A816
:102F400000F01EFD154902A805F0B2FD80B9144934
:102F500002A805F0ADFD78B11248FFF743FD01244A
:102F600003E01148FFF73EFD0024204643B030BD8A
:102F70000E48FFF737FDF8E70D48FFF733FD9DF9E1
:102F800008301BB102A8FFF72DFDEEE70948FAE76C
:102F9000C0A20000A0A20000A8A20000E8A20000B9
:102FA00018A3000020A30000CCA20000F0A20000A3
:102FB0003CA3000098A20000F0B59DB0054600F0CB
:102FC000B3FC002866D00446FFF74CFD05230193AF
:102FD000394B0093394B3A4A602104A805F0A0FC14
:102FE00004A800F0A7FC002857D1E36998470746DA
:102FF00040220021284605F021FD002604E03E2164
:10300000284605F023FDC8B9E3699847C01B40F680
:10301000B733984212D86368322201210DF10F00B4
:1030200098470028F0D13E2EE9D8731C9BB29DF939
:103030000F20AA550022EA541E46E0E73E2128460A
:1030400005F004FD60B3236840F6B83205211D4841
:10305000984740BB002341F288327821284600F08F
:103060008FFC08B1032821D11749284600F0A8FC9D
:1030700020B11649284605F01BFDD0B1FFF744FFEB
:1030800010B100201DB0F0BD1148FFF7ABFC4FF0B0
:10309000FF30F7E74FF0FF30F4E74FF0FF30F1E794
:1030A0004FF0FF30EEE74FF0FF30EBE74FF0FF302F
:1030B000E8E74FF0FF30E5E7C0A20000A0A2000063
:1030C0005CA3000018A30000ECB100008096000093
:1030D0007CA3000010B5044600F0EAFA60B10C4889
:1030E000FFF780FC0021204600F0CCFE50B90948D3
:1030F000FFF778FC002010BD0748FFF773FC4FF086
:10310000FF30F8E70548FFF76DFC4FF0FF30F2E7BE
:10311000E0A3000010A40000B0A30000749C000015
:1031200030B5ADF5657D002800F0EE810D46044612
:10313000B1F5806FC0F0EB814FF400720021BB4805
:1031400005F07CFC4FF4B0620021B94805F076FC34
:103150004FF4E0620021B74805F070FCB648FFF775
:1031600041FC00230122B549204601F03FF8002828
:1031700040F0C98000230122B149204601F036F811
:10318000002840F0CD80AF48FFF72CFC4EF66023BE
:103190000193AD4B0093AD4BAD4A29462046FFF756
:1031A00075FE10F1020F00F0C880002840F0CE80BC
:1031B0004FF400739D4AA4492046FFF7DDFC002828
:1031C00040F0FF804FF4B063994AA2492046FFF7D0
:1031D000D3FC002840F0FB804FF4E063954A9E4901
:1031E0002046FFF7C9FC002840F0F7809B48FFF716
:1031F000F9FB9B48FFF7F6FB002301229949204683
:1032000000F0F4FF002840F0EE80002301229649F0
:10321000204600F0EBFF002840F0E580934B03933D
:10322000934B0293934B0193934B00937F4B934AA1
:103230004FF4407124A805F073FB9148FFF7D2FBCF
:1032400024A805F07FFC002302930193012300933F
:1032500024AB82B28B49204601F020F8002840F0D0
:10326000C8804EF66023884A29462046FFF79EFD17
:1032700010F1020F00F0C380002840F0C98083489D
:10328000FFF7B0FB502305AA7F492046FFF774FCE7
:10329000002800F0C3806749654800F01FFA054622
:1032A000002840F021817A48FFF79CFB002120464E
:1032B00000F0E8FD002840F01D812046FFF77CFE6D
:1032C000002800F01D817348FFF78CFB7248FFF760
:1032D00089FB0021204600F057FF00246F4B1C7033
:1032E0004FF400722146514805F0A8FB4FF4E0620C
:1032F0002146504805F0A2FB6948FFF773FB2846BA
:103300000DF5657D30BD6748FFF76CFB94F9003023
:1033100003B9654C2046FFF765FB4FF0FF35EEE73C
:103320006248FFF75FFB94F9003003B95E4C20461A
:10333000FFF758FB4FF0FF35E1E75D48FFF752FB21
:103340002046FFF74FFB4FF0FF35D8E75948FFF70E
:1033500049FB204605F0F6FB01465748FFF74CFBBA
:103360003C49204605F0A4FB10B15448FFF73AFB56
:103370003949204605F09CFB10B15148FFF732FB5C
:103380003149204605F094FB10B14E48FFF72AFB67
:10339000002303E005A9CA5401339BB2772B08D858
:1033A000E25632B1A2F12001C9B25E29F2D92E2231
:1033B000F0E705A80022C254FFF714FB4FF0FF35D9
:1033C0009DE74148FFF70EFB4FF0FF3597E73F4879
:1033D000FFF708FB4FF0FF3591E73D48FFF702FB91
:1033E0004FF0FF358BE73B48FFF7FCFA4FF0FF3516
:1033F00085E73948FFF7F6FA4FF0FF357FE73748A2
:10340000FFF7F0FA2046FFF7EDFA4FF0FF3576E7C9
:103410003348FFF7E7FA4FF0FF3570E73148FFF721
:10342000E1FA05A8FFF7DEFA35E700BFC82F002054
:10343000482A0020482300202CA400005CA400009F
:10344000B4A400000CA5000020A2000030A50000DC
:1034500034A50000B0A5000014A2000098A600004A
:10346000CCA60000FCA6000040A70000A09F000022
:103470002CA8000054A8000064A80000A0A7000029
:1034800074A8000090A80000ECA8000030A900007B
:103490007CA90000CCA9000020AA0000D444002090
:1034A00048AA000084A4000098A20000DCA4000048
:1034B00054A500006CA5000090A50000C0A5000068
:1034C000E8A500000CA6000038A6000054A60000E5
:1034D00078A6000084A70000CCA80000F8A800008F
:1034E00014A900004CA900000A48FFF77BFA4FF02E
:1034F000FF3504E70848FFF775FA4FF0FF35FEE6A1
:103500000648FFF76FFAE1E64FF0FF35F7E64FF0B8
:10351000FF35F4E660A90000ACA90000FCA900009A
:1035200028B108B57F2905D9FFF746FD08BD4FF042
:10353000FF3070474FF0FF30F8E790F900302D2B47
:1035400001D000207047012070470246002000E0B3
:103550000130884202D21356002BF9D17047000087
:103560002DE9F0472C4B1C7824B353E02B4EA500DB
:1035700004EB840306EB8303DA680021986805F006
:103580005DFA254406EB85060023336110E0234EE7
:103590004FEA840804EB840306EB83033A460021D8
:1035A000986805F04BFAA04406EB880600233361C7
:1035B0000134E4B2022C2AD804EB8402174B03EB4B
:1035C00082035E683046FFF7B8FF0028CED004EBD8
:1035D0008402124B03EB8203DF68791E3046FFF74B
:1035E000B4FF81460028D2D00C4F04EB840807EBCF
:1035F000880802463146D8F8080005F095FAD8F850
:103600000830002203F80920C8F81090D0E7024BD8
:1036100001221A70BDE8F087C83100200C0000209C
:1036200008B5FFF79DFF044B1B6913B1024B986867
:1036300008BD0248FCE700BF0C00002054AB0000AE
:1036400008B5FFF78DFF044B5B6A13B1024BD869D5
:1036500008BD0248FCE700BF0C00002054AB00008E
:1036600008B5FFF77DFF044B9B6B13B1024B186B42
:1036700008BD0248FCE700BF0C00002054AB00006E
:1036800008B5FFF76DFF014B186908BD0C0000205D
:1036900008B5FFF765FF014B586A08BD0C00002014
:1036A00008B5FFF75DFF014B986B08BD0C000020CB
:1036B00008B5FFF755FF084B1B693BB1064B5B6A2A
:1036C00033B1054B9B6B2BB9002000E0002008BDF7
:1036D0000020FCE70120FAE70C00002070B32DE980
:1036E000F0410F46804661B3FFF73AFF40F27F5149
:1036F0004046FFF72AFF044640F2FF613846FFF7D5
:1037000024FF05461F2C1FD91F2820D9114E224601
:103710004146F06905F008FAF3694FF0000803F834
:10372000048074622A463946306B05F0FDF9336B2C
:1037300003F80580B5634046BDE8F0814FF0FF30E7
:1037400070474FF0FF30F7E74FF0FF30F4E74FF0EE
:10375000FF30F1E70C00002070B594B0064600245D
:1037600001E00134E4B2022C28D8184800F0C8FE69
:1037700005460028F5D1012000F0AAFE16B3134E2D
:103780007369134A402104A805F0CAF8114C4FF49C
:10379000A0520021204605F051F904A805F0D2F905
:1037A000002302930193009304AB82B206F16E01F1
:1037B000204600F073FD00F077FE03E0002000F0EB
:1037C00087FE0125284614B070BD00BF48000020C8
:1037D000A0AA00001C45002008B50120FFF7BCFF8F
:1037E00008BD08B50020FFF7B7FF08BD70B584B06D
:1037F0000646FDF759FC04460F4D4FF480722946EA
:103800003046FCF797FF0D4E4FF4A0520021304692
:1038100005F014F900F048FE284605F093F900235E
:103820000293019300932B4682B22146304600F06A
:1038300035FD04B070BD00BFCC4300201C45002006
:10384000E8B170B584B00546FDF732FC04460C4E75
:103850004FF4A0520021304605F0F0F800F024FEAD
:10386000284605F06FF900230293019300932B463D
:1038700082B22146304600F011FD04B070BD7047A1
:103880001C450020032803D8DFE800F003030303EE
:10389000052070470438C0B2012801D900207047C4
:1038A000012070470338C0B2022801D801207047B8
:1038B000002070472DE9F84380460C461646164B0B
:1038C0001B68DB699847054622460021404605F003
:1038D000B5F80027104B1B68DB699847401BB042C6
:1038E00015D2A742F6D20C4B1B685B68322201212D
:1038F00008EB0700984781460028EBD10137BFB29B
:103900003E21404605F0A2F80028E3D001E04FF048
:1039100003094846BDE8F8831C590020014B186094
:10392000704700BF1C590020014B1868704700BF4A
:103930001C59002038B5094B1B6853B104461D685B
:103940004DB105F0FFF84FF4967281B22046A847BA
:1039500038BD0120FCE70120FAE700BF1C59002018
:1039600038B50446054B1B681D6805F0EBF84FF4AD
:10397000FA7281B22046A84738BD00BF1C5900200A
:10398000F8B507460D4616461C460A46002105F0C6
:1039900055F81CB1012C09D0012006E0074B1B682B
:1039A0005B683246294638469847F8BD034B1B688A
:1039B0009B68012138469847F7E700BF1C59002053
:1039C00010B5044605F074F808B1002010BD104B86
:1039D0001968204605F06CF808B10120F6E70D4B98
:1039E0001968204605F064F808B10220EEE72B21A3
:1039F000204605F02BF808B10320E7E7064B1968CD
:103A0000204605F055F808B10420DFE70520DDE782
:103A1000F0000020F4000020E800002070B59AB00B
:103A200004461D46BDF87860019600920B46204A78
:103A3000602102A804F074FF02A8FFF77BFF70BBAF
:103A400041F2883278212046FFF734FF50BB194BF2
:103A50001B681B6842F2107231462846984718BB13
:103A6000002342F2107278212046FFF789FF0546B5
:103A700028B1032803D02846FFF704FF10E00E4BBF
:103A800019682046FFF79CFF50B1831EDBB2012B63
:103A90000CD90528EFD1032DEDD1284600E00420F4
:103AA0001AB070BD0320FBE70420F9E70120F7E717
:103AB0005CA300001C590020F800002070B50446EB
:103AC0000D461948FFF736FF58BB06462B464FF404
:103AD0007A625A212046FFF753FF08B103281CD110
:103AE0001249204604F0E4FFE0B91149204604F0F1
:103AF000DFFFB8B92B464FF47A625A212046FFF710
:103B00003FFF0A49204604F0D3FF58B90849204630
:103B100004F0CEFF30B9032604E0FFF7B3FE0646FB
:103B200000E00426304670BDE8AA00008096000040
:103B3000F4AA000070B584B005461646002400942F
:103B400001940294ADF80C400A461849684604F006
:103B50001BFF6846FFF7EEFEF8B90446334641F214
:103B600088325A212846FFF70BFF064608B1032882
:103B70000FD10F4B19682846FFF722FF88B1831E2B
:103B8000DBB2012B0FD9052808D1032E06D134460C
:103B900004E0FFF777FE044600E00424204604B06A
:103BA00070BD0446FAE70124F8E700BFFCAA000054
:103BB000F800002070B504460D461548FFF7BAFE20
:103BC000F8B906462B4641F288325A212046FFF7C3
:103BD000D7FE054608B103280FD10E4B19682046C1
:103BE000FFF7EEFE80B1831EDBB2012B0ED9052854
:103BF00008D1032D06D12E4604E0FFF743FE06460A
:103C000000E00426304670BD0646FBE70126F9E7D2
:103C10000CAB0000F800002070B504460D461548B6
:103C2000FFF788FEF8B906462B4641F288325A2142
:103C30002046FFF7A5FE054608B103280FD10E4B1D
:103C400019682046FFF7BCFE80B1831EDBB2012B52
:103C50000ED9052808D1032D06D12E4604E0FFF722
:103C600011FE064600E00426304670BD0646FBE71E
:103C70000126F9E720AB0000F800002070B50446EB
:103C80000D461548FFF756FEF8B906462B4641F299
:103C9000883278212046FFF773FE054608B10328D5
:103CA0000FD10E4B19682046FFF78AFE80B1831EA4
:103CB000DBB2012B0ED9052808D1032D06D12E46E3
:103CC00004E0FFF7DFFD064600E00426304670BD45
:103CD0000646FBE70126F9E734AB0000F8000020B8
:103CE000F0B58FB004460D4616461F46322200211D
:103CF00001A804F0A3FE33462A46184901A804F09F
:103D000043FE01A8FFF716FE10BB05463B4643F6EF
:103D1000982296212046FFF733FE08B1032813D1DD
:103D20000F49204604F0C4FE98B90E4B196820468E
:103D3000FFF746FE054660B10B4B19682046FFF7BA
:103D40003FFE48B9012504E0FFF79CFD054600E071
:103D5000042528460FB0F0BD0325FAE740AB00006C
:103D600058AB0000F8000020F400002070B58EB0C1
:103D700004460D4616463222002101A804F05EFEDC
:103D80002A46184901A804F0FFFD01A8FFF7D2FD5B
:103D9000F8B90546334641F288325A212046FFF7EA
:103DA000EFFD064608B103280FD10F4B19682046D6
:103DB000FFF706FE88B1831EDBB2012B0FD9052861
:103DC00008D1032E06D1354604E0FFF75BFD05461A
:103DD00000E0042528460EB070BD0546FAE701252F
:103DE000F8E700BF64AB0000F8000020F0B59DB01C
:103DF00004460D4616461F466022002104A804F022
:103E00001DFE9DF8903003939DF88C300293229B09
:103E10000193009733462A46184904A804F0B4FDDC
:103E200004A8FFF787FD00BB05469DF8943041F2DA
:103E3000883278212046FFF7A3FD064608B1032803
:103E40000FD10F4B19682046FFF7BAFD88B1831ECA
:103E5000DBB2012B0FD9052808D1032E06D1354638
:103E600004E0FFF70FFD054600E0042528461DB0DD
:103E7000F0BD0546FAE70125F8E700BF88AB000072
:103E8000F800002070B582B004460D46304B1B6828
:103E90001BB1DB6A0BB12F489847FFF7C1FB064601
:103EA000FFF7EEFB2C49019580B2009033460A469D
:103EB0002046FFF7B3FD0646002835D1244B1B688A
:103EC0001BB1DB6A0BB125489847FFF7B9FB0646E3
:103ED000FFF7DEFB2249019580B2009033460A4687
:103EE0002046FFF79BFD064640BB194B1B681BB1E4
:103EF000DB6A0BB11B489847FFF7B2FB0646FFF79A
:103F0000CFFB1949019580B2009033460A462046FE
:103F1000FFF784FD064670B10D4B1B685BB1DB6A91
:103F20004BB11248984706E0094B1B681BB1DB6A8E
:103F30000BB10F489847304602B070BD044B1B6868
:103F4000002BF8D0DB6A002BF5D00A489847F2E73F
:103F50001C590020B8AB0000D8AB000000AC00003A
:103F600024AC000054AC000078AC000084AC00002D
:103F7000E0AB000030AC000070B598B004460D46D0
:103F8000164660220021684604F058FD2A4618496A
:103F9000684604F0F9FC6846FFF7CCFCF8B9054622
:103FA000334641F2883278212046FFF7E9FC064685
:103FB00008B103280FD10F4B19682046FFF700FD09
:103FC00088B1831EDBB2012B0FD9052808D1032E3F
:103FD00006D1354604E0FFF755FC054600E0042510
:103FE000284618B070BD0546FAE70125F8E700BF7E
:103FF000A8AC0000F8000020F0B595B004460D46CE
:1040000016461F464622002102A804F017FD9DF81F
:1040100068300193009733462A46184902A804F0F5
:10402000B3FC02A8FFF786FC00BB05469DF86C3088
:1040300041F288325A212046FFF7A2FC064608B119
:1040400003280FD10E4B19682046FFF7B9FC88B141
:10405000831EDBB2012B0FD9052808D1032E06D110
:10406000354604E0FFF70EFC054600E0042528462F
:1040700015B0F0BD0546FAE70125F8E7BCAC000035
:10408000F8000020F0B59DB004460D4616461F46C8
:104090006422002103A804F0D1FC009642F2B3236D
:1040A0002A46184903A804F06FFC03A8FFF742FC56
:1040B000F8B905463B4641F28832C8212046FFF751
:1040C0005FFC064608B103280FD10F4B1968204644
:1040D000FFF776FC88B1831EDBB2012B0FD90528D0
:1040E00008D1032E06D1354604E0FFF7CBFB054689
:1040F00000E0042528461DB0F0BD0546FAE701257D
:10410000F8E700BFECAC0000F8000020F8B504466A
:104110000D461A48FFF70EFC40BB06462B4641F2FF
:104120008832C7212046FFF72BFC074608B1032839
:1041300018D1134B19682046FFF742FC0546114B76
:1041400019682046FFF73CFC284310F0FF0010D010
:10415000831EDBB2012B0ED9052808D1032F06D10F
:104160003E4604E0FFF78EFB064600E0042630469C
:10417000F8BD0646FBE70126F9E700BF08AD0000E1
:1041800018450020F800002070B504460D4615487B
:10419000FFF7D0FBF8B906462B4641F288325A2188
:1041A0002046FFF7EDFB054608B103280FD10E4B63
:1041B00019682046FFF704FC80B1831EDBB2012B97
:1041C0000ED9052808D1032D06D12E4604E0FFF7AD
:1041D00059FB064600E00426304670BD0646FBE764
:1041E0000126F9E718AD0000F8000020F0B5B3B0E3
:1041F00004460D4616461F46C022002102A804F0C0
:104200001DFC002C39D0002D39D000962B461F4ABA
:10421000C02102A804F084FB02A8FFF78BFB05462F
:1042200078BB3B4641F288324FF480712046FFF75D
:10423000A7FB064608B103281BD11549204604F008
:1042400037FC20B11349204604F032FCD0B11249AA
:10425000204604F02DFCA8B90E49204604F028FCA5
:1042600008B101250EE0032E01D001250AE03546F4
:1042700008E0FFF707FB054604E0052502E00525F9
:1042800000E00425284633B0F0BD00BF2CAD00008F
:1042900080960000E8A2000044AD00002DE9F04F38
:1042A000BBB006468946039204939DF810B19DF871
:1042B00014A19DF818810025084604F043FCC7B2FC
:1042C0002437FFB2C822294608A804F0B7FB5A4B8E
:1042D0001B68DB6898470595069507952C460EE008
:1042E000CDF804A0CDF800B0039B4A46534908A876
:1042F00004F04AFB08A8FFF733FB05460124042C11
:1043000000F08E80032CFAD801A353F824F000BFEC
:10431000E14200002143000089430000A543000062
:10432000002D7FD143464FF4FA7239463046FFF7ED
:1043300027FB08B10328E2D1414B19683046FFF74B
:104340003FFB0528DBD801A353F820F011440000FF
:104350006543000015440000FF4200008543000053
:1043600075430000069B0133DBB20693032B53D841
:104370002C46C4E7079B0133DBB207930A2BBED957
:104380000224BCE72C46BAE743464FF47A724FF456
:1043900096713046FFF7F4FA0498FFF7E1FA054604
:1043A0000324ACE7002D3FD143464FF47A724FF41B
:1043B000C8713046FFF7E4FA08B103289FD1214BBA
:1043C00019683046FFF7FCFA052898D801A353F87E
:1043D00020F000BF1D440000F1430000ED43000049
:1043E000FF4200002D4400000144000001241EE0B3
:1043F000059B0133DBB20593032B80D9022416E021
:10440000059B0133DBB20593052B7FF678AF0EE0F9
:10441000022474E7044672E7022470E704246EE77E
:10442000002404E0042402E0042400E005242046E3
:104430003BB0BDE8F08F00BF1C59002058AD000014
:10444000F8000020EC0000202DE9F84381460F46DB
:104450001646134904F02CFB441D0A21204604F0A3
:10446000F5FA051B2A462146384604F00EFB4FF0AC
:10447000000807F805800B49484604F019FB00F1D5
:1044800009040A21204604F0E1FA051B2A462146C8
:10449000304604F0FAFA06F80580BDE8F88300BF5C
:1044A00078AD000080AD000010B5084C23689B6A11
:1044B00001210220984723689B693220984723688E
:1044C0009B6A00210220984710BD00BF1C590020A4
:1044D00008B5044B1B689B6A011E18BF012101200F
:1044E000984708BD1C59002008B5044B1B689B6AFF
:1044F000011E18BF01210020984708BD1C5900204B
:104500002DE9F041B6B00546826A904B1A60C82288
:10451000002104A804F092FA002104A8FFF7F6FD98
:1045200020B904469DF92A30342B0CD0884B1B68E7
:104530001BB1DB6A0BB1874898470026864B1E707B
:10454000374600F05ABC824B1B681BB1DB6A0BB1CB
:10455000824898470120824B1870824B1870824B1A
:1045600000221A70FFF7C0FF00F07EBC7E4B0122D4
:104570001A707E4B00221A70754B1B681BB1DB6AE8
:104580000BB17B48984700212868FFF797FA8046CF
:10459000F8B96F4B1B681BB1DB6A0BB175489847C4
:1045A000754B00221A806C4B01221A704746724BE1
:1045B0001B889BB2142B40F220846F4B00221A8080
:1045C0006E4B01221A70644B0C221A70274600F0C1
:1045D00014BC5F4B1B681BB1DB6A0BB16848984782
:1045E0000137FFB2042FE2D9644B01221A705A4BF3
:1045F0000C221A702746DAE7554B1B681BB1DB6AA1
:104600000BB160489847002201212868FFF792FA11
:10461000042811D8DFE800F00327102E20004C4BAF
:104620001B681BB1DB6A0BB157489847524B0022FD
:104630001A80494B02221A704F4B1B889BB2142BD5
:1046400040F2DB834C4B00221A804C4B02221A7042
:10465000414B0C221A70D0E3484B0D221A703E4B8E
:1046600001221A70E8E7454B0E221A703A4B0122DC
:104670001A70E1E7414B0F221A70374B01221A7072
:10468000DAE76B79012B12D0334B03221A703A4BC5
:104690001B889BB2412B40F2B083374B00221A801B
:1046A000364B03221A702C4B0C221A70A5E3284BB0
:1046B0001B681BB1DB6A0BB134489847244B1B685D
:1046C0001B6A984700212868FFF774FA0428DED88F
:1046D00001A353F820F000BFED4600006B48000036
:1046E0008F460000794800005D480000224B002200
:1046F0001A8007E0204B00221A80254A25492868A5
:10470000FFF7A2FE1C4B1B889BB2F92B00F299808D
:10471000114B1B78052B00F09480002341F2883266
:10472000C8212868FFF72CF92C681B492046FFF7A1
:1047300047F9002834D1064B1B68002BDAD0DB6A1E
:10474000002BD7D015489847D4E700BF1845002064
:104750001C590020B8AD0000CC4400208CAD0000F6
:10476000D4440020D5440020D1440020D644002069
:10477000D0AD0000E8AD0000D2440020D0440020BD
:1047800004AE00002CAE000048AE000060AE000099
:10479000D8440020F844002084AE000098AE000009
:1047A00089492046FFF70CF90028ABD1874B1B68DD
:1047B0001BB1DB6A0BB186489847864B00221A80F2
:1047C000824B1B689B694FF47A709847824B1B7829
:1047D000022B97D100212868FFF71EFA0428F5D88C
:1047E00001A353F820F000BFFD4700002748000058
:1047F000CD4700003548000019480000734B1B6886
:104800001BB1DB6A0BB175489847724B00221A80C6
:10481000714B05221A7075E7714B0D221A706E4BA1
:1048200002221A70D2E76E4B0E221A706A4B0222D5
:104830001A70CBE76A4B0F221A70674B02221A706C
:10484000C4E7624B1B685B6A9847634B1B78052B78
:104850003FF41DAF604B0C221A7018E7604B0D221D
:104860001A705D4B02221A7011E75D4B0E221A700E
:10487000594B02221A700AE7594B0F221A70564BF5
:1048800002221A7003E7514B1B681BB1DB6A0BB1A4
:104890005448984700212868FFF7F0F9042811D8F8
:1048A000DFE800F00327102E2000484B1B681BB1E7
:1048B000DB6A0BB14C489847464B00221A80464BA6
:1048C00004221A70434B1B889BB2142B40F2958232
:1048D000404B00221A80424B04221A703E4B0C229D
:1048E0001A708AE23E4B0D221A703B4B03221A705B
:1048F000E8E73B4B0E221A70374B03221A70E1E7B0
:10490000374B0F221A70344B03221A70DAE72F4B01
:104910001B681BB1DB6A0BB1344898470023EA6877
:10492000A9682868FFF7DCF9052814D8DFE800F04B
:10493000032A13312331254B1B681BB1DB6A0BB1F2
:104940002B489847234B00221A800120FFF7CCFD0B
:10495000214B05221A701F4B1B889BB23C2B40F247
:104960004C821C4B00221A801D4B05221A701A4BD8
:104970000C221A7041E21A4B0D221A70164B0422B7
:104980001A70E8E7164B0E221A70134B04221A70A5
:10499000E1E7134B0F221A700F4B04221A70DAE76B
:1049A0000A4B1B681BB1DB6A0BB112489847002207
:1049B000297C2868FFF7DAF9042843D8DFE800F0FB
:1049C0001C5242593C0000BFBCAE00001C590020E4
:1049D000D8AE0000D2440020CC440020FCAE000041
:1049E000D044002018AF000038AF00005CAF0000DA
:1049F00078AF000098AF00008C4B1B681BB1DB6ADE
:104A00000BB18B4898478B4C4FF00008A4F80080FE
:104A1000864B1B689B6940F6B8309847A4F8008025
:104A2000687CFEF737FF18B1834B07221A70E4E168
:104A3000814B07221A70E0E1804B0D221A707E4BE9
:104A400005221A707B4B1B889BB2142B40F2D58138
:104A5000784B00221A80794B06221A70764B0C2272
:104A60001A70CAE1754B0E221A70734B05221A7028
:104A7000E8E7724B0F221A706F4B05221A70E1E7BC
:104A80006A4B1B681BB1DB6A0BB16D48984700216C
:104A90002868FFF7F7F9042811D8DFE800F00327AA
:104AA000102E2000614B1B681BB1DB6A0BB16548FF
:104AB0009847604B00221A805F4B07221A705D4BAB
:104AC0001B889BB2782B40F298815A4B00221A80A7
:104AD0005A4B07221A70584B0C221A708DE1574B13
:104AE0000D221A70544B06221A70E8E7534B0E221F
:104AF0001A70514B06221A70E1E7504B0F221A70C0
:104B00004D4B06221A70DAE7484B1B681BB1DB6A73
:104B10000BB14D4898470023039302930193EB692F
:104B20000093AB696A69697C2868FFF75FF904281C
:104B300023D8DFE800F0033222391C003B4B1B680E
:104B40001BB1DB6A0BB1414898473A4B00221A80EF
:104B50003F4B01221A70687CFEF7A4FE18B1364B59
:104B600008221A7009E0344B0A221A7005E0334B10
:104B70000D221A70304B07221A702E4B1B889BB2E5
:104B8000142B40F23A812B4B00221A802B4B092226
:104B90001A70294B0C221A702FE1284B0E221A7022
:104BA000254B07221A70E8E7234B07221A70E4E727
:104BB0001E4B1B681BB1DB6A0BB1264898470022CD
:104BC000A96A2868FFF7D8F9042811D8DFE800F0AF
:104BD000032710462000154B1B681BB1DB6A0BB185
:104BE0001D489847134B00221A80134B0A221A7053
:104BF000104B1B889BB2142B40F2FF800D4B002200
:104C00001A800E4B08221A700B4B0C221A70F4E01B
:104C10000A4B0D221A70084B08221A70E8E7074B5E
:104C20000E221A70044B08221A70E1E71C5900206A
:104C3000B8AF0000D2440020CC440020D044002073
:104C4000D4AF0000F0AF000010B0000030B00000A2
:104C5000D544002050B000006CB00000844B0F22FF
:104C60001A70844B08221A70C2E7834B1B681BB171
:104C7000DB6A0BB1814898470023019395F82430F3
:104C8000009395F8233095F82220298C2868FFF7A7
:104C9000B3F9042811D8DFE800F00327102E200014
:104CA000754B1B681BB1DB6A0BB175489847754B98
:104CB00000221A806F4B0A221A70724B1B889BB21B
:104CC000142B40F29A806F4B00221A80684B0A2204
:104CD0001A70684B0C221A708FE0654B0D221A7007
:104CE000644B09221A70E8E7614B0E221A70614B7F
:104CF00009221A70E1E75E4B0F221A705D4B092200
:104D00001A70DAE75C4B1B681BB1DB6A0BB15E48BB
:104D10009847002395F82C20A96A2868FFF7B2F974
:104D200004283DD8DFE800F0084B3C523600554BD4
:104D30001B889BB2C82B26D84E4B1B780A2B2FD131
:104D400000212868FFF7E2F904460028EFD12B681C
:104D500093F91A30342BEAD1474B1B681BB1DB6A3D
:104D60000BB14A4898470023464A1380484A1370BB
:104D70000123484A1370484A13700B233D4A1370AD
:104D8000464A137070E03F4B00221A80394B0C22C8
:104D90001A70D1E7364B0D221A70364B0A221A7060
:104DA000384B1B889BB2642B27D9364B00221A80C4
:104DB0002F4B0B221A702F4B0C221A701DE02C4B1C
:104DC0000E221A702B4B0A221A70E9E7284B0F2289
:104DD0001A70284B0A221A70E2E7274B1B681BB196
:104DE000DB6A0BB12E489847022E04D80136F6B282
:104DF000204B00221A70032E22D01E4B1C780B2C45
:104E00002FD00C2CF9D801A353F824F06D450000E5
:104E1000F945000083460000874800000F49000064
:104E2000A1490000814A0000094B0000B14B00007D
:104E30006B4C0000054D0000FB4D0000DB4D0000F9
:104E40000D4B1B681BB1DB6A0BB116489847002657
:104E50000F4B1E70144B01221A70064B0B221A7056
:104E6000CBE7114B1C78E4B2204636B0BDE8F081A8
:104E7000D0440020CC4400201C5900208CB00000FD
:104E8000ACB00000D2440020CCB00000ECB0000078
:104E9000D1440020D4440020D5440020FC00002050
:104EA00018B100003CB10000D6440020014B186846
:104EB000704700BF2059002010B5044603F042FEA1
:104EC000024601232146002001F0C8F910BD08B5B3
:104ED0000A4601230146022001F0C0F910F1030F38
:104EE00005D030B110F1040F05D1032002E00220FB
:104EF00000E0002008BD0120FCE70000032800D9E5
:104F0000704708B5064B03EB400C012914BF002283
:104F100001229CF8011013F8100002F044FA08BDB9
:104F2000C0B5000008B5002001F0FBFD003818BF37
:104F3000012008BD08B5002001F0E5FD003818BFCC
:104F4000012008BD08B503F045FB08BD00B583B0DE
:104F500000238DF807300DF10701022001F096FAC9
:104F60009DF8070000F0010003B05DF804FB00B5F8
:104F700083B000238DF807300DF10701022001F006
:104F800071FA9DF8070080F0010003B05DF804FBA2
:104F900008B5022001F04AFA003818BF012008BD08
:104FA00008B50A4600230146022001F0B9F910F1C4
:104FB000030F02D010B1012000E0022008BD000064
:104FC0002DE9F04107460D4616460E4BD3F80080FA
:104FD0000024AC4210D20B4B1B68A3EB0803B34276
:104FE0000AD201231A463919022001F099F9002842
:104FF000EFD10134A4B2ECE714B10020BDE8F08198
:105000000320FBE720590020024A13680133136094
:10501000704700BF2059002008B50248FEF77EFC0B
:1050200008BD00BF90B5000048B3844651B3012AC3
:105030002BD9002390F9000068B310B50CE01C4692
:1050400003F1010E964523D21FFA8EF308550CF199
:10505000010C9CF9000080B1222801D05C28EED11F
:105060009C1C9442EBD2581C80B25C24CC5402337A
:105070009BB29CF900400C54E9E7C85410BD4FF0B6
:10508000FF3070474FF0FF3070474FF0FF307047F0
:105090004FF0FF30F2E7C854704770B582B0054654
:1050A000FEF742FC78B10446C3699847064605E01E
:1050B0006368052201210DF107009847E3699847CD
:1050C000801BA842F4D302B070BD00002DE9F0416E
:1050D000ADF5067D06460D46FEF726FC002E00F0D7
:1050E0008B800446002D00F08A80002800F08A8022
:1050F000A0225EA92846FFF797FF8046002840F0CF
:1051000084803220FFF7C9FF5EAB00933346424AEA
:105110004FF4B47104A803F003FC04A8FEF70AFCE2
:10512000002875D14FF4406200213C4803F086FC12
:10513000E3699847064605460027E3699847831BBD
:1051400040F6C312934220D86368052201210DF175
:105150000F009847002835D17B1CB3F5406F07D26C
:105160009BB29DF90F102D4AD1550021D1541F46F5
:10517000E369984705462A49284803F099FCA0B1FD
:10518000E3699847401B1D28D7D91FB324492348FA
:1051900003F08EFC20BB2349204803F089FC28B390
:1051A00040460DF5067DBDE8F0811F491B4803F020
:1051B0007FFC0028E4D11D49184803F079FC002841
:1051C000DED1BAE7002FB8D0E3699847401B4F28DB
:1051D000B3D9DAE71648FDF705FC4FF0FF38DFE7F3
:1051E0001448FDF7FFFB4FF0FF38D9E71248FDF7F1
:1051F000F9FB4FF0FF38D3E74FF0FF38D0E74FF01F
:10520000FF38CDE74FF0FF38CAE74FF0FF38C7E768
:105210004FF0FF38C4E700BF5CA20000246100200B
:10522000E8A2000080960000ECB1000084B200000B
:1052300088B20000A4B20000BCB200002DE9F04F1B
:1052400085B0804689461546FEF76EFB00286AD079
:105250000446B8F1000F68D0B9F10F0F04D800264A
:10526000304605B0BDE8F08F4A460021404603F0C5
:10527000E5FBE3699847074601904FF0000BDA46DB
:105280005E46E3699847C01BA842E9D263680522DD
:1052900001210DF10F00984758B1BAF1000FF0D07D
:1052A000E3699847019BC01A40F2DB539842E8D962
:1052B000D6E73246731C994508D99EB29DF90F1066
:1052C00008F802109BB2002208F80320E36998470F
:1052D0000190BAF1000FD4D1154B13F90B209DF8B2
:1052E0000F109DF90F309A4203D02B2914D0D346CA
:1052F000C7E70BF1010B5FFA8BFB0D4B13F90B307A
:10530000002BBED1E3699847C31B03F57A639D4226
:1053100005D34FF0010AB4E74FF0010BB1E71D468A
:105320004FF0010AADE700269AE7002698E700BF94
:10533000C8B500002DE9F04796B0002900F0DC80E8
:1053400015460F4602464FF440617048FFF776FF5E
:105350000446002800F0D3806D496C4803F0A8FB98
:10536000002800F0D180002633460FE09A4240F238
:10537000C78093F900102C2940F0C280581C93F983
:10538000011022291ED0614BC01A83B203F10D0215
:10539000A24280F0B5805E495C48184403F088FB67
:1053A000002800F0AD80594A831A12FA83F30D33B6
:1053B000564A22449A42D9D993F900102C29D5D0C3
:1053C0000133F5E7023300E001339A4203D993F940
:1053D00000102229F8D19A4240F2928093F90010ED
:1053E000222940F08D80591C93F901002C2803D00C
:1053F000464BCB1A9BB2C9E702334FF0000906E0D7
:1054000009EB890901EB4901A1F1300901339A4205
:1054100005D993F900102F2901DD3929F0DD9A42D1
:1054200006D993F900202C2A02D1B9F1000F03D13B
:10543000364A9B1A9BB2A9E703F10108334BA8EB4C
:1054400003081FFA88F808EB0903A34209D84FF4B0
:10545000006200212F4803F0F1FA4FF0000A534692
:1054600007E0A4EB080249462B48FDF7C5FA47E0E0
:105470000133994510D90AF10102B2F5006FF7D254
:1054800018FA83F192B221484056224901F80A00E5
:10549000002088549246EBE751462048FDF7ACFACD
:1054A000BAF1500F28BF4FF0500A002305E05832E0
:1054B0006A4402F8540C01339BB2534509D21A4690
:1054C0001449C856A0F12001C9B25E29EFD92E2097
:1054D000EDE70AF158030DEB030A00230AF8543CE8
:1054E00001A8FDF77FFA29460A48B84700B9012606
:1054F00018FA89F39BB249E74FF0FF3600E0002627
:10550000304616B0BDE8F0870026F9E72461002098
:1055100000A1000024590020D4B20000FCB2000019
:10552000002861D030B58DB00B46154604460029E1
:105530005DD0002A5ED0374A3021684603F0F0F98A
:105540006946204603F0B4FA0446002855D0684660
:1055500003F0F8FA204490F900303A2B0ED04FDCDB
:105560000D2B04D005DC093BDBB2012B4CD80130FC
:10557000F1E7202BFBD04FF0FF3043E0441C94F9BF
:105580000030093B192B11D8DFE803F00D0D101086
:105590000D1010101010101010101010101010100E
:1055A0001010100D100F0134E9E7013404221A49DC
:1055B000204603F058FA70B105221849204603F03E
:1055C00052FA58B194F90030312B09D0302B1ED14A
:1055D0000020287016E001232B7013E0287011E0E2
:1055E00001232B7000200DE04FF0FF3070474FF08B
:1055F000FF3007E04FF0FF3004E04FF0FF3001E0F4
:105600004FF0FF300DB030BD4FF0FF30FAE74FF0F4
:10561000FF30F7E714B30000989F0000A09F000040
:1056200010B58CB0044600283CD00B46B9B3214AD3
:105630003021684603F074F96946204603F038FAD1
:10564000044678B3684603F07DFA044494F90030C8
:105650003A2B0DD025DC0D2B04D005DC093BDBB249
:10566000012B22D80134F1E7202BFBD0002419E0D4
:10567000013494F90030202B0DDC092B17DB093B9A
:10568000DBB20D4A22FA03F313F0010F01D001340B
:10569000EFE7002406E07B2B04D0002402E00C4658
:1056A00000E0002420460CB010BD0024FAE70024DE
:1056B000F8E700BF14B300001300800030B310B54A
:1056C00004461448FDF78EF90023012212492046B2
:1056D000FEF78CFD70B91148FDF784F90023012213
:1056E0000F492046FEF782FD50B90E48FDF77AF9C2
:1056F000002010BD0C48FDF775F94FF0FF30F8E7BA
:105700000A48FDF76FF94FF0FF30F2E74FF0FF3036
:10571000704700BF1CB300003CB3000094B300000E
:10572000B4B3000014B4000078B30000F0B300007C
:10573000D8B100B5B9B00E48FDF754F91E20FFF7F7
:10574000ACFC0C4B0C4ADC2101A803F0E9F801A8E1
:10575000FEF7F0F818B9002039B05DF804FB0748EF
:10576000FDF740F94FF0FF30F6E74FF0FF3070479C
:1057700028B4000040B4000074B4000094B40000E9
:10578000002833D010B5A4B013460446002A30D008
:105790007F2931D91B4A802104A803F0C1F80138C0
:1057A0007E282CD81848FDF71DF904A91748FFF7E3
:1057B0008DFC08B924B010BD1548FDF713F904A8F5
:1057C00003F0C0F90023029301930123009304AB7B
:1057D00082B20E492046FEF761FD08B90020E9E7D4
:1057E0000C48FDF7FFF84FF0FF30E3E74FF0FF30D4
:1057F00070474FF0FF30DDE74FF0FF30DAE74FF052
:10580000FF30D7E7ACB40000C8B40000E8B4000033
:105810001CB5000044B5000008B510461946632ABF
:1058200000D86420029AFFF785FD08BD10B44FF040
:1058300080439A6A42F4FE429A621A6B42F4FE4234
:105840001A63D3F89C2042F08062C3F89C20D3F8FE
:10585000A02042F0042242F00A02C3F8A020354AF8
:105860001523C2F8F03F5123C2F8F03F0023136123
:1058700013639363D36353616FF4EE0111602E4998
:1058800051606FF040719160D3602C490B614FF60D
:10589000306008638863CB634B61294808602948FE
:1058A000486029488860CB6028484FF40071016146
:1058B00003638363C36343612549016025494160F4
:1058C0004FF0FF318160244CC46000F580700361AB
:1058D00003638363C3634361016041608160C360AC
:1058E00000F58070036103638363C36343610160F8
:1058F00041608160C36000F58070036180240463AF
:105900008463C36343616FF0E044046041606FF4FB
:1059100040448460C36000F5807003610363836367
:10592000C3634361016041608160C360C2F8F03FBE
:1059300010BC70470000014199FFF8FF00010141D0
:10594000FFFF88998F888888FFF0030000020141DB
:10595000BBBBFBFF8FBBFFBB8A02A00008B5FFF7F4
:1059600065FF00F00DF800F0E3F800F08DF900F0AD
:1059700029F900F0ABF800F047F8002008BD00005E
:1059800030B585B002258DF80C5000248DF80D40FF
:105990008DF80E401B4A6B4607CA03C31A700121DB
:1059A000284601F0EBFA0121084601F0E7FA01214F
:1059B000204601F0E3FA0121032001F0DFFA03A8F9
:1059C00001F07CFA6946012001F00AFB04238DF8FE
:1059D0000C308DF80D408DF80E4003A801F06EFAE2
:1059E000204601F07DFB22460F21284601F06AFB8C
:1059F0002146204601F0C2FA2146032001F0BEFAFA
:105A000005B030BDD8B5000008B5FBF753F8FBF77B
:105A10007FF808BD00B589B0002006908DF81C0005
:105A200002238DF81B30039004908DF814008DF83C
:105A30000C3001238DF8143002F0B0FB10B109B026
:105A40005DF804FB06A902F0C5FB0028F7D103A905
:105A500002F0D8FB0028F2D1032300930023034A6D
:105A60001946184602F012FCE9E700BFD95A0000B7
:105A700000B589B0002306938DF81C3002228DF802
:105A80001B20039304938DF8143001208DF814002B
:105A900002F084FB10B109B05DF804FB06A90120F7
:105AA00002F098FB0028F6D103A9012002F0AAFB1E
:105AB0000028F0D1032300930023034A1946012054
:105AC00002F0E4FBE7E700BFDB5A000008B5FFF790
:105AD000A1FFFFF7CDFF08BD7047704700B587B045
